{
  "_format": "hh-sol-artifact-1",
  "contractName": "NFTCollectionWithBaseURI",
  "sourceName": "contracts/NFT/NFTCollectionWithBaseURI.sol",
  "abi": [
    {
      "inputs": [
        {
          "internalType": "string",
          "name": "_name_",
          "type": "string"
        },
        {
          "internalType": "string",
          "name": "_symbol_",
          "type": "string"
        },
        {
          "internalType": "string",
          "name": "_baseURI_",
          "type": "string"
        },
        {
          "internalType": "uint256",
          "name": "_nftNumber_",
          "type": "uint256"
        }
      ],
      "stateMutability": "nonpayable",
      "type": "constructor"
    },
    {
      "anonymous": false,
      "inputs": [
        {
          "indexed": true,
          "internalType": "address",
          "name": "owner",
          "type": "address"
        },
        {
          "indexed": true,
          "internalType": "address",
          "name": "approved",
          "type": "address"
        },
        {
          "indexed": true,
          "internalType": "uint256",
          "name": "tokenId",
          "type": "uint256"
        }
      ],
      "name": "Approval",
      "type": "event"
    },
    {
      "anonymous": false,
      "inputs": [
        {
          "indexed": true,
          "internalType": "address",
          "name": "owner",
          "type": "address"
        },
        {
          "indexed": true,
          "internalType": "address",
          "name": "operator",
          "type": "address"
        },
        {
          "indexed": false,
          "internalType": "bool",
          "name": "approved",
          "type": "bool"
        }
      ],
      "name": "ApprovalForAll",
      "type": "event"
    },
    {
      "anonymous": false,
      "inputs": [
        {
          "indexed": true,
          "internalType": "address",
          "name": "previousOwner",
          "type": "address"
        },
        {
          "indexed": true,
          "internalType": "address",
          "name": "newOwner",
          "type": "address"
        }
      ],
      "name": "OwnershipTransferred",
      "type": "event"
    },
    {
      "anonymous": false,
      "inputs": [
        {
          "indexed": true,
          "internalType": "address",
          "name": "from",
          "type": "address"
        },
        {
          "indexed": true,
          "internalType": "address",
          "name": "to",
          "type": "address"
        },
        {
          "indexed": true,
          "internalType": "uint256",
          "name": "tokenId",
          "type": "uint256"
        }
      ],
      "name": "Transfer",
      "type": "event"
    },
    {
      "inputs": [
        {
          "internalType": "address",
          "name": "to",
          "type": "address"
        },
        {
          "internalType": "uint256",
          "name": "tokenId",
          "type": "uint256"
        }
      ],
      "name": "approve",
      "outputs": [],
      "stateMutability": "nonpayable",
      "type": "function"
    },
    {
      "inputs": [
        {
          "internalType": "address",
          "name": "owner",
          "type": "address"
        }
      ],
      "name": "balanceOf",
      "outputs": [
        {
          "internalType": "uint256",
          "name": "",
          "type": "uint256"
        }
      ],
      "stateMutability": "view",
      "type": "function"
    },
    {
      "inputs": [],
      "name": "baseURI",
      "outputs": [
        {
          "internalType": "string",
          "name": "",
          "type": "string"
        }
      ],
      "stateMutability": "view",
      "type": "function"
    },
    {
      "inputs": [
        {
          "internalType": "uint256",
          "name": "tokenId",
          "type": "uint256"
        }
      ],
      "name": "burn",
      "outputs": [],
      "stateMutability": "nonpayable",
      "type": "function"
    },
    {
      "inputs": [
        {
          "internalType": "uint256",
          "name": "tokenId",
          "type": "uint256"
        }
      ],
      "name": "getApproved",
      "outputs": [
        {
          "internalType": "address",
          "name": "",
          "type": "address"
        }
      ],
      "stateMutability": "view",
      "type": "function"
    },
    {
      "inputs": [
        {
          "internalType": "address",
          "name": "owner",
          "type": "address"
        },
        {
          "internalType": "address",
          "name": "operator",
          "type": "address"
        }
      ],
      "name": "isApprovedForAll",
      "outputs": [
        {
          "internalType": "bool",
          "name": "",
          "type": "bool"
        }
      ],
      "stateMutability": "view",
      "type": "function"
    },
    {
      "inputs": [],
      "name": "name",
      "outputs": [
        {
          "internalType": "string",
          "name": "",
          "type": "string"
        }
      ],
      "stateMutability": "view",
      "type": "function"
    },
    {
      "inputs": [],
      "name": "owner",
      "outputs": [
        {
          "internalType": "address",
          "name": "",
          "type": "address"
        }
      ],
      "stateMutability": "view",
      "type": "function"
    },
    {
      "inputs": [
        {
          "internalType": "uint256",
          "name": "tokenId",
          "type": "uint256"
        }
      ],
      "name": "ownerOf",
      "outputs": [
        {
          "internalType": "address",
          "name": "",
          "type": "address"
        }
      ],
      "stateMutability": "view",
      "type": "function"
    },
    {
      "inputs": [],
      "name": "renounceOwnership",
      "outputs": [],
      "stateMutability": "nonpayable",
      "type": "function"
    },
    {
      "inputs": [
        {
          "internalType": "address",
          "name": "from",
          "type": "address"
        },
        {
          "internalType": "address",
          "name": "to",
          "type": "address"
        },
        {
          "internalType": "uint256",
          "name": "tokenId",
          "type": "uint256"
        }
      ],
      "name": "safeTransferFrom",
      "outputs": [],
      "stateMutability": "nonpayable",
      "type": "function"
    },
    {
      "inputs": [
        {
          "internalType": "address",
          "name": "from",
          "type": "address"
        },
        {
          "internalType": "address",
          "name": "to",
          "type": "address"
        },
        {
          "internalType": "uint256",
          "name": "tokenId",
          "type": "uint256"
        },
        {
          "internalType": "bytes",
          "name": "_data",
          "type": "bytes"
        }
      ],
      "name": "safeTransferFrom",
      "outputs": [],
      "stateMutability": "nonpayable",
      "type": "function"
    },
    {
      "inputs": [
        {
          "internalType": "address",
          "name": "operator",
          "type": "address"
        },
        {
          "internalType": "bool",
          "name": "approved",
          "type": "bool"
        }
      ],
      "name": "setApprovalForAll",
      "outputs": [],
      "stateMutability": "nonpayable",
      "type": "function"
    },
    {
      "inputs": [
        {
          "internalType": "string",
          "name": "newURI",
          "type": "string"
        }
      ],
      "name": "setURI",
      "outputs": [],
      "stateMutability": "nonpayable",
      "type": "function"
    },
    {
      "inputs": [
        {
          "internalType": "bytes4",
          "name": "interfaceId",
          "type": "bytes4"
        }
      ],
      "name": "supportsInterface",
      "outputs": [
        {
          "internalType": "bool",
          "name": "",
          "type": "bool"
        }
      ],
      "stateMutability": "view",
      "type": "function"
    },
    {
      "inputs": [],
      "name": "symbol",
      "outputs": [
        {
          "internalType": "string",
          "name": "",
          "type": "string"
        }
      ],
      "stateMutability": "view",
      "type": "function"
    },
    {
      "inputs": [],
      "name": "theBaseURI",
      "outputs": [
        {
          "internalType": "string",
          "name": "",
          "type": "string"
        }
      ],
      "stateMutability": "view",
      "type": "function"
    },
    {
      "inputs": [
        {
          "internalType": "uint256",
          "name": "tokenId",
          "type": "uint256"
        }
      ],
      "name": "tokenURI",
      "outputs": [
        {
          "internalType": "string",
          "name": "",
          "type": "string"
        }
      ],
      "stateMutability": "view",
      "type": "function"
    },
    {
      "inputs": [
        {
          "internalType": "address",
          "name": "from",
          "type": "address"
        },
        {
          "internalType": "address",
          "name": "to",
          "type": "address"
        },
        {
          "internalType": "uint256",
          "name": "tokenId",
          "type": "uint256"
        }
      ],
      "name": "transferFrom",
      "outputs": [],
      "stateMutability": "nonpayable",
      "type": "function"
    },
    {
      "inputs": [
        {
          "internalType": "address",
          "name": "newOwner",
          "type": "address"
        }
      ],
      "name": "transferOwnership",
      "outputs": [],
      "stateMutability": "nonpayable",
      "type": "function"
    }
  ],
  "bytecode": "0x60806040523480156200001157600080fd5b5060405162001bfa38038062001bfa8339810160408190526200003491620003b2565b83836200004133620000bd565b81516200005690600190602085019062000259565b5080516200006c90600290602084019062000259565b50508251620000849150600790602085019062000259565b5060005b81811015620000b2576200009d33826200010d565b80620000a9816200049f565b91505062000088565b5050505050620004e9565b600080546001600160a01b038381166001600160a01b0319831681178455604051919092169283917f8be0079c531659141344cd1fd0a4f28419497f9722a3daafe3b4186f6b6457e09190a35050565b6001600160a01b038216620001695760405162461bcd60e51b815260206004820181905260248201527f4552433732313a206d696e7420746f20746865207a65726f206164647265737360448201526064015b60405180910390fd5b6000818152600360205260409020546001600160a01b031615620001d05760405162461bcd60e51b815260206004820152601c60248201527f4552433732313a20746f6b656e20616c7265616479206d696e74656400000000604482015260640162000160565b6001600160a01b0382166000908152600460205260408120805460019290620001fb90849062000447565b909155505060008181526003602052604080822080546001600160a01b0319166001600160a01b03861690811790915590518392907fddf252ad1be2c89b69c2b068fc378daa952ba7f163c4a11628f55a4df523b3ef908290a45050565b828054620002679062000462565b90600052602060002090601f0160209004810192826200028b5760008555620002d6565b82601f10620002a657805160ff1916838001178555620002d6565b82800160010185558215620002d6579182015b82811115620002d6578251825591602001919060010190620002b9565b50620002e4929150620002e8565b5090565b5b80821115620002e45760008155600101620002e9565b600082601f83011262000310578081fd5b81516001600160401b03808211156200032d576200032d620004d3565b604051601f8301601f19908116603f01168101908282118183101715620003585762000358620004d3565b8160405283815260209250868385880101111562000374578485fd5b8491505b8382101562000397578582018301518183018401529082019062000378565b83821115620003a857848385830101525b9695505050505050565b60008060008060808587031215620003c8578384fd5b84516001600160401b0380821115620003df578586fd5b620003ed88838901620002ff565b9550602087015191508082111562000403578485fd5b6200041188838901620002ff565b9450604087015191508082111562000427578384fd5b506200043687828801620002ff565b606096909601519497939650505050565b600082198211156200045d576200045d620004bd565b500190565b600181811c908216806200047757607f821691505b602082108114156200049957634e487b7160e01b600052602260045260246000fd5b50919050565b6000600019821415620004b657620004b6620004bd565b5060010190565b634e487b7160e01b600052601160045260246000fd5b634e487b7160e01b600052604160045260246000fd5b61170180620004f96000396000f3fe608060405234801561001057600080fd5b506004361061012c5760003560e01c806370a08231116100ad578063a22cb46511610071578063a22cb4651461025f578063b88d4fde14610272578063c87b56dd14610285578063e985e9c514610298578063f2fde38b146102d45761012c565b806370a0823114610215578063715018a61461023657806377eebbdb1461023e5780638da5cb5b1461024657806395d89b41146102575761012c565b806323b872dd116100f457806323b872dd146101c157806342842e0e146101d457806342966c68146101e75780636352211e146101fa5780636c0360eb1461020d5761012c565b806301ffc9a71461013157806302fe53051461015957806306fdde031461016e578063081812fc14610183578063095ea7b3146101ae575b600080fd5b61014461013f366004611371565b6102e7565b60405190151581526020015b60405180910390f35b61016c6101673660046113a9565b61033b565b005b610176610385565b60405161015091906114af565b6101966101913660046113ef565b610417565b6040516001600160a01b039091168152602001610150565b61016c6101bc366004611348565b6104ac565b61016c6101cf36600461125a565b6105c2565b61016c6101e236600461125a565b6105f4565b61016c6101f53660046113ef565b61060f565b6101966102083660046113ef565b610640565b6101766106b7565b61022861022336600461120e565b6106c6565b604051908152602001610150565b61016c61074d565b610176610783565b6000546001600160a01b0316610196565b610176610811565b61016c61026d36600461130e565b610820565b61016c610280366004611295565b6108f2565b6101766102933660046113ef565b61092a565b6101446102a6366004611228565b6001600160a01b03918216600090815260066020908152604080832093909416825291909152205460ff1690565b61016c6102e236600461120e565b610a05565b60006001600160e01b031982166380ac58cd60e01b148061031857506001600160e01b03198216635b5e139f60e01b145b8061033357506301ffc9a760e01b6001600160e01b03198316145b90505b919050565b6000546001600160a01b0316331461036e5760405162461bcd60e51b815260040161036590611514565b60405180910390fd5b80516103819060079060208401906110e8565b5050565b60606001805461039490611609565b80601f01602080910402602001604051908101604052809291908181526020018280546103c090611609565b801561040d5780601f106103e25761010080835404028352916020019161040d565b820191906000526020600020905b8154815290600101906020018083116103f057829003601f168201915b5050505050905090565b6000818152600360205260408120546001600160a01b03166104905760405162461bcd60e51b815260206004820152602c60248201527f4552433732313a20617070726f76656420717565727920666f72206e6f6e657860448201526b34b9ba32b73a103a37b5b2b760a11b6064820152608401610365565b506000908152600560205260409020546001600160a01b031690565b60006104b782610640565b9050806001600160a01b0316836001600160a01b031614156105255760405162461bcd60e51b815260206004820152602160248201527f4552433732313a20617070726f76616c20746f2063757272656e74206f776e656044820152603960f91b6064820152608401610365565b336001600160a01b0382161480610541575061054181336102a6565b6105b35760405162461bcd60e51b815260206004820152603860248201527f4552433732313a20617070726f76652063616c6c6572206973206e6f74206f7760448201527f6e6572206e6f7220617070726f76656420666f7220616c6c00000000000000006064820152608401610365565b6105bd8383610a9d565b505050565b6105cd335b82610b0b565b6105e95760405162461bcd60e51b815260040161036590611549565b6105bd838383610c02565b6105bd838383604051806020016040528060008152506108f2565b610618336105c7565b6106345760405162461bcd60e51b815260040161036590611549565b61063d81610da2565b50565b6000818152600360205260408120546001600160a01b0316806103335760405162461bcd60e51b815260206004820152602960248201527f4552433732313a206f776e657220717565727920666f72206e6f6e657869737460448201526832b73a103a37b5b2b760b91b6064820152608401610365565b60606007805461039490611609565b60006001600160a01b0382166107315760405162461bcd60e51b815260206004820152602a60248201527f4552433732313a2062616c616e636520717565727920666f7220746865207a65604482015269726f206164647265737360b01b6064820152608401610365565b506001600160a01b031660009081526004602052604090205490565b6000546001600160a01b031633146107775760405162461bcd60e51b815260040161036590611514565b6107816000610e3d565b565b6007805461079090611609565b80601f01602080910402602001604051908101604052809291908181526020018280546107bc90611609565b80156108095780601f106107de57610100808354040283529160200191610809565b820191906000526020600020905b8154815290600101906020018083116107ec57829003601f168201915b505050505081565b60606002805461039490611609565b6001600160a01b0382163314156108795760405162461bcd60e51b815260206004820152601960248201527f4552433732313a20617070726f766520746f2063616c6c6572000000000000006044820152606401610365565b3360008181526006602090815260408083206001600160a01b0387168085529252909120805460ff1916841515179055906001600160a01b03167f17307eab39ab6107e8899845ad3d59bd9653f200f220920489ca2b5937696c31836040516108e6911515815260200190565b60405180910390a35050565b6108fc3383610b0b565b6109185760405162461bcd60e51b815260040161036590611549565b61092484848484610e8d565b50505050565b6000818152600360205260409020546060906001600160a01b03166109a95760405162461bcd60e51b815260206004820152602f60248201527f4552433732314d657461646174613a2055524920717565727920666f72206e6f60448201526e3732bc34b9ba32b73a103a37b5b2b760891b6064820152608401610365565b60006109b36106b7565b905060008151116109d357604051806020016040528060008152506109fe565b806109dd84610ec0565b6040516020016109ee929190611433565b6040516020818303038152906040525b9392505050565b6000546001600160a01b03163314610a2f5760405162461bcd60e51b815260040161036590611514565b6001600160a01b038116610a945760405162461bcd60e51b815260206004820152602660248201527f4f776e61626c653a206e6577206f776e657220697320746865207a65726f206160448201526564647265737360d01b6064820152608401610365565b61063d81610e3d565b600081815260056020526040902080546001600160a01b0319166001600160a01b0384169081179091558190610ad282610640565b6001600160a01b03167f8c5be1e5ebec7d5bd14f71427d1e84f3dd0314c0f7b2291e5b200ac8c7c3b92560405160405180910390a45050565b6000818152600360205260408120546001600160a01b0316610b845760405162461bcd60e51b815260206004820152602c60248201527f4552433732313a206f70657261746f7220717565727920666f72206e6f6e657860448201526b34b9ba32b73a103a37b5b2b760a11b6064820152608401610365565b6000610b8f83610640565b9050806001600160a01b0316846001600160a01b03161480610bca5750836001600160a01b0316610bbf84610417565b6001600160a01b0316145b80610bfa57506001600160a01b0380821660009081526006602090815260408083209388168352929052205460ff165b949350505050565b826001600160a01b0316610c1582610640565b6001600160a01b031614610c7d5760405162461bcd60e51b815260206004820152602960248201527f4552433732313a207472616e73666572206f6620746f6b656e2074686174206960448201526839903737ba1037bbb760b91b6064820152608401610365565b6001600160a01b038216610cdf5760405162461bcd60e51b8152602060048201526024808201527f4552433732313a207472616e7366657220746f20746865207a65726f206164646044820152637265737360e01b6064820152608401610365565b610cea600082610a9d565b6001600160a01b0383166000908152600460205260408120805460019290610d139084906115c6565b90915550506001600160a01b0382166000908152600460205260408120805460019290610d4190849061159a565b909155505060008181526003602052604080822080546001600160a01b0319166001600160a01b0386811691821790925591518493918716917fddf252ad1be2c89b69c2b068fc378daa952ba7f163c4a11628f55a4df523b3ef91a4505050565b6000610dad82610640565b9050610dba600083610a9d565b6001600160a01b0381166000908152600460205260408120805460019290610de39084906115c6565b909155505060008281526003602052604080822080546001600160a01b0319169055518391906001600160a01b038416907fddf252ad1be2c89b69c2b068fc378daa952ba7f163c4a11628f55a4df523b3ef908390a45050565b600080546001600160a01b038381166001600160a01b0319831681178455604051919092169283917f8be0079c531659141344cd1fd0a4f28419497f9722a3daafe3b4186f6b6457e09190a35050565b610e98848484610c02565b610ea484848484610fdb565b6109245760405162461bcd60e51b8152600401610365906114c2565b606081610ee557506040805180820190915260018152600360fc1b6020820152610336565b8160005b8115610f0f5780610ef981611644565b9150610f089050600a836115b2565b9150610ee9565b60008167ffffffffffffffff811115610f3857634e487b7160e01b600052604160045260246000fd5b6040519080825280601f01601f191660200182016040528015610f62576020820181803683370190505b5090505b8415610bfa57610f776001836115c6565b9150610f84600a8661165f565b610f8f90603061159a565b60f81b818381518110610fb257634e487b7160e01b600052603260045260246000fd5b60200101906001600160f81b031916908160001a905350610fd4600a866115b2565b9450610f66565b60006001600160a01b0384163b156110dd57604051630a85bd0160e11b81526001600160a01b0385169063150b7a029061101f903390899088908890600401611472565b602060405180830381600087803b15801561103957600080fd5b505af1925050508015611069575060408051601f3d908101601f191682019092526110669181019061138d565b60015b6110c3573d808015611097576040519150601f19603f3d011682016040523d82523d6000602084013e61109c565b606091505b5080516110bb5760405162461bcd60e51b8152600401610365906114c2565b805181602001fd5b6001600160e01b031916630a85bd0160e11b149050610bfa565b506001949350505050565b8280546110f490611609565b90600052602060002090601f016020900481019282611116576000855561115c565b82601f1061112f57805160ff191683800117855561115c565b8280016001018555821561115c579182015b8281111561115c578251825591602001919060010190611141565b5061116892915061116c565b5090565b5b80821115611168576000815560010161116d565b600067ffffffffffffffff8084111561119c5761119c61169f565b604051601f8501601f19908116603f011681019082821181831017156111c4576111c461169f565b816040528093508581528686860111156111dd57600080fd5b858560208301376000602087830101525050509392505050565b80356001600160a01b038116811461033657600080fd5b60006020828403121561121f578081fd5b6109fe826111f7565b6000806040838503121561123a578081fd5b611243836111f7565b9150611251602084016111f7565b90509250929050565b60008060006060848603121561126e578081fd5b611277846111f7565b9250611285602085016111f7565b9150604084013590509250925092565b600080600080608085870312156112aa578081fd5b6112b3856111f7565b93506112c1602086016111f7565b925060408501359150606085013567ffffffffffffffff8111156112e3578182fd5b8501601f810187136112f3578182fd5b61130287823560208401611181565b91505092959194509250565b60008060408385031215611320578182fd5b611329836111f7565b91506020830135801515811461133d578182fd5b809150509250929050565b6000806040838503121561135a578182fd5b611363836111f7565b946020939093013593505050565b600060208284031215611382578081fd5b81356109fe816116b5565b60006020828403121561139e578081fd5b81516109fe816116b5565b6000602082840312156113ba578081fd5b813567ffffffffffffffff8111156113d0578182fd5b8201601f810184136113e0578182fd5b610bfa84823560208401611181565b600060208284031215611400578081fd5b5035919050565b6000815180845261141f8160208601602086016115dd565b601f01601f19169290920160200192915050565b600083516114458184602088016115dd565b8351908301906114598183602088016115dd565b64173539b7b760d91b9101908152600501949350505050565b6001600160a01b03858116825284166020820152604081018390526080606082018190526000906114a590830184611407565b9695505050505050565b6000602082526109fe6020830184611407565b60208082526032908201527f4552433732313a207472616e7366657220746f206e6f6e20455243373231526560408201527131b2b4bb32b91034b6b83632b6b2b73a32b960711b606082015260800190565b6020808252818101527f4f776e61626c653a2063616c6c6572206973206e6f7420746865206f776e6572604082015260600190565b60208082526031908201527f4552433732313a207472616e736665722063616c6c6572206973206e6f74206f6040820152701ddb995c881b9bdc88185c1c1c9bdd9959607a1b606082015260800190565b600082198211156115ad576115ad611673565b500190565b6000826115c1576115c1611689565b500490565b6000828210156115d8576115d8611673565b500390565b60005b838110156115f85781810151838201526020016115e0565b838111156109245750506000910152565b600181811c9082168061161d57607f821691505b6020821081141561163e57634e487b7160e01b600052602260045260246000fd5b50919050565b600060001982141561165857611658611673565b5060010190565b60008261166e5761166e611689565b500690565b634e487b7160e01b600052601160045260246000fd5b634e487b7160e01b600052601260045260246000fd5b634e487b7160e01b600052604160045260246000fd5b6001600160e01b03198116811461063d57600080fdfea26469706673582212207ee9adce922aa3255bddaf6a95941dd1dc2b21b5f91c5f453f3abbf4314fce8364736f6c63430008030033",
  "linkReferences": {},
  "deployedLinkReferences": {}
}