{
  "address": "0x84ebD556860888E6BB6517c8B61638BBc2EaEaCC",
  "abi": [
    {
      "inputs": [
        {
          "internalType": "string",
          "name": "_name",
          "type": "string"
        },
        {
          "internalType": "string",
          "name": "_symbol",
          "type": "string"
        }
      ],
      "stateMutability": "nonpayable",
      "type": "constructor"
    },
    {
      "anonymous": false,
      "inputs": [
        {
          "indexed": true,
          "internalType": "address",
          "name": "owner",
          "type": "address"
        },
        {
          "indexed": true,
          "internalType": "address",
          "name": "approved",
          "type": "address"
        },
        {
          "indexed": true,
          "internalType": "uint256",
          "name": "tokenId",
          "type": "uint256"
        }
      ],
      "name": "Approval",
      "type": "event"
    },
    {
      "anonymous": false,
      "inputs": [
        {
          "indexed": true,
          "internalType": "address",
          "name": "owner",
          "type": "address"
        },
        {
          "indexed": true,
          "internalType": "address",
          "name": "operator",
          "type": "address"
        },
        {
          "indexed": false,
          "internalType": "bool",
          "name": "approved",
          "type": "bool"
        }
      ],
      "name": "ApprovalForAll",
      "type": "event"
    },
    {
      "anonymous": false,
      "inputs": [
        {
          "indexed": true,
          "internalType": "address",
          "name": "account",
          "type": "address"
        }
      ],
      "name": "OperatorAdded",
      "type": "event"
    },
    {
      "anonymous": false,
      "inputs": [
        {
          "indexed": true,
          "internalType": "address",
          "name": "account",
          "type": "address"
        }
      ],
      "name": "OperatorRemoved",
      "type": "event"
    },
    {
      "anonymous": false,
      "inputs": [
        {
          "indexed": true,
          "internalType": "address",
          "name": "previousOwner",
          "type": "address"
        },
        {
          "indexed": true,
          "internalType": "address",
          "name": "newOwner",
          "type": "address"
        }
      ],
      "name": "OwnershipTransferred",
      "type": "event"
    },
    {
      "anonymous": false,
      "inputs": [
        {
          "indexed": true,
          "internalType": "address",
          "name": "from",
          "type": "address"
        },
        {
          "indexed": true,
          "internalType": "address",
          "name": "to",
          "type": "address"
        },
        {
          "indexed": true,
          "internalType": "uint256",
          "name": "tokenId",
          "type": "uint256"
        }
      ],
      "name": "Transfer",
      "type": "event"
    },
    {
      "inputs": [
        {
          "internalType": "address",
          "name": "account",
          "type": "address"
        }
      ],
      "name": "addOperator",
      "outputs": [],
      "stateMutability": "nonpayable",
      "type": "function"
    },
    {
      "inputs": [
        {
          "internalType": "address",
          "name": "to",
          "type": "address"
        },
        {
          "internalType": "uint256",
          "name": "tokenId",
          "type": "uint256"
        }
      ],
      "name": "approve",
      "outputs": [],
      "stateMutability": "nonpayable",
      "type": "function"
    },
    {
      "inputs": [
        {
          "internalType": "address",
          "name": "owner",
          "type": "address"
        }
      ],
      "name": "balanceOf",
      "outputs": [
        {
          "internalType": "uint256",
          "name": "",
          "type": "uint256"
        }
      ],
      "stateMutability": "view",
      "type": "function"
    },
    {
      "inputs": [
        {
          "internalType": "uint256",
          "name": "tokenId",
          "type": "uint256"
        }
      ],
      "name": "getApproved",
      "outputs": [
        {
          "internalType": "address",
          "name": "",
          "type": "address"
        }
      ],
      "stateMutability": "view",
      "type": "function"
    },
    {
      "inputs": [
        {
          "internalType": "address",
          "name": "owner",
          "type": "address"
        },
        {
          "internalType": "address",
          "name": "operator",
          "type": "address"
        }
      ],
      "name": "isApprovedForAll",
      "outputs": [
        {
          "internalType": "bool",
          "name": "",
          "type": "bool"
        }
      ],
      "stateMutability": "view",
      "type": "function"
    },
    {
      "inputs": [
        {
          "internalType": "address",
          "name": "account",
          "type": "address"
        }
      ],
      "name": "isOperator",
      "outputs": [
        {
          "internalType": "bool",
          "name": "",
          "type": "bool"
        }
      ],
      "stateMutability": "view",
      "type": "function"
    },
    {
      "inputs": [
        {
          "internalType": "address",
          "name": "caller",
          "type": "address"
        },
        {
          "internalType": "string",
          "name": "tokenURI",
          "type": "string"
        }
      ],
      "name": "mintToCaller",
      "outputs": [
        {
          "internalType": "uint256",
          "name": "",
          "type": "uint256"
        }
      ],
      "stateMutability": "nonpayable",
      "type": "function"
    },
    {
      "inputs": [],
      "name": "name",
      "outputs": [
        {
          "internalType": "string",
          "name": "",
          "type": "string"
        }
      ],
      "stateMutability": "view",
      "type": "function"
    },
    {
      "inputs": [],
      "name": "owner",
      "outputs": [
        {
          "internalType": "address",
          "name": "",
          "type": "address"
        }
      ],
      "stateMutability": "view",
      "type": "function"
    },
    {
      "inputs": [
        {
          "internalType": "uint256",
          "name": "tokenId",
          "type": "uint256"
        }
      ],
      "name": "ownerOf",
      "outputs": [
        {
          "internalType": "address",
          "name": "",
          "type": "address"
        }
      ],
      "stateMutability": "view",
      "type": "function"
    },
    {
      "inputs": [
        {
          "internalType": "address",
          "name": "account",
          "type": "address"
        }
      ],
      "name": "removeOperator",
      "outputs": [],
      "stateMutability": "nonpayable",
      "type": "function"
    },
    {
      "inputs": [],
      "name": "renounceOperator",
      "outputs": [],
      "stateMutability": "nonpayable",
      "type": "function"
    },
    {
      "inputs": [],
      "name": "renounceOwnership",
      "outputs": [],
      "stateMutability": "nonpayable",
      "type": "function"
    },
    {
      "inputs": [
        {
          "internalType": "address",
          "name": "from",
          "type": "address"
        },
        {
          "internalType": "address",
          "name": "to",
          "type": "address"
        },
        {
          "internalType": "uint256",
          "name": "tokenId",
          "type": "uint256"
        }
      ],
      "name": "safeTransferFrom",
      "outputs": [],
      "stateMutability": "nonpayable",
      "type": "function"
    },
    {
      "inputs": [
        {
          "internalType": "address",
          "name": "from",
          "type": "address"
        },
        {
          "internalType": "address",
          "name": "to",
          "type": "address"
        },
        {
          "internalType": "uint256",
          "name": "tokenId",
          "type": "uint256"
        },
        {
          "internalType": "bytes",
          "name": "_data",
          "type": "bytes"
        }
      ],
      "name": "safeTransferFrom",
      "outputs": [],
      "stateMutability": "nonpayable",
      "type": "function"
    },
    {
      "inputs": [
        {
          "internalType": "address",
          "name": "operator",
          "type": "address"
        },
        {
          "internalType": "bool",
          "name": "approved",
          "type": "bool"
        }
      ],
      "name": "setApprovalForAll",
      "outputs": [],
      "stateMutability": "nonpayable",
      "type": "function"
    },
    {
      "inputs": [
        {
          "internalType": "bytes4",
          "name": "interfaceId",
          "type": "bytes4"
        }
      ],
      "name": "supportsInterface",
      "outputs": [
        {
          "internalType": "bool",
          "name": "",
          "type": "bool"
        }
      ],
      "stateMutability": "view",
      "type": "function"
    },
    {
      "inputs": [],
      "name": "symbol",
      "outputs": [
        {
          "internalType": "string",
          "name": "",
          "type": "string"
        }
      ],
      "stateMutability": "view",
      "type": "function"
    },
    {
      "inputs": [
        {
          "internalType": "uint256",
          "name": "tokenId",
          "type": "uint256"
        }
      ],
      "name": "tokenURI",
      "outputs": [
        {
          "internalType": "string",
          "name": "",
          "type": "string"
        }
      ],
      "stateMutability": "view",
      "type": "function"
    },
    {
      "inputs": [
        {
          "internalType": "address",
          "name": "from",
          "type": "address"
        },
        {
          "internalType": "address",
          "name": "to",
          "type": "address"
        },
        {
          "internalType": "uint256",
          "name": "tokenId",
          "type": "uint256"
        }
      ],
      "name": "transferFrom",
      "outputs": [],
      "stateMutability": "nonpayable",
      "type": "function"
    },
    {
      "inputs": [
        {
          "internalType": "address",
          "name": "newOwner",
          "type": "address"
        }
      ],
      "name": "transferOwnership",
      "outputs": [],
      "stateMutability": "nonpayable",
      "type": "function"
    }
  ],
  "transactionHash": "0x419faa5b6030a822d3614f63b8f3d783eed8d91abc9f83d125dfb85a0cc0d7f1",
  "args": [
    "Bumper Sky Lounge Pass",
    "BuSLPNFT"
  ],
  "solcInputHash": "f5bf1d0ec604c189afb1119a07b27871",
  "bytecode": "0x60806040523480156200001157600080fd5b5060405162001df338038062001df38339810160408190526200003491620003cc565b81816200004133620000a5565b81516200005690600190602085019062000273565b5080516200006c90600290602084019062000273565b5050506200008962000083620000a160201b60201c565b620000f5565b6200009957620000993362000118565b505062000486565b3390565b600080546001600160a01b038381166001600160a01b0319831681178455604051919092169283917f8be0079c531659141344cd1fd0a4f28419497f9722a3daafe3b4186f6b6457e09190a35050565b6000620001128260076200016a60201b62000add1790919060201c565b92915050565b62000133816007620001f360201b62000b601790919060201c565b6040516001600160a01b038216907fac6fa858e9350a46cec16539926e0fde25b7629f84b5a72bffaae4df888ae86d90600090a250565b60006001600160a01b038216620001d35760405162461bcd60e51b815260206004820152602260248201527f526f6c65733a206163636f756e7420697320746865207a65726f206164647265604482015261737360f01b60648201526084015b60405180910390fd5b506001600160a01b03166000908152602091909152604090205460ff1690565b620001ff82826200016a565b156200024e5760405162461bcd60e51b815260206004820152601f60248201527f526f6c65733a206163636f756e7420616c72656164792068617320726f6c65006044820152606401620001ca565b6001600160a01b0316600090815260209190915260409020805460ff19166001179055565b828054620002819062000433565b90600052602060002090601f016020900481019282620002a55760008555620002f0565b82601f10620002c057805160ff1916838001178555620002f0565b82800160010185558215620002f0579182015b82811115620002f0578251825591602001919060010190620002d3565b50620002fe92915062000302565b5090565b5b80821115620002fe576000815560010162000303565b600082601f8301126200032a578081fd5b81516001600160401b038082111562000347576200034762000470565b604051601f8301601f19908116603f0116810190828211818310171562000372576200037262000470565b816040528381526020925086838588010111156200038e578485fd5b8491505b83821015620003b1578582018301518183018401529082019062000392565b83821115620003c257848385830101525b9695505050505050565b60008060408385031215620003df578182fd5b82516001600160401b0380821115620003f6578384fd5b620004048683870162000319565b935060208501519150808211156200041a578283fd5b50620004298582860162000319565b9150509250929050565b600181811c908216806200044857607f821691505b602082108114156200046a57634e487b7160e01b600052602260045260246000fd5b50919050565b634e487b7160e01b600052604160045260246000fd5b61195d80620004966000396000f3fe608060405234801561001057600080fd5b50600436106101375760003560e01c8063715018a6116100b8578063a8d552111161007c578063a8d5521114610275578063ac8a584a14610288578063b88d4fde1461029b578063c87b56dd146102ae578063e985e9c5146102c1578063f2fde38b146102fd57610137565b8063715018a61461022e5780638da5cb5b1461023657806395d89b41146102475780639870d7fe1461024f578063a22cb4651461026257610137565b80632ab6f8db116100ff5780632ab6f8db146101cc57806342842e0e146101d45780636352211e146101e75780636d70f7ae146101fa57806370a082311461020d57610137565b806301ffc9a71461013c57806306fdde0314610164578063081812fc14610179578063095ea7b3146101a457806323b872dd146101b9575b600080fd5b61014f61014a366004611623565b610310565b60405190151581526020015b60405180910390f35b61016c610364565b60405161015b919061170b565b61018c61018736600461165b565b6103f6565b6040516001600160a01b03909116815260200161015b565b6101b76101b23660046115fa565b610490565b005b6101b76101c73660046114ad565b6105a6565b6101b76105d7565b6101b76101e23660046114ad565b6105e2565b61018c6101f536600461165b565b6105fd565b61014f610208366004611461565b610674565b61022061021b366004611461565b610681565b60405190815260200161015b565b6101b7610708565b6000546001600160a01b031661018c565b61016c61073c565b6101b761025d366004611461565b61074b565b6101b7610270366004611561565b610781565b61022061028336600461159b565b610853565b6101b7610296366004611461565b6108f3565b6101b76102a93660046114e8565b610926565b61016c6102bc36600461165b565b61095e565b61014f6102cf36600461147b565b6001600160a01b03918216600090815260066020908152604080832093909416825291909152205460ff1690565b6101b761030b366004611461565b610a45565b60006001600160e01b031982166380ac58cd60e01b148061034157506001600160e01b03198216635b5e139f60e01b145b8061035c57506301ffc9a760e01b6001600160e01b03198316145b90505b919050565b60606001805461037390611865565b80601f016020809104026020016040519081016040528092919081815260200182805461039f90611865565b80156103ec5780601f106103c1576101008083540402835291602001916103ec565b820191906000526020600020905b8154815290600101906020018083116103cf57829003601f168201915b5050505050905090565b6000818152600360205260408120546001600160a01b03166104745760405162461bcd60e51b815260206004820152602c60248201527f4552433732313a20617070726f76656420717565727920666f72206e6f6e657860448201526b34b9ba32b73a103a37b5b2b760a11b60648201526084015b60405180910390fd5b506000908152600560205260409020546001600160a01b031690565b600061049b826105fd565b9050806001600160a01b0316836001600160a01b031614156105095760405162461bcd60e51b815260206004820152602160248201527f4552433732313a20617070726f76616c20746f2063757272656e74206f776e656044820152603960f91b606482015260840161046b565b336001600160a01b0382161480610525575061052581336102cf565b6105975760405162461bcd60e51b815260206004820152603860248201527f4552433732313a20617070726f76652063616c6c6572206973206e6f74206f7760448201527f6e6572206e6f7220617070726f76656420666f7220616c6c0000000000000000606482015260840161046b565b6105a18383610bdc565b505050565b6105b03382610c4a565b6105cc5760405162461bcd60e51b815260040161046b906117a5565b6105a1838383610d41565b6105e033610ee1565b565b6105a183838360405180602001604052806000815250610926565b6000818152600360205260408120546001600160a01b03168061035c5760405162461bcd60e51b815260206004820152602960248201527f4552433732313a206f776e657220717565727920666f72206e6f6e657869737460448201526832b73a103a37b5b2b760b91b606482015260840161046b565b600061035c600783610add565b60006001600160a01b0382166106ec5760405162461bcd60e51b815260206004820152602a60248201527f4552433732313a2062616c616e636520717565727920666f7220746865207a65604482015269726f206164647265737360b01b606482015260840161046b565b506001600160a01b031660009081526004602052604090205490565b6000546001600160a01b031633146107325760405162461bcd60e51b815260040161046b90611770565b6105e06000610f23565b60606002805461037390611865565b6000546001600160a01b031633146107755760405162461bcd60e51b815260040161046b90611770565b61077e81610f73565b50565b6001600160a01b0382163314156107da5760405162461bcd60e51b815260206004820152601960248201527f4552433732313a20617070726f766520746f2063616c6c657200000000000000604482015260640161046b565b3360008181526006602090815260408083206001600160a01b0387168085529252909120805460ff1916841515179055906001600160a01b03167f17307eab39ab6107e8899845ad3d59bd9653f200f220920489ca2b5937696c3183604051610847911515815260200190565b60405180910390a35050565b600061085e33610208565b6108c75760405162461bcd60e51b815260206004820152603460248201527f4f70657261746f72526f6c653a2063616c6c657220646f6573206e6f74206861604482015273766520746865204f70657261746f7220726f6c6560601b606482015260840161046b565b6108d5600880546001019055565b60006108e060085490565b90506108ec8482610fb5565b9392505050565b6000546001600160a01b0316331461091d5760405162461bcd60e51b815260040161046b90611770565b61077e81610ee1565b6109303383610c4a565b61094c5760405162461bcd60e51b815260040161046b906117a5565b610958848484846110f7565b50505050565b6000818152600360205260409020546060906001600160a01b03166109dd5760405162461bcd60e51b815260206004820152602f60248201527f4552433732314d657461646174613a2055524920717565727920666f72206e6f60448201526e3732bc34b9ba32b73a103a37b5b2b760891b606482015260840161046b565b60006109f460408051602081019091526000815290565b90506000815111610a1457604051806020016040528060008152506108ec565b80610a1e8461112a565b604051602001610a2f92919061169f565b6040516020818303038152906040529392505050565b6000546001600160a01b03163314610a6f5760405162461bcd60e51b815260040161046b90611770565b6001600160a01b038116610ad45760405162461bcd60e51b815260206004820152602660248201527f4f776e61626c653a206e6577206f776e657220697320746865207a65726f206160448201526564647265737360d01b606482015260840161046b565b61077e81610f23565b60006001600160a01b038216610b405760405162461bcd60e51b815260206004820152602260248201527f526f6c65733a206163636f756e7420697320746865207a65726f206164647265604482015261737360f01b606482015260840161046b565b506001600160a01b03166000908152602091909152604090205460ff1690565b610b6a8282610add565b15610bb75760405162461bcd60e51b815260206004820152601f60248201527f526f6c65733a206163636f756e7420616c72656164792068617320726f6c6500604482015260640161046b565b6001600160a01b0316600090815260209190915260409020805460ff19166001179055565b600081815260056020526040902080546001600160a01b0319166001600160a01b0384169081179091558190610c11826105fd565b6001600160a01b03167f8c5be1e5ebec7d5bd14f71427d1e84f3dd0314c0f7b2291e5b200ac8c7c3b92560405160405180910390a45050565b6000818152600360205260408120546001600160a01b0316610cc35760405162461bcd60e51b815260206004820152602c60248201527f4552433732313a206f70657261746f7220717565727920666f72206e6f6e657860448201526b34b9ba32b73a103a37b5b2b760a11b606482015260840161046b565b6000610cce836105fd565b9050806001600160a01b0316846001600160a01b03161480610d095750836001600160a01b0316610cfe846103f6565b6001600160a01b0316145b80610d3957506001600160a01b0380821660009081526006602090815260408083209388168352929052205460ff165b949350505050565b826001600160a01b0316610d54826105fd565b6001600160a01b031614610dbc5760405162461bcd60e51b815260206004820152602960248201527f4552433732313a207472616e73666572206f6620746f6b656e2074686174206960448201526839903737ba1037bbb760b91b606482015260840161046b565b6001600160a01b038216610e1e5760405162461bcd60e51b8152602060048201526024808201527f4552433732313a207472616e7366657220746f20746865207a65726f206164646044820152637265737360e01b606482015260840161046b565b610e29600082610bdc565b6001600160a01b0383166000908152600460205260408120805460019290610e52908490611822565b90915550506001600160a01b0382166000908152600460205260408120805460019290610e809084906117f6565b909155505060008181526003602052604080822080546001600160a01b0319166001600160a01b0386811691821790925591518493918716917fddf252ad1be2c89b69c2b068fc378daa952ba7f163c4a11628f55a4df523b3ef91a4505050565b610eec600782611245565b6040516001600160a01b038216907f80c0b871b97b595b16a7741c1b06fed0c6f6f558639f18ccbce50724325dc40d90600090a250565b600080546001600160a01b038381166001600160a01b0319831681178455604051919092169283917f8be0079c531659141344cd1fd0a4f28419497f9722a3daafe3b4186f6b6457e09190a35050565b610f7e600782610b60565b6040516001600160a01b038216907fac6fa858e9350a46cec16539926e0fde25b7629f84b5a72bffaae4df888ae86d90600090a250565b6001600160a01b03821661100b5760405162461bcd60e51b815260206004820181905260248201527f4552433732313a206d696e7420746f20746865207a65726f2061646472657373604482015260640161046b565b6000818152600360205260409020546001600160a01b0316156110705760405162461bcd60e51b815260206004820152601c60248201527f4552433732313a20746f6b656e20616c7265616479206d696e74656400000000604482015260640161046b565b6001600160a01b03821660009081526004602052604081208054600192906110999084906117f6565b909155505060008181526003602052604080822080546001600160a01b0319166001600160a01b03861690811790915590518392907fddf252ad1be2c89b69c2b068fc378daa952ba7f163c4a11628f55a4df523b3ef908290a45050565b611102848484610d41565b61110e848484846112c7565b6109585760405162461bcd60e51b815260040161046b9061171e565b60608161114f57506040805180820190915260018152600360fc1b602082015261035f565b8160005b81156111795780611163816118a0565b91506111729050600a8361180e565b9150611153565b60008167ffffffffffffffff8111156111a257634e487b7160e01b600052604160045260246000fd5b6040519080825280601f01601f1916602001820160405280156111cc576020820181803683370190505b5090505b8415610d39576111e1600183611822565b91506111ee600a866118bb565b6111f99060306117f6565b60f81b81838151811061121c57634e487b7160e01b600052603260045260246000fd5b60200101906001600160f81b031916908160001a90535061123e600a8661180e565b94506111d0565b61124f8282610add565b6112a55760405162461bcd60e51b815260206004820152602160248201527f526f6c65733a206163636f756e7420646f6573206e6f74206861766520726f6c6044820152606560f81b606482015260840161046b565b6001600160a01b0316600090815260209190915260409020805460ff19169055565b60006001600160a01b0384163b156113c957604051630a85bd0160e11b81526001600160a01b0385169063150b7a029061130b9033908990889088906004016116ce565b602060405180830381600087803b15801561132557600080fd5b505af1925050508015611355575060408051601f3d908101601f191682019092526113529181019061163f565b60015b6113af573d808015611383576040519150601f19603f3d011682016040523d82523d6000602084013e611388565b606091505b5080516113a75760405162461bcd60e51b815260040161046b9061171e565b805181602001fd5b6001600160e01b031916630a85bd0160e11b149050610d39565b506001949350505050565b600067ffffffffffffffff808411156113ef576113ef6118fb565b604051601f8501601f19908116603f01168101908282118183101715611417576114176118fb565b8160405280935085815286868601111561143057600080fd5b858560208301376000602087830101525050509392505050565b80356001600160a01b038116811461035f57600080fd5b600060208284031215611472578081fd5b6108ec8261144a565b6000806040838503121561148d578081fd5b6114968361144a565b91506114a46020840161144a565b90509250929050565b6000806000606084860312156114c1578081fd5b6114ca8461144a565b92506114d86020850161144a565b9150604084013590509250925092565b600080600080608085870312156114fd578081fd5b6115068561144a565b93506115146020860161144a565b925060408501359150606085013567ffffffffffffffff811115611536578182fd5b8501601f81018713611546578182fd5b611555878235602084016113d4565b91505092959194509250565b60008060408385031215611573578182fd5b61157c8361144a565b915060208301358015158114611590578182fd5b809150509250929050565b600080604083850312156115ad578182fd5b6115b68361144a565b9150602083013567ffffffffffffffff8111156115d1578182fd5b8301601f810185136115e1578182fd5b6115f0858235602084016113d4565b9150509250929050565b6000806040838503121561160c578182fd5b6116158361144a565b946020939093013593505050565b600060208284031215611634578081fd5b81356108ec81611911565b600060208284031215611650578081fd5b81516108ec81611911565b60006020828403121561166c578081fd5b5035919050565b6000815180845261168b816020860160208601611839565b601f01601f19169290920160200192915050565b600083516116b1818460208801611839565b8351908301906116c5818360208801611839565b01949350505050565b6001600160a01b038581168252841660208201526040810183905260806060820181905260009061170190830184611673565b9695505050505050565b6000602082526108ec6020830184611673565b60208082526032908201527f4552433732313a207472616e7366657220746f206e6f6e20455243373231526560408201527131b2b4bb32b91034b6b83632b6b2b73a32b960711b606082015260800190565b6020808252818101527f4f776e61626c653a2063616c6c6572206973206e6f7420746865206f776e6572604082015260600190565b60208082526031908201527f4552433732313a207472616e736665722063616c6c6572206973206e6f74206f6040820152701ddb995c881b9bdc88185c1c1c9bdd9959607a1b606082015260800190565b60008219821115611809576118096118cf565b500190565b60008261181d5761181d6118e5565b500490565b600082821015611834576118346118cf565b500390565b60005b8381101561185457818101518382015260200161183c565b838111156109585750506000910152565b600181811c9082168061187957607f821691505b6020821081141561189a57634e487b7160e01b600052602260045260246000fd5b50919050565b60006000198214156118b4576118b46118cf565b5060010190565b6000826118ca576118ca6118e5565b500690565b634e487b7160e01b600052601160045260246000fd5b634e487b7160e01b600052601260045260246000fd5b634e487b7160e01b600052604160045260246000fd5b6001600160e01b03198116811461077e57600080fdfea2646970667358221220b85eb024842499c4850338eaa008d0afd85f48900500062ce6c6791c1a9b9b1064736f6c63430008030033",
  "devdoc": {
    "kind": "dev",
    "methods": {
      "approve(address,uint256)": {
        "details": "See {IERC721-approve}."
      },
      "balanceOf(address)": {
        "details": "See {IERC721-balanceOf}."
      },
      "getApproved(uint256)": {
        "details": "See {IERC721-getApproved}."
      },
      "isApprovedForAll(address,address)": {
        "details": "See {IERC721-isApprovedForAll}."
      },
      "name()": {
        "details": "See {IERC721Metadata-name}."
      },
      "owner()": {
        "details": "Returns the address of the current owner."
      },
      "ownerOf(uint256)": {
        "details": "See {IERC721-ownerOf}."
      },
      "renounceOwnership()": {
        "details": "Leaves the contract without owner. It will not be possible to call `onlyOwner` functions anymore. Can only be called by the current owner. NOTE: Renouncing ownership will leave the contract without an owner, thereby removing any functionality that is only available to the owner."
      },
      "safeTransferFrom(address,address,uint256)": {
        "details": "See {IERC721-safeTransferFrom}."
      },
      "safeTransferFrom(address,address,uint256,bytes)": {
        "details": "See {IERC721-safeTransferFrom}."
      },
      "setApprovalForAll(address,bool)": {
        "details": "See {IERC721-setApprovalForAll}."
      },
      "supportsInterface(bytes4)": {
        "details": "See {IERC165-supportsInterface}."
      },
      "symbol()": {
        "details": "See {IERC721Metadata-symbol}."
      },
      "tokenURI(uint256)": {
        "details": "See {IERC721Metadata-tokenURI}."
      },
      "transferFrom(address,address,uint256)": {
        "details": "See {IERC721-transferFrom}."
      },
      "transferOwnership(address)": {
        "details": "Transfers ownership of the contract to a new account (`newOwner`). Can only be called by the current owner."
      }
    },
    "version": 1
  },
  "userdoc": {
    "kind": "user",
    "methods": {},
    "version": 1
  },
  "storageLayout": {
    "storage": [
      {
        "astId": 7,
        "contract": "contracts/BumperSkyLoungePassNFT.sol:BumperSkyLoungePassNFT",
        "label": "_owner",
        "offset": 0,
        "slot": "0",
        "type": "t_address"
      },
      {
        "astId": 778,
        "contract": "contracts/BumperSkyLoungePassNFT.sol:BumperSkyLoungePassNFT",
        "label": "_name",
        "offset": 0,
        "slot": "1",
        "type": "t_string_storage"
      },
      {
        "astId": 780,
        "contract": "contracts/BumperSkyLoungePassNFT.sol:BumperSkyLoungePassNFT",
        "label": "_symbol",
        "offset": 0,
        "slot": "2",
        "type": "t_string_storage"
      },
      {
        "astId": 784,
        "contract": "contracts/BumperSkyLoungePassNFT.sol:BumperSkyLoungePassNFT",
        "label": "_owners",
        "offset": 0,
        "slot": "3",
        "type": "t_mapping(t_uint256,t_address)"
      },
      {
        "astId": 788,
        "contract": "contracts/BumperSkyLoungePassNFT.sol:BumperSkyLoungePassNFT",
        "label": "_balances",
        "offset": 0,
        "slot": "4",
        "type": "t_mapping(t_address,t_uint256)"
      },
      {
        "astId": 792,
        "contract": "contracts/BumperSkyLoungePassNFT.sol:BumperSkyLoungePassNFT",
        "label": "_tokenApprovals",
        "offset": 0,
        "slot": "5",
        "type": "t_mapping(t_uint256,t_address)"
      },
      {
        "astId": 798,
        "contract": "contracts/BumperSkyLoungePassNFT.sol:BumperSkyLoungePassNFT",
        "label": "_operatorApprovals",
        "offset": 0,
        "slot": "6",
        "type": "t_mapping(t_address,t_mapping(t_address,t_bool))"
      },
      {
        "astId": 3261,
        "contract": "contracts/BumperSkyLoungePassNFT.sol:BumperSkyLoungePassNFT",
        "label": "_operators",
        "offset": 0,
        "slot": "7",
        "type": "t_struct(Role)3352_storage"
      },
      {
        "astId": 2853,
        "contract": "contracts/BumperSkyLoungePassNFT.sol:BumperSkyLoungePassNFT",
        "label": "_tokenIds",
        "offset": 0,
        "slot": "8",
        "type": "t_struct(Counter)2054_storage"
      }
    ],
    "types": {
      "t_address": {
        "encoding": "inplace",
        "label": "address",
        "numberOfBytes": "20"
      },
      "t_bool": {
        "encoding": "inplace",
        "label": "bool",
        "numberOfBytes": "1"
      },
      "t_mapping(t_address,t_bool)": {
        "encoding": "mapping",
        "key": "t_address",
        "label": "mapping(address => bool)",
        "numberOfBytes": "32",
        "value": "t_bool"
      },
      "t_mapping(t_address,t_mapping(t_address,t_bool))": {
        "encoding": "mapping",
        "key": "t_address",
        "label": "mapping(address => mapping(address => bool))",
        "numberOfBytes": "32",
        "value": "t_mapping(t_address,t_bool)"
      },
      "t_mapping(t_address,t_uint256)": {
        "encoding": "mapping",
        "key": "t_address",
        "label": "mapping(address => uint256)",
        "numberOfBytes": "32",
        "value": "t_uint256"
      },
      "t_mapping(t_uint256,t_address)": {
        "encoding": "mapping",
        "key": "t_uint256",
        "label": "mapping(uint256 => address)",
        "numberOfBytes": "32",
        "value": "t_address"
      },
      "t_string_storage": {
        "encoding": "bytes",
        "label": "string",
        "numberOfBytes": "32"
      },
      "t_struct(Counter)2054_storage": {
        "encoding": "inplace",
        "label": "struct Counters.Counter",
        "members": [
          {
            "astId": 2053,
            "contract": "contracts/BumperSkyLoungePassNFT.sol:BumperSkyLoungePassNFT",
            "label": "_value",
            "offset": 0,
            "slot": "0",
            "type": "t_uint256"
          }
        ],
        "numberOfBytes": "32"
      },
      "t_struct(Role)3352_storage": {
        "encoding": "inplace",
        "label": "struct Roles.Role",
        "members": [
          {
            "astId": 3351,
            "contract": "contracts/BumperSkyLoungePassNFT.sol:BumperSkyLoungePassNFT",
            "label": "bearer",
            "offset": 0,
            "slot": "0",
            "type": "t_mapping(t_address,t_bool)"
          }
        ],
        "numberOfBytes": "32"
      },
      "t_uint256": {
        "encoding": "inplace",
        "label": "uint256",
        "numberOfBytes": "32"
      }
    }
  }
}