{
  "_format": "hh-sol-artifact-1",
  "contractName": "NFTCollectionURIStorage",
  "sourceName": "contracts/NFT/NFTCollectionURIStoragePublic.sol",
  "abi": [
    {
      "inputs": [
        {
          "internalType": "string",
          "name": "_name_",
          "type": "string"
        },
        {
          "internalType": "string",
          "name": "_symbol_",
          "type": "string"
        }
      ],
      "stateMutability": "nonpayable",
      "type": "constructor"
    },
    {
      "anonymous": false,
      "inputs": [
        {
          "indexed": true,
          "internalType": "address",
          "name": "owner",
          "type": "address"
        },
        {
          "indexed": true,
          "internalType": "address",
          "name": "approved",
          "type": "address"
        },
        {
          "indexed": true,
          "internalType": "uint256",
          "name": "tokenId",
          "type": "uint256"
        }
      ],
      "name": "Approval",
      "type": "event"
    },
    {
      "anonymous": false,
      "inputs": [
        {
          "indexed": true,
          "internalType": "address",
          "name": "owner",
          "type": "address"
        },
        {
          "indexed": true,
          "internalType": "address",
          "name": "operator",
          "type": "address"
        },
        {
          "indexed": false,
          "internalType": "bool",
          "name": "approved",
          "type": "bool"
        }
      ],
      "name": "ApprovalForAll",
      "type": "event"
    },
    {
      "anonymous": false,
      "inputs": [
        {
          "indexed": true,
          "internalType": "address",
          "name": "from",
          "type": "address"
        },
        {
          "indexed": true,
          "internalType": "address",
          "name": "to",
          "type": "address"
        },
        {
          "indexed": true,
          "internalType": "uint256",
          "name": "tokenId",
          "type": "uint256"
        }
      ],
      "name": "Transfer",
      "type": "event"
    },
    {
      "inputs": [
        {
          "internalType": "address",
          "name": "to",
          "type": "address"
        },
        {
          "internalType": "uint256",
          "name": "tokenId",
          "type": "uint256"
        }
      ],
      "name": "approve",
      "outputs": [],
      "stateMutability": "nonpayable",
      "type": "function"
    },
    {
      "inputs": [
        {
          "internalType": "address",
          "name": "owner",
          "type": "address"
        }
      ],
      "name": "balanceOf",
      "outputs": [
        {
          "internalType": "uint256",
          "name": "",
          "type": "uint256"
        }
      ],
      "stateMutability": "view",
      "type": "function"
    },
    {
      "inputs": [
        {
          "internalType": "uint256",
          "name": "tokenId",
          "type": "uint256"
        }
      ],
      "name": "burn",
      "outputs": [],
      "stateMutability": "nonpayable",
      "type": "function"
    },
    {
      "inputs": [
        {
          "internalType": "uint256",
          "name": "tokenId",
          "type": "uint256"
        }
      ],
      "name": "getApproved",
      "outputs": [
        {
          "internalType": "address",
          "name": "",
          "type": "address"
        }
      ],
      "stateMutability": "view",
      "type": "function"
    },
    {
      "inputs": [
        {
          "internalType": "address",
          "name": "owner",
          "type": "address"
        },
        {
          "internalType": "address",
          "name": "operator",
          "type": "address"
        }
      ],
      "name": "isApprovedForAll",
      "outputs": [
        {
          "internalType": "bool",
          "name": "",
          "type": "bool"
        }
      ],
      "stateMutability": "view",
      "type": "function"
    },
    {
      "inputs": [
        {
          "internalType": "address",
          "name": "account",
          "type": "address"
        },
        {
          "internalType": "uint256",
          "name": "id",
          "type": "uint256"
        },
        {
          "internalType": "string",
          "name": "_tokenURI",
          "type": "string"
        }
      ],
      "name": "mint",
      "outputs": [],
      "stateMutability": "nonpayable",
      "type": "function"
    },
    {
      "inputs": [],
      "name": "name",
      "outputs": [
        {
          "internalType": "string",
          "name": "",
          "type": "string"
        }
      ],
      "stateMutability": "view",
      "type": "function"
    },
    {
      "inputs": [
        {
          "internalType": "uint256",
          "name": "tokenId",
          "type": "uint256"
        }
      ],
      "name": "ownerOf",
      "outputs": [
        {
          "internalType": "address",
          "name": "",
          "type": "address"
        }
      ],
      "stateMutability": "view",
      "type": "function"
    },
    {
      "inputs": [
        {
          "internalType": "address",
          "name": "from",
          "type": "address"
        },
        {
          "internalType": "address",
          "name": "to",
          "type": "address"
        },
        {
          "internalType": "uint256",
          "name": "tokenId",
          "type": "uint256"
        }
      ],
      "name": "safeTransferFrom",
      "outputs": [],
      "stateMutability": "nonpayable",
      "type": "function"
    },
    {
      "inputs": [
        {
          "internalType": "address",
          "name": "from",
          "type": "address"
        },
        {
          "internalType": "address",
          "name": "to",
          "type": "address"
        },
        {
          "internalType": "uint256",
          "name": "tokenId",
          "type": "uint256"
        },
        {
          "internalType": "bytes",
          "name": "_data",
          "type": "bytes"
        }
      ],
      "name": "safeTransferFrom",
      "outputs": [],
      "stateMutability": "nonpayable",
      "type": "function"
    },
    {
      "inputs": [
        {
          "internalType": "address",
          "name": "operator",
          "type": "address"
        },
        {
          "internalType": "bool",
          "name": "approved",
          "type": "bool"
        }
      ],
      "name": "setApprovalForAll",
      "outputs": [],
      "stateMutability": "nonpayable",
      "type": "function"
    },
    {
      "inputs": [
        {
          "internalType": "bytes4",
          "name": "interfaceId",
          "type": "bytes4"
        }
      ],
      "name": "supportsInterface",
      "outputs": [
        {
          "internalType": "bool",
          "name": "",
          "type": "bool"
        }
      ],
      "stateMutability": "view",
      "type": "function"
    },
    {
      "inputs": [],
      "name": "symbol",
      "outputs": [
        {
          "internalType": "string",
          "name": "",
          "type": "string"
        }
      ],
      "stateMutability": "view",
      "type": "function"
    },
    {
      "inputs": [
        {
          "internalType": "uint256",
          "name": "tokenId",
          "type": "uint256"
        }
      ],
      "name": "tokenURI",
      "outputs": [
        {
          "internalType": "string",
          "name": "",
          "type": "string"
        }
      ],
      "stateMutability": "view",
      "type": "function"
    },
    {
      "inputs": [
        {
          "internalType": "address",
          "name": "from",
          "type": "address"
        },
        {
          "internalType": "address",
          "name": "to",
          "type": "address"
        },
        {
          "internalType": "uint256",
          "name": "tokenId",
          "type": "uint256"
        }
      ],
      "name": "transferFrom",
      "outputs": [],
      "stateMutability": "nonpayable",
      "type": "function"
    }
  ],
  "bytecode": "0x60806040523480156200001157600080fd5b5060405162001abe38038062001abe8339810160408190526200003491620001c7565b8151829082906200004d9060009060208501906200006e565b508051620000639060019060208401906200006e565b505050505062000281565b8280546200007c906200022e565b90600052602060002090601f016020900481019282620000a05760008555620000eb565b82601f10620000bb57805160ff1916838001178555620000eb565b82800160010185558215620000eb579182015b82811115620000eb578251825591602001919060010190620000ce565b50620000f9929150620000fd565b5090565b5b80821115620000f95760008155600101620000fe565b600082601f83011262000125578081fd5b81516001600160401b03808211156200014257620001426200026b565b604051601f8301601f19908116603f011681019082821181831017156200016d576200016d6200026b565b8160405283815260209250868385880101111562000189578485fd5b8491505b83821015620001ac57858201830151818301840152908201906200018d565b83821115620001bd57848385830101525b9695505050505050565b60008060408385031215620001da578182fd5b82516001600160401b0380821115620001f1578384fd5b620001ff8683870162000114565b9350602085015191508082111562000215578283fd5b50620002248582860162000114565b9150509250929050565b600181811c908216806200024357607f821691505b602082108114156200026557634e487b7160e01b600052602260045260246000fd5b50919050565b634e487b7160e01b600052604160045260246000fd5b61182d80620002916000396000f3fe608060405234801561001057600080fd5b50600436106100f55760003560e01c80636352211e11610097578063b88d4fde11610066578063b88d4fde146101ff578063c87b56dd14610212578063d3fc986414610225578063e985e9c514610238576100f5565b80636352211e146101b057806370a08231146101c357806395d89b41146101e4578063a22cb465146101ec576100f5565b8063095ea7b3116100d3578063095ea7b31461016257806323b872dd1461017757806342842e0e1461018a57806342966c681461019d576100f5565b806301ffc9a7146100fa57806306fdde0314610122578063081812fc14610137575b600080fd5b61010d610108366004611528565b610274565b60405190151581526020015b60405180910390f35b61012a6102c8565b6040516101199190611610565b61014a610145366004611560565b61035a565b6040516001600160a01b039091168152602001610119565b610175610170366004611497565b6103e7565b005b6101756101853660046113a9565b6104fd565b6101756101983660046113a9565b61052f565b6101756101ab366004611560565b61054a565b61014a6101be366004611560565b61057b565b6101d66101d136600461135d565b6105f2565b604051908152602001610119565b61012a610679565b6101756101fa36600461145d565b610688565b61017561020d3660046113e4565b61075a565b61012a610220366004611560565b610792565b6101756102333660046114c0565b61090a565b61010d610246366004611377565b6001600160a01b03918216600090815260056020908152604080832093909416825291909152205460ff1690565b60006001600160e01b031982166380ac58cd60e01b14806102a557506001600160e01b03198216635b5e139f60e01b145b806102c057506301ffc9a760e01b6001600160e01b03198316145b90505b919050565b6060600080546102d790611735565b80601f016020809104026020016040519081016040528092919081815260200182805461030390611735565b80156103505780601f1061032557610100808354040283529160200191610350565b820191906000526020600020905b81548152906001019060200180831161033357829003601f168201915b5050505050905090565b60006103658261091e565b6103cb5760405162461bcd60e51b815260206004820152602c60248201527f4552433732313a20617070726f76656420717565727920666f72206e6f6e657860448201526b34b9ba32b73a103a37b5b2b760a11b60648201526084015b60405180910390fd5b506000908152600460205260409020546001600160a01b031690565b60006103f28261057b565b9050806001600160a01b0316836001600160a01b031614156104605760405162461bcd60e51b815260206004820152602160248201527f4552433732313a20617070726f76616c20746f2063757272656e74206f776e656044820152603960f91b60648201526084016103c2565b336001600160a01b038216148061047c575061047c8133610246565b6104ee5760405162461bcd60e51b815260206004820152603860248201527f4552433732313a20617070726f76652063616c6c6572206973206e6f74206f7760448201527f6e6572206e6f7220617070726f76656420666f7220616c6c000000000000000060648201526084016103c2565b6104f8838361093b565b505050565b610508335b826109a9565b6105245760405162461bcd60e51b81526004016103c290611675565b6104f8838383610a8f565b6104f88383836040518060200160405280600081525061075a565b61055333610502565b61056f5760405162461bcd60e51b81526004016103c290611675565b61057881610c2f565b50565b6000818152600260205260408120546001600160a01b0316806102c05760405162461bcd60e51b815260206004820152602960248201527f4552433732313a206f776e657220717565727920666f72206e6f6e657869737460448201526832b73a103a37b5b2b760b91b60648201526084016103c2565b60006001600160a01b03821661065d5760405162461bcd60e51b815260206004820152602a60248201527f4552433732313a2062616c616e636520717565727920666f7220746865207a65604482015269726f206164647265737360b01b60648201526084016103c2565b506001600160a01b031660009081526003602052604090205490565b6060600180546102d790611735565b6001600160a01b0382163314156106e15760405162461bcd60e51b815260206004820152601960248201527f4552433732313a20617070726f766520746f2063616c6c65720000000000000060448201526064016103c2565b3360008181526005602090815260408083206001600160a01b0387168085529252909120805460ff1916841515179055906001600160a01b03167f17307eab39ab6107e8899845ad3d59bd9653f200f220920489ca2b5937696c318360405161074e911515815260200190565b60405180910390a35050565b61076433836109a9565b6107805760405162461bcd60e51b81526004016103c290611675565b61078c84848484610c6f565b50505050565b606061079d8261091e565b6108035760405162461bcd60e51b815260206004820152603160248201527f45524337323155524953746f726167653a2055524920717565727920666f72206044820152703737b732bc34b9ba32b73a103a37b5b2b760791b60648201526084016103c2565b6000828152600660205260408120805461081c90611735565b80601f016020809104026020016040519081016040528092919081815260200182805461084890611735565b80156108955780601f1061086a57610100808354040283529160200191610895565b820191906000526020600020905b81548152906001019060200180831161087857829003601f168201915b5050505050905060006108b360408051602081019091526000815290565b90508051600014156108c7575090506102c3565b8151156108f95780826040516020016108e19291906115a4565b604051602081830303815290604052925050506102c3565b61090284610ca2565b949350505050565b6109148383610d7a565b6104f88282610ead565b6000908152600260205260409020546001600160a01b0316151590565b600081815260046020526040902080546001600160a01b0319166001600160a01b03841690811790915581906109708261057b565b6001600160a01b03167f8c5be1e5ebec7d5bd14f71427d1e84f3dd0314c0f7b2291e5b200ac8c7c3b92560405160405180910390a45050565b60006109b48261091e565b610a155760405162461bcd60e51b815260206004820152602c60248201527f4552433732313a206f70657261746f7220717565727920666f72206e6f6e657860448201526b34b9ba32b73a103a37b5b2b760a11b60648201526084016103c2565b6000610a208361057b565b9050806001600160a01b0316846001600160a01b03161480610a5b5750836001600160a01b0316610a508461035a565b6001600160a01b0316145b8061090257506001600160a01b0380821660009081526005602090815260408083209388168352929052205460ff16610902565b826001600160a01b0316610aa28261057b565b6001600160a01b031614610b0a5760405162461bcd60e51b815260206004820152602960248201527f4552433732313a207472616e73666572206f6620746f6b656e2074686174206960448201526839903737ba1037bbb760b91b60648201526084016103c2565b6001600160a01b038216610b6c5760405162461bcd60e51b8152602060048201526024808201527f4552433732313a207472616e7366657220746f20746865207a65726f206164646044820152637265737360e01b60648201526084016103c2565b610b7760008261093b565b6001600160a01b0383166000908152600360205260408120805460019290610ba09084906116f2565b90915550506001600160a01b0382166000908152600360205260408120805460019290610bce9084906116c6565b909155505060008181526002602052604080822080546001600160a01b0319166001600160a01b0386811691821790925591518493918716917fddf252ad1be2c89b69c2b068fc378daa952ba7f163c4a11628f55a4df523b3ef91a4505050565b610c3881610f38565b60008181526006602052604090208054610c5190611735565b159050610578576000818152600660205260408120610578916111fb565b610c7a848484610a8f565b610c8684848484610fd3565b61078c5760405162461bcd60e51b81526004016103c290611623565b6060610cad8261091e565b610d115760405162461bcd60e51b815260206004820152602f60248201527f4552433732314d657461646174613a2055524920717565727920666f72206e6f60448201526e3732bc34b9ba32b73a103a37b5b2b760891b60648201526084016103c2565b6000610d2860408051602081019091526000815290565b90506000815111610d485760405180602001604052806000815250610d73565b80610d52846110e0565b604051602001610d639291906115a4565b6040516020818303038152906040525b9392505050565b6001600160a01b038216610dd05760405162461bcd60e51b815260206004820181905260248201527f4552433732313a206d696e7420746f20746865207a65726f206164647265737360448201526064016103c2565b610dd98161091e565b15610e265760405162461bcd60e51b815260206004820152601c60248201527f4552433732313a20746f6b656e20616c7265616479206d696e7465640000000060448201526064016103c2565b6001600160a01b0382166000908152600360205260408120805460019290610e4f9084906116c6565b909155505060008181526002602052604080822080546001600160a01b0319166001600160a01b03861690811790915590518392907fddf252ad1be2c89b69c2b068fc378daa952ba7f163c4a11628f55a4df523b3ef908290a45050565b610eb68261091e565b610f195760405162461bcd60e51b815260206004820152602e60248201527f45524337323155524953746f726167653a2055524920736574206f66206e6f6e60448201526d32bc34b9ba32b73a103a37b5b2b760911b60648201526084016103c2565b600082815260066020908152604090912082516104f892840190611237565b6000610f438261057b565b9050610f5060008361093b565b6001600160a01b0381166000908152600360205260408120805460019290610f799084906116f2565b909155505060008281526002602052604080822080546001600160a01b0319169055518391906001600160a01b038416907fddf252ad1be2c89b69c2b068fc378daa952ba7f163c4a11628f55a4df523b3ef908390a45050565b60006001600160a01b0384163b156110d557604051630a85bd0160e11b81526001600160a01b0385169063150b7a02906110179033908990889088906004016115d3565b602060405180830381600087803b15801561103157600080fd5b505af1925050508015611061575060408051601f3d908101601f1916820190925261105e91810190611544565b60015b6110bb573d80801561108f576040519150601f19603f3d011682016040523d82523d6000602084013e611094565b606091505b5080516110b35760405162461bcd60e51b81526004016103c290611623565b805181602001fd5b6001600160e01b031916630a85bd0160e11b149050610902565b506001949350505050565b60608161110557506040805180820190915260018152600360fc1b60208201526102c3565b8160005b811561112f578061111981611770565b91506111289050600a836116de565b9150611109565b60008167ffffffffffffffff81111561115857634e487b7160e01b600052604160045260246000fd5b6040519080825280601f01601f191660200182016040528015611182576020820181803683370190505b5090505b8415610902576111976001836116f2565b91506111a4600a8661178b565b6111af9060306116c6565b60f81b8183815181106111d257634e487b7160e01b600052603260045260246000fd5b60200101906001600160f81b031916908160001a9053506111f4600a866116de565b9450611186565b50805461120790611735565b6000825580601f106112195750610578565b601f01602090049060005260206000209081019061057891906112bb565b82805461124390611735565b90600052602060002090601f01602090048101928261126557600085556112ab565b82601f1061127e57805160ff19168380011785556112ab565b828001600101855582156112ab579182015b828111156112ab578251825591602001919060010190611290565b506112b79291506112bb565b5090565b5b808211156112b757600081556001016112bc565b600067ffffffffffffffff808411156112eb576112eb6117cb565b604051601f8501601f19908116603f01168101908282118183101715611313576113136117cb565b8160405280935085815286868601111561132c57600080fd5b858560208301376000602087830101525050509392505050565b80356001600160a01b03811681146102c357600080fd5b60006020828403121561136e578081fd5b610d7382611346565b60008060408385031215611389578081fd5b61139283611346565b91506113a060208401611346565b90509250929050565b6000806000606084860312156113bd578081fd5b6113c684611346565b92506113d460208501611346565b9150604084013590509250925092565b600080600080608085870312156113f9578081fd5b61140285611346565b935061141060208601611346565b925060408501359150606085013567ffffffffffffffff811115611432578182fd5b8501601f81018713611442578182fd5b611451878235602084016112d0565b91505092959194509250565b6000806040838503121561146f578182fd5b61147883611346565b91506020830135801515811461148c578182fd5b809150509250929050565b600080604083850312156114a9578182fd5b6114b283611346565b946020939093013593505050565b6000806000606084860312156114d4578283fd5b6114dd84611346565b925060208401359150604084013567ffffffffffffffff8111156114ff578182fd5b8401601f8101861361150f578182fd5b61151e868235602084016112d0565b9150509250925092565b600060208284031215611539578081fd5b8135610d73816117e1565b600060208284031215611555578081fd5b8151610d73816117e1565b600060208284031215611571578081fd5b5035919050565b60008151808452611590816020860160208601611709565b601f01601f19169290920160200192915050565b600083516115b6818460208801611709565b8351908301906115ca818360208801611709565b01949350505050565b6001600160a01b038581168252841660208201526040810183905260806060820181905260009061160690830184611578565b9695505050505050565b600060208252610d736020830184611578565b60208082526032908201527f4552433732313a207472616e7366657220746f206e6f6e20455243373231526560408201527131b2b4bb32b91034b6b83632b6b2b73a32b960711b606082015260800190565b60208082526031908201527f4552433732313a207472616e736665722063616c6c6572206973206e6f74206f6040820152701ddb995c881b9bdc88185c1c1c9bdd9959607a1b606082015260800190565b600082198211156116d9576116d961179f565b500190565b6000826116ed576116ed6117b5565b500490565b6000828210156117045761170461179f565b500390565b60005b8381101561172457818101518382015260200161170c565b8381111561078c5750506000910152565b600181811c9082168061174957607f821691505b6020821081141561176a57634e487b7160e01b600052602260045260246000fd5b50919050565b60006000198214156117845761178461179f565b5060010190565b60008261179a5761179a6117b5565b500690565b634e487b7160e01b600052601160045260246000fd5b634e487b7160e01b600052601260045260246000fd5b634e487b7160e01b600052604160045260246000fd5b6001600160e01b03198116811461057857600080fdfea26469706673582212200a0bfaabaf1dea79d295fb342b1eeaa49a84c72f1882a112f93710eddeea58bc64736f6c63430008030033",
  "linkReferences": {},
  "deployedLinkReferences": {}
}