{
  "_format": "hh-sol-artifact-1",
  "contractName": "DiamondCommunityNFT",
  "sourceName": "contracts/DiamondCommunityNFT.sol",
  "abi": [
    {
      "inputs": [
        {
          "internalType": "string",
          "name": "_baseURI_",
          "type": "string"
        }
      ],
      "stateMutability": "nonpayable",
      "type": "constructor"
    },
    {
      "anonymous": false,
      "inputs": [
        {
          "indexed": true,
          "internalType": "address",
          "name": "owner",
          "type": "address"
        },
        {
          "indexed": true,
          "internalType": "address",
          "name": "approved",
          "type": "address"
        },
        {
          "indexed": true,
          "internalType": "uint256",
          "name": "tokenId",
          "type": "uint256"
        }
      ],
      "name": "Approval",
      "type": "event"
    },
    {
      "anonymous": false,
      "inputs": [
        {
          "indexed": true,
          "internalType": "address",
          "name": "owner",
          "type": "address"
        },
        {
          "indexed": true,
          "internalType": "address",
          "name": "operator",
          "type": "address"
        },
        {
          "indexed": false,
          "internalType": "bool",
          "name": "approved",
          "type": "bool"
        }
      ],
      "name": "ApprovalForAll",
      "type": "event"
    },
    {
      "anonymous": false,
      "inputs": [
        {
          "indexed": true,
          "internalType": "address",
          "name": "account",
          "type": "address"
        }
      ],
      "name": "OperatorAdded",
      "type": "event"
    },
    {
      "anonymous": false,
      "inputs": [
        {
          "indexed": true,
          "internalType": "address",
          "name": "account",
          "type": "address"
        }
      ],
      "name": "OperatorRemoved",
      "type": "event"
    },
    {
      "anonymous": false,
      "inputs": [
        {
          "indexed": true,
          "internalType": "address",
          "name": "previousOwner",
          "type": "address"
        },
        {
          "indexed": true,
          "internalType": "address",
          "name": "newOwner",
          "type": "address"
        }
      ],
      "name": "OwnershipTransferred",
      "type": "event"
    },
    {
      "anonymous": false,
      "inputs": [
        {
          "indexed": true,
          "internalType": "address",
          "name": "from",
          "type": "address"
        },
        {
          "indexed": true,
          "internalType": "address",
          "name": "to",
          "type": "address"
        },
        {
          "indexed": true,
          "internalType": "uint256",
          "name": "tokenId",
          "type": "uint256"
        }
      ],
      "name": "Transfer",
      "type": "event"
    },
    {
      "inputs": [],
      "name": "NAME",
      "outputs": [
        {
          "internalType": "string",
          "name": "",
          "type": "string"
        }
      ],
      "stateMutability": "view",
      "type": "function"
    },
    {
      "inputs": [],
      "name": "SYMBOL",
      "outputs": [
        {
          "internalType": "string",
          "name": "",
          "type": "string"
        }
      ],
      "stateMutability": "view",
      "type": "function"
    },
    {
      "inputs": [
        {
          "internalType": "address",
          "name": "account",
          "type": "address"
        }
      ],
      "name": "addOperator",
      "outputs": [],
      "stateMutability": "nonpayable",
      "type": "function"
    },
    {
      "inputs": [
        {
          "internalType": "address",
          "name": "to",
          "type": "address"
        },
        {
          "internalType": "uint256",
          "name": "tokenId",
          "type": "uint256"
        }
      ],
      "name": "approve",
      "outputs": [],
      "stateMutability": "nonpayable",
      "type": "function"
    },
    {
      "inputs": [
        {
          "internalType": "address",
          "name": "owner",
          "type": "address"
        }
      ],
      "name": "balanceOf",
      "outputs": [
        {
          "internalType": "uint256",
          "name": "",
          "type": "uint256"
        }
      ],
      "stateMutability": "view",
      "type": "function"
    },
    {
      "inputs": [],
      "name": "baseURI",
      "outputs": [
        {
          "internalType": "string",
          "name": "",
          "type": "string"
        }
      ],
      "stateMutability": "view",
      "type": "function"
    },
    {
      "inputs": [
        {
          "internalType": "uint256",
          "name": "tokenId",
          "type": "uint256"
        }
      ],
      "name": "burn",
      "outputs": [],
      "stateMutability": "nonpayable",
      "type": "function"
    },
    {
      "inputs": [
        {
          "internalType": "uint256",
          "name": "tokenId",
          "type": "uint256"
        }
      ],
      "name": "getApproved",
      "outputs": [
        {
          "internalType": "address",
          "name": "",
          "type": "address"
        }
      ],
      "stateMutability": "view",
      "type": "function"
    },
    {
      "inputs": [
        {
          "internalType": "address",
          "name": "owner",
          "type": "address"
        },
        {
          "internalType": "address",
          "name": "operator",
          "type": "address"
        }
      ],
      "name": "isApprovedForAll",
      "outputs": [
        {
          "internalType": "bool",
          "name": "",
          "type": "bool"
        }
      ],
      "stateMutability": "view",
      "type": "function"
    },
    {
      "inputs": [
        {
          "internalType": "address",
          "name": "account",
          "type": "address"
        }
      ],
      "name": "isOperator",
      "outputs": [
        {
          "internalType": "bool",
          "name": "",
          "type": "bool"
        }
      ],
      "stateMutability": "view",
      "type": "function"
    },
    {
      "inputs": [
        {
          "internalType": "address",
          "name": "account",
          "type": "address"
        },
        {
          "internalType": "uint256",
          "name": "id",
          "type": "uint256"
        }
      ],
      "name": "mint",
      "outputs": [],
      "stateMutability": "nonpayable",
      "type": "function"
    },
    {
      "inputs": [],
      "name": "name",
      "outputs": [
        {
          "internalType": "string",
          "name": "",
          "type": "string"
        }
      ],
      "stateMutability": "view",
      "type": "function"
    },
    {
      "inputs": [],
      "name": "owner",
      "outputs": [
        {
          "internalType": "address",
          "name": "",
          "type": "address"
        }
      ],
      "stateMutability": "view",
      "type": "function"
    },
    {
      "inputs": [
        {
          "internalType": "uint256",
          "name": "tokenId",
          "type": "uint256"
        }
      ],
      "name": "ownerOf",
      "outputs": [
        {
          "internalType": "address",
          "name": "",
          "type": "address"
        }
      ],
      "stateMutability": "view",
      "type": "function"
    },
    {
      "inputs": [
        {
          "internalType": "address",
          "name": "account",
          "type": "address"
        }
      ],
      "name": "removeOperator",
      "outputs": [],
      "stateMutability": "nonpayable",
      "type": "function"
    },
    {
      "inputs": [],
      "name": "renounceOperator",
      "outputs": [],
      "stateMutability": "nonpayable",
      "type": "function"
    },
    {
      "inputs": [],
      "name": "renounceOwnership",
      "outputs": [],
      "stateMutability": "nonpayable",
      "type": "function"
    },
    {
      "inputs": [
        {
          "internalType": "address",
          "name": "from",
          "type": "address"
        },
        {
          "internalType": "address",
          "name": "to",
          "type": "address"
        },
        {
          "internalType": "uint256",
          "name": "tokenId",
          "type": "uint256"
        }
      ],
      "name": "safeTransferFrom",
      "outputs": [],
      "stateMutability": "nonpayable",
      "type": "function"
    },
    {
      "inputs": [
        {
          "internalType": "address",
          "name": "from",
          "type": "address"
        },
        {
          "internalType": "address",
          "name": "to",
          "type": "address"
        },
        {
          "internalType": "uint256",
          "name": "tokenId",
          "type": "uint256"
        },
        {
          "internalType": "bytes",
          "name": "_data",
          "type": "bytes"
        }
      ],
      "name": "safeTransferFrom",
      "outputs": [],
      "stateMutability": "nonpayable",
      "type": "function"
    },
    {
      "inputs": [
        {
          "internalType": "address",
          "name": "operator",
          "type": "address"
        },
        {
          "internalType": "bool",
          "name": "approved",
          "type": "bool"
        }
      ],
      "name": "setApprovalForAll",
      "outputs": [],
      "stateMutability": "nonpayable",
      "type": "function"
    },
    {
      "inputs": [
        {
          "internalType": "string",
          "name": "newURI",
          "type": "string"
        }
      ],
      "name": "setURI",
      "outputs": [],
      "stateMutability": "nonpayable",
      "type": "function"
    },
    {
      "inputs": [
        {
          "internalType": "bytes4",
          "name": "interfaceId",
          "type": "bytes4"
        }
      ],
      "name": "supportsInterface",
      "outputs": [
        {
          "internalType": "bool",
          "name": "",
          "type": "bool"
        }
      ],
      "stateMutability": "view",
      "type": "function"
    },
    {
      "inputs": [],
      "name": "symbol",
      "outputs": [
        {
          "internalType": "string",
          "name": "",
          "type": "string"
        }
      ],
      "stateMutability": "view",
      "type": "function"
    },
    {
      "inputs": [],
      "name": "theBaseURI",
      "outputs": [
        {
          "internalType": "string",
          "name": "",
          "type": "string"
        }
      ],
      "stateMutability": "view",
      "type": "function"
    },
    {
      "inputs": [
        {
          "internalType": "uint256",
          "name": "tokenId",
          "type": "uint256"
        }
      ],
      "name": "tokenURI",
      "outputs": [
        {
          "internalType": "string",
          "name": "",
          "type": "string"
        }
      ],
      "stateMutability": "view",
      "type": "function"
    },
    {
      "inputs": [
        {
          "internalType": "address",
          "name": "from",
          "type": "address"
        },
        {
          "internalType": "address",
          "name": "to",
          "type": "address"
        },
        {
          "internalType": "uint256",
          "name": "tokenId",
          "type": "uint256"
        }
      ],
      "name": "transferFrom",
      "outputs": [],
      "stateMutability": "nonpayable",
      "type": "function"
    },
    {
      "inputs": [
        {
          "internalType": "address",
          "name": "newOwner",
          "type": "address"
        }
      ],
      "name": "transferOwnership",
      "outputs": [],
      "stateMutability": "nonpayable",
      "type": "function"
    }
  ],
  "bytecode": "0x60806040523480156200001157600080fd5b506040516200213b3803806200213b833981016040819052620000349162000390565b6040518060400160405280601b81526020017f546f74656d204469616d6f6e6420436f6d6d756e697479204e4654000000000081525060405180604001604052806006815260200165151110db999d60d21b815250620000a36200009d6200011860201b60201c565b6200011c565b8151620000b8906001906020850190620002ea565b508051620000ce906002906020840190620002ea565b505050620000eb620000e56200011860201b60201c565b6200016c565b620000fb57620000fb336200018f565b805162000110906008906020840190620002ea565b5050620004b9565b3390565b600080546001600160a01b038381166001600160a01b0319831681178455604051919092169283917f8be0079c531659141344cd1fd0a4f28419497f9722a3daafe3b4186f6b6457e09190a35050565b600062000189826007620001e160201b62000cc71790919060201c565b92915050565b620001aa8160076200026a60201b62000d4a1790919060201c565b6040516001600160a01b038216907fac6fa858e9350a46cec16539926e0fde25b7629f84b5a72bffaae4df888ae86d90600090a250565b60006001600160a01b0382166200024a5760405162461bcd60e51b815260206004820152602260248201527f526f6c65733a206163636f756e7420697320746865207a65726f206164647265604482015261737360f01b60648201526084015b60405180910390fd5b506001600160a01b03166000908152602091909152604090205460ff1690565b620002768282620001e1565b15620002c55760405162461bcd60e51b815260206004820152601f60248201527f526f6c65733a206163636f756e7420616c72656164792068617320726f6c6500604482015260640162000241565b6001600160a01b0316600090815260209190915260409020805460ff19166001179055565b828054620002f89062000466565b90600052602060002090601f0160209004810192826200031c576000855562000367565b82601f106200033757805160ff191683800117855562000367565b8280016001018555821562000367579182015b82811115620003675782518255916020019190600101906200034a565b506200037592915062000379565b5090565b5b808211156200037557600081556001016200037a565b60006020808385031215620003a3578182fd5b82516001600160401b0380821115620003ba578384fd5b818501915085601f830112620003ce578384fd5b815181811115620003e357620003e3620004a3565b604051601f8201601f19908116603f011681019083821181831017156200040e576200040e620004a3565b81604052828152888684870101111562000426578687fd5b8693505b828410156200044957848401860151818501870152928501926200042a565b828411156200045a57868684830101525b98975050505050505050565b600181811c908216806200047b57607f821691505b602082108114156200049d57634e487b7160e01b600052602260045260246000fd5b50919050565b634e487b7160e01b600052604160045260246000fd5b611c7280620004c96000396000f3fe608060405234801561001057600080fd5b50600436106101a95760003560e01c806370a08231116100f9578063a3f4df7e11610097578063c87b56dd11610071578063c87b56dd14610392578063e985e9c5146103a5578063f2fde38b146103e1578063f76f8d78146103f4576101a9565b8063a3f4df7e14610330578063ac8a584a1461036c578063b88d4fde1461037f576101a9565b80638da5cb5b116100d35780638da5cb5b146102f157806395d89b41146103025780639870d7fe1461030a578063a22cb4651461031d576101a9565b806370a08231146102c0578063715018a6146102e157806377eebbdb146102e9576101a9565b80632ab6f8db1161016657806342966c681161014057806342966c681461027f5780636352211e146102925780636c0360eb146102a55780636d70f7ae146102ad576101a9565b80632ab6f8db1461025157806340c10f191461025957806342842e0e1461026c576101a9565b806301ffc9a7146101ae57806302fe5305146101d657806306fdde03146101eb578063081812fc14610200578063095ea7b31461022b57806323b872dd1461023e575b600080fd5b6101c16101bc3660046118e2565b610419565b60405190151581526020015b60405180910390f35b6101e96101e436600461191a565b61046d565b005b6101f36104b7565b6040516101cd9190611a20565b61021361020e366004611960565b610549565b6040516001600160a01b0390911681526020016101cd565b6101e96102393660046118b9565b6105de565b6101e961024c3660046117cb565b6106f4565b6101e9610726565b6101e96102673660046118b9565b610731565b6101e961027a3660046117cb565b6107ad565b6101e961028d366004611960565b6107c8565b6102136102a0366004611960565b6107f9565b6101f3610870565b6101c16102bb36600461177f565b61087f565b6102d36102ce36600461177f565b61088c565b6040519081526020016101cd565b6101e9610913565b6101f3610947565b6000546001600160a01b0316610213565b6101f36109d5565b6101e961031836600461177f565b6109e4565b6101e961032b36600461187f565b610a17565b6101f36040518060400160405280601b81526020017f546f74656d204469616d6f6e6420436f6d6d756e697479204e4654000000000081525081565b6101e961037a36600461177f565b610ae9565b6101e961038d366004611806565b610b1c565b6101f36103a0366004611960565b610b54565b6101c16103b3366004611799565b6001600160a01b03918216600090815260066020908152604080832093909416825291909152205460ff1690565b6101e96103ef36600461177f565b610c2f565b6101f360405180604001604052806006815260200165151110db999d60d21b81525081565b60006001600160e01b031982166380ac58cd60e01b148061044a57506001600160e01b03198216635b5e139f60e01b145b8061046557506301ffc9a760e01b6001600160e01b03198316145b90505b919050565b6000546001600160a01b031633146104a05760405162461bcd60e51b815260040161049790611a85565b60405180910390fd5b80516104b3906008906020840190611659565b5050565b6060600180546104c690611b7a565b80601f01602080910402602001604051908101604052809291908181526020018280546104f290611b7a565b801561053f5780601f106105145761010080835404028352916020019161053f565b820191906000526020600020905b81548152906001019060200180831161052257829003601f168201915b5050505050905090565b6000818152600360205260408120546001600160a01b03166105c25760405162461bcd60e51b815260206004820152602c60248201527f4552433732313a20617070726f76656420717565727920666f72206e6f6e657860448201526b34b9ba32b73a103a37b5b2b760a11b6064820152608401610497565b506000908152600560205260409020546001600160a01b031690565b60006105e9826107f9565b9050806001600160a01b0316836001600160a01b031614156106575760405162461bcd60e51b815260206004820152602160248201527f4552433732313a20617070726f76616c20746f2063757272656e74206f776e656044820152603960f91b6064820152608401610497565b336001600160a01b0382161480610673575061067381336103b3565b6106e55760405162461bcd60e51b815260206004820152603860248201527f4552433732313a20617070726f76652063616c6c6572206973206e6f74206f7760448201527f6e6572206e6f7220617070726f76656420666f7220616c6c00000000000000006064820152608401610497565b6106ef8383610dc6565b505050565b6106ff335b82610e34565b61071b5760405162461bcd60e51b815260040161049790611aba565b6106ef838383610f2b565b61072f336110cb565b565b61073a336102bb565b6107a35760405162461bcd60e51b815260206004820152603460248201527f4f70657261746f72526f6c653a2063616c6c657220646f6573206e6f74206861604482015273766520746865204f70657261746f7220726f6c6560601b6064820152608401610497565b6104b3828261110d565b6106ef83838360405180602001604052806000815250610b1c565b6107d1336106f9565b6107ed5760405162461bcd60e51b815260040161049790611aba565b6107f68161124f565b50565b6000818152600360205260408120546001600160a01b0316806104655760405162461bcd60e51b815260206004820152602960248201527f4552433732313a206f776e657220717565727920666f72206e6f6e657869737460448201526832b73a103a37b5b2b760b91b6064820152608401610497565b6060600880546104c690611b7a565b6000610465600783610cc7565b60006001600160a01b0382166108f75760405162461bcd60e51b815260206004820152602a60248201527f4552433732313a2062616c616e636520717565727920666f7220746865207a65604482015269726f206164647265737360b01b6064820152608401610497565b506001600160a01b031660009081526004602052604090205490565b6000546001600160a01b0316331461093d5760405162461bcd60e51b815260040161049790611a85565b61072f60006112ea565b6008805461095490611b7a565b80601f016020809104026020016040519081016040528092919081815260200182805461098090611b7a565b80156109cd5780601f106109a2576101008083540402835291602001916109cd565b820191906000526020600020905b8154815290600101906020018083116109b057829003601f168201915b505050505081565b6060600280546104c690611b7a565b6000546001600160a01b03163314610a0e5760405162461bcd60e51b815260040161049790611a85565b6107f68161133a565b6001600160a01b038216331415610a705760405162461bcd60e51b815260206004820152601960248201527f4552433732313a20617070726f766520746f2063616c6c6572000000000000006044820152606401610497565b3360008181526006602090815260408083206001600160a01b0387168085529252909120805460ff1916841515179055906001600160a01b03167f17307eab39ab6107e8899845ad3d59bd9653f200f220920489ca2b5937696c3183604051610add911515815260200190565b60405180910390a35050565b6000546001600160a01b03163314610b135760405162461bcd60e51b815260040161049790611a85565b6107f6816110cb565b610b263383610e34565b610b425760405162461bcd60e51b815260040161049790611aba565b610b4e8484848461137c565b50505050565b6000818152600360205260409020546060906001600160a01b0316610bd35760405162461bcd60e51b815260206004820152602f60248201527f4552433732314d657461646174613a2055524920717565727920666f72206e6f60448201526e3732bc34b9ba32b73a103a37b5b2b760891b6064820152608401610497565b6000610bdd610870565b90506000815111610bfd5760405180602001604052806000815250610c28565b80610c07846113af565b604051602001610c189291906119a4565b6040516020818303038152906040525b9392505050565b6000546001600160a01b03163314610c595760405162461bcd60e51b815260040161049790611a85565b6001600160a01b038116610cbe5760405162461bcd60e51b815260206004820152602660248201527f4f776e61626c653a206e6577206f776e657220697320746865207a65726f206160448201526564647265737360d01b6064820152608401610497565b6107f6816112ea565b60006001600160a01b038216610d2a5760405162461bcd60e51b815260206004820152602260248201527f526f6c65733a206163636f756e7420697320746865207a65726f206164647265604482015261737360f01b6064820152608401610497565b506001600160a01b03166000908152602091909152604090205460ff1690565b610d548282610cc7565b15610da15760405162461bcd60e51b815260206004820152601f60248201527f526f6c65733a206163636f756e7420616c72656164792068617320726f6c65006044820152606401610497565b6001600160a01b0316600090815260209190915260409020805460ff19166001179055565b600081815260056020526040902080546001600160a01b0319166001600160a01b0384169081179091558190610dfb826107f9565b6001600160a01b03167f8c5be1e5ebec7d5bd14f71427d1e84f3dd0314c0f7b2291e5b200ac8c7c3b92560405160405180910390a45050565b6000818152600360205260408120546001600160a01b0316610ead5760405162461bcd60e51b815260206004820152602c60248201527f4552433732313a206f70657261746f7220717565727920666f72206e6f6e657860448201526b34b9ba32b73a103a37b5b2b760a11b6064820152608401610497565b6000610eb8836107f9565b9050806001600160a01b0316846001600160a01b03161480610ef35750836001600160a01b0316610ee884610549565b6001600160a01b0316145b80610f2357506001600160a01b0380821660009081526006602090815260408083209388168352929052205460ff165b949350505050565b826001600160a01b0316610f3e826107f9565b6001600160a01b031614610fa65760405162461bcd60e51b815260206004820152602960248201527f4552433732313a207472616e73666572206f6620746f6b656e2074686174206960448201526839903737ba1037bbb760b91b6064820152608401610497565b6001600160a01b0382166110085760405162461bcd60e51b8152602060048201526024808201527f4552433732313a207472616e7366657220746f20746865207a65726f206164646044820152637265737360e01b6064820152608401610497565b611013600082610dc6565b6001600160a01b038316600090815260046020526040812080546001929061103c908490611b37565b90915550506001600160a01b038216600090815260046020526040812080546001929061106a908490611b0b565b909155505060008181526003602052604080822080546001600160a01b0319166001600160a01b0386811691821790925591518493918716917fddf252ad1be2c89b69c2b068fc378daa952ba7f163c4a11628f55a4df523b3ef91a4505050565b6110d66007826114ca565b6040516001600160a01b038216907f80c0b871b97b595b16a7741c1b06fed0c6f6f558639f18ccbce50724325dc40d90600090a250565b6001600160a01b0382166111635760405162461bcd60e51b815260206004820181905260248201527f4552433732313a206d696e7420746f20746865207a65726f20616464726573736044820152606401610497565b6000818152600360205260409020546001600160a01b0316156111c85760405162461bcd60e51b815260206004820152601c60248201527f4552433732313a20746f6b656e20616c7265616479206d696e746564000000006044820152606401610497565b6001600160a01b03821660009081526004602052604081208054600192906111f1908490611b0b565b909155505060008181526003602052604080822080546001600160a01b0319166001600160a01b03861690811790915590518392907fddf252ad1be2c89b69c2b068fc378daa952ba7f163c4a11628f55a4df523b3ef908290a45050565b600061125a826107f9565b9050611267600083610dc6565b6001600160a01b0381166000908152600460205260408120805460019290611290908490611b37565b909155505060008281526003602052604080822080546001600160a01b0319169055518391906001600160a01b038416907fddf252ad1be2c89b69c2b068fc378daa952ba7f163c4a11628f55a4df523b3ef908390a45050565b600080546001600160a01b038381166001600160a01b0319831681178455604051919092169283917f8be0079c531659141344cd1fd0a4f28419497f9722a3daafe3b4186f6b6457e09190a35050565b611345600782610d4a565b6040516001600160a01b038216907fac6fa858e9350a46cec16539926e0fde25b7629f84b5a72bffaae4df888ae86d90600090a250565b611387848484610f2b565b6113938484848461154c565b610b4e5760405162461bcd60e51b815260040161049790611a33565b6060816113d457506040805180820190915260018152600360fc1b6020820152610468565b8160005b81156113fe57806113e881611bb5565b91506113f79050600a83611b23565b91506113d8565b60008167ffffffffffffffff81111561142757634e487b7160e01b600052604160045260246000fd5b6040519080825280601f01601f191660200182016040528015611451576020820181803683370190505b5090505b8415610f2357611466600183611b37565b9150611473600a86611bd0565b61147e906030611b0b565b60f81b8183815181106114a157634e487b7160e01b600052603260045260246000fd5b60200101906001600160f81b031916908160001a9053506114c3600a86611b23565b9450611455565b6114d48282610cc7565b61152a5760405162461bcd60e51b815260206004820152602160248201527f526f6c65733a206163636f756e7420646f6573206e6f74206861766520726f6c6044820152606560f81b6064820152608401610497565b6001600160a01b0316600090815260209190915260409020805460ff19169055565b60006001600160a01b0384163b1561164e57604051630a85bd0160e11b81526001600160a01b0385169063150b7a02906115909033908990889088906004016119e3565b602060405180830381600087803b1580156115aa57600080fd5b505af19250505080156115da575060408051601f3d908101601f191682019092526115d7918101906118fe565b60015b611634573d808015611608576040519150601f19603f3d011682016040523d82523d6000602084013e61160d565b606091505b50805161162c5760405162461bcd60e51b815260040161049790611a33565b805181602001fd5b6001600160e01b031916630a85bd0160e11b149050610f23565b506001949350505050565b82805461166590611b7a565b90600052602060002090601f01602090048101928261168757600085556116cd565b82601f106116a057805160ff19168380011785556116cd565b828001600101855582156116cd579182015b828111156116cd5782518255916020019190600101906116b2565b506116d99291506116dd565b5090565b5b808211156116d957600081556001016116de565b600067ffffffffffffffff8084111561170d5761170d611c10565b604051601f8501601f19908116603f0116810190828211818310171561173557611735611c10565b8160405280935085815286868601111561174e57600080fd5b858560208301376000602087830101525050509392505050565b80356001600160a01b038116811461046857600080fd5b600060208284031215611790578081fd5b610c2882611768565b600080604083850312156117ab578081fd5b6117b483611768565b91506117c260208401611768565b90509250929050565b6000806000606084860312156117df578081fd5b6117e884611768565b92506117f660208501611768565b9150604084013590509250925092565b6000806000806080858703121561181b578081fd5b61182485611768565b935061183260208601611768565b925060408501359150606085013567ffffffffffffffff811115611854578182fd5b8501601f81018713611864578182fd5b611873878235602084016116f2565b91505092959194509250565b60008060408385031215611891578182fd5b61189a83611768565b9150602083013580151581146118ae578182fd5b809150509250929050565b600080604083850312156118cb578182fd5b6118d483611768565b946020939093013593505050565b6000602082840312156118f3578081fd5b8135610c2881611c26565b60006020828403121561190f578081fd5b8151610c2881611c26565b60006020828403121561192b578081fd5b813567ffffffffffffffff811115611941578182fd5b8201601f81018413611951578182fd5b610f23848235602084016116f2565b600060208284031215611971578081fd5b5035919050565b60008151808452611990816020860160208601611b4e565b601f01601f19169290920160200192915050565b600083516119b6818460208801611b4e565b8351908301906119ca818360208801611b4e565b64173539b7b760d91b9101908152600501949350505050565b6001600160a01b0385811682528416602082015260408101839052608060608201819052600090611a1690830184611978565b9695505050505050565b600060208252610c286020830184611978565b60208082526032908201527f4552433732313a207472616e7366657220746f206e6f6e20455243373231526560408201527131b2b4bb32b91034b6b83632b6b2b73a32b960711b606082015260800190565b6020808252818101527f4f776e61626c653a2063616c6c6572206973206e6f7420746865206f776e6572604082015260600190565b60208082526031908201527f4552433732313a207472616e736665722063616c6c6572206973206e6f74206f6040820152701ddb995c881b9bdc88185c1c1c9bdd9959607a1b606082015260800190565b60008219821115611b1e57611b1e611be4565b500190565b600082611b3257611b32611bfa565b500490565b600082821015611b4957611b49611be4565b500390565b60005b83811015611b69578181015183820152602001611b51565b83811115610b4e5750506000910152565b600181811c90821680611b8e57607f821691505b60208210811415611baf57634e487b7160e01b600052602260045260246000fd5b50919050565b6000600019821415611bc957611bc9611be4565b5060010190565b600082611bdf57611bdf611bfa565b500690565b634e487b7160e01b600052601160045260246000fd5b634e487b7160e01b600052601260045260246000fd5b634e487b7160e01b600052604160045260246000fd5b6001600160e01b0319811681146107f657600080fdfea2646970667358221220272e77e5ae29fc0312fdb630ebd375ed5621fcc955f30b7da4df2093ae73e65064736f6c63430008030033",
  "linkReferences": {},
  "deployedLinkReferences": {}
}