{
  "address": "0x5705aB763B771b5F562013f348B471F7224f1214",
  "abi": [
    {
      "inputs": [],
      "stateMutability": "nonpayable",
      "type": "constructor"
    },
    {
      "anonymous": false,
      "inputs": [
        {
          "indexed": true,
          "internalType": "address",
          "name": "nftCollection",
          "type": "address"
        },
        {
          "indexed": false,
          "internalType": "string",
          "name": "name",
          "type": "string"
        },
        {
          "indexed": false,
          "internalType": "string",
          "name": "sybmol",
          "type": "string"
        }
      ],
      "name": "CollectionURIStorageCreated",
      "type": "event"
    },
    {
      "anonymous": false,
      "inputs": [
        {
          "indexed": true,
          "internalType": "address",
          "name": "nftCollection",
          "type": "address"
        },
        {
          "indexed": false,
          "internalType": "string",
          "name": "name",
          "type": "string"
        },
        {
          "indexed": false,
          "internalType": "string",
          "name": "sybmol",
          "type": "string"
        }
      ],
      "name": "CollectionURIStoragePublicCreated",
      "type": "event"
    },
    {
      "anonymous": false,
      "inputs": [
        {
          "indexed": true,
          "internalType": "address",
          "name": "nftCollection",
          "type": "address"
        },
        {
          "indexed": false,
          "internalType": "string",
          "name": "name",
          "type": "string"
        },
        {
          "indexed": false,
          "internalType": "string",
          "name": "sybmol",
          "type": "string"
        },
        {
          "indexed": false,
          "internalType": "uint256",
          "name": "nftNumber",
          "type": "uint256"
        }
      ],
      "name": "CollectionWithBaseURICreated",
      "type": "event"
    },
    {
      "inputs": [
        {
          "internalType": "string",
          "name": "_name_",
          "type": "string"
        },
        {
          "internalType": "string",
          "name": "_symbol_",
          "type": "string"
        }
      ],
      "name": "createNFTCollectionURIStorage",
      "outputs": [
        {
          "internalType": "address",
          "name": "",
          "type": "address"
        }
      ],
      "stateMutability": "nonpayable",
      "type": "function"
    },
    {
      "inputs": [
        {
          "internalType": "string",
          "name": "_name_",
          "type": "string"
        },
        {
          "internalType": "string",
          "name": "_symbol_",
          "type": "string"
        }
      ],
      "name": "createNFTCollectionURIStoragePublic",
      "outputs": [
        {
          "internalType": "address",
          "name": "",
          "type": "address"
        }
      ],
      "stateMutability": "nonpayable",
      "type": "function"
    },
    {
      "inputs": [
        {
          "internalType": "string",
          "name": "_name_",
          "type": "string"
        },
        {
          "internalType": "string",
          "name": "_symbol_",
          "type": "string"
        },
        {
          "internalType": "string",
          "name": "_baseURI_",
          "type": "string"
        },
        {
          "internalType": "uint256",
          "name": "_nftNumber_",
          "type": "uint256"
        }
      ],
      "name": "createNFTCollectionWithBaseURI",
      "outputs": [
        {
          "internalType": "address",
          "name": "",
          "type": "address"
        }
      ],
      "stateMutability": "nonpayable",
      "type": "function"
    }
  ],
  "transactionHash": "0x357464f08c051a133eebd7fb15302ebd7627622f0dbd6b764118a8f453b8b69c",
  "args": [],
  "solcInputHash": "30c960f7866eb96109655308006fb196",
  "bytecode": "0x608060405234801561001057600080fd5b50615901806100206000396000f3fe60806040523480156200001157600080fd5b5060043610620000465760003560e01c8063375d7095146200004b578063c53406de146200007e578063ff071b861462000095575b600080fd5b620000626200005c36600462000313565b620000ac565b6040516001600160a01b03909116815260200160405180910390f35b620000626200008f36600462000313565b6200013e565b62000062620000a63660046200037b565b620001c0565b6000808383604051620000bf906200025a565b620000cc9291906200045f565b604051809103906000f080158015620000e9573d6000803e3d6000fd5b5090506000819050806001600160a01b03167fe1247a96e0b3abf6324dd98c0889d7e1b2a3b69aa9760ef9e1cd8bfdaf9fbd9086866040516200012e9291906200045f565b60405180910390a2949350505050565b6000808383604051620001519062000268565b6200015e9291906200045f565b604051809103906000f0801580156200017b573d6000803e3d6000fd5b5090506000819050806001600160a01b03167faf6730cd7686955b2c0bf07df6250f02c44492e321f77c64809411787e3e22d386866040516200012e9291906200045f565b60008085858585604051620001d59062000276565b620001e4949392919062000491565b604051809103906000f08015801562000201573d6000803e3d6000fd5b5090506000819050806001600160a01b03167f8afdfd082a9b772234bbd3bf3946800d4c26b13d98947b7a9d6dffa8ae75ea0e8888876040516200024893929190620004e2565b60405180910390a29695505050505050565b611abe806200053383390190565b611ce18062001ff183390190565b611bfa8062003cd283390190565b600082601f83011262000295578081fd5b813567ffffffffffffffff80821115620002b357620002b36200051c565b604051601f8301601f19908116603f01168101908282118183101715620002de57620002de6200051c565b81604052838152866020858801011115620002f7578485fd5b8360208701602083013792830160200193909352509392505050565b6000806040838503121562000326578182fd5b823567ffffffffffffffff808211156200033e578384fd5b6200034c8683870162000284565b9350602085013591508082111562000362578283fd5b50620003718582860162000284565b9150509250929050565b6000806000806080858703121562000391578182fd5b843567ffffffffffffffff80821115620003a9578384fd5b620003b78883890162000284565b95506020870135915080821115620003cd578384fd5b620003db8883890162000284565b94506040870135915080821115620003f1578384fd5b50620004008782880162000284565b949793965093946060013593505050565b60008151808452815b8181101562000438576020818501810151868301820152016200041a565b818111156200044a5782602083870101525b50601f01601f19169290920160200192915050565b60006040825262000474604083018562000411565b828103602084015262000488818562000411565b95945050505050565b600060808252620004a6608083018762000411565b8281036020840152620004ba818762000411565b90508281036040840152620004d0818662000411565b91505082606083015295945050505050565b600060608252620004f7606083018662000411565b82810360208401526200050b818662000411565b915050826040830152949350505050565b634e487b7160e01b600052604160045260246000fdfe60806040523480156200001157600080fd5b5060405162001abe38038062001abe8339810160408190526200003491620001c7565b8151829082906200004d9060009060208501906200006e565b508051620000639060019060208401906200006e565b505050505062000281565b8280546200007c906200022e565b90600052602060002090601f016020900481019282620000a05760008555620000eb565b82601f10620000bb57805160ff1916838001178555620000eb565b82800160010185558215620000eb579182015b82811115620000eb578251825591602001919060010190620000ce565b50620000f9929150620000fd565b5090565b5b80821115620000f95760008155600101620000fe565b600082601f83011262000125578081fd5b81516001600160401b03808211156200014257620001426200026b565b604051601f8301601f19908116603f011681019082821181831017156200016d576200016d6200026b565b8160405283815260209250868385880101111562000189578485fd5b8491505b83821015620001ac57858201830151818301840152908201906200018d565b83821115620001bd57848385830101525b9695505050505050565b60008060408385031215620001da578182fd5b82516001600160401b0380821115620001f1578384fd5b620001ff8683870162000114565b9350602085015191508082111562000215578283fd5b50620002248582860162000114565b9150509250929050565b600181811c908216806200024357607f821691505b602082108114156200026557634e487b7160e01b600052602260045260246000fd5b50919050565b634e487b7160e01b600052604160045260246000fd5b61182d80620002916000396000f3fe608060405234801561001057600080fd5b50600436106100f55760003560e01c80636352211e11610097578063b88d4fde11610066578063b88d4fde146101ff578063c87b56dd14610212578063d3fc986414610225578063e985e9c514610238576100f5565b80636352211e146101b057806370a08231146101c357806395d89b41146101e4578063a22cb465146101ec576100f5565b8063095ea7b3116100d3578063095ea7b31461016257806323b872dd1461017757806342842e0e1461018a57806342966c681461019d576100f5565b806301ffc9a7146100fa57806306fdde0314610122578063081812fc14610137575b600080fd5b61010d610108366004611528565b610274565b60405190151581526020015b60405180910390f35b61012a6102c8565b6040516101199190611610565b61014a610145366004611560565b61035a565b6040516001600160a01b039091168152602001610119565b610175610170366004611497565b6103e7565b005b6101756101853660046113a9565b6104fd565b6101756101983660046113a9565b61052f565b6101756101ab366004611560565b61054a565b61014a6101be366004611560565b61057b565b6101d66101d136600461135d565b6105f2565b604051908152602001610119565b61012a610679565b6101756101fa36600461145d565b610688565b61017561020d3660046113e4565b61075a565b61012a610220366004611560565b610792565b6101756102333660046114c0565b61090a565b61010d610246366004611377565b6001600160a01b03918216600090815260056020908152604080832093909416825291909152205460ff1690565b60006001600160e01b031982166380ac58cd60e01b14806102a557506001600160e01b03198216635b5e139f60e01b145b806102c057506301ffc9a760e01b6001600160e01b03198316145b90505b919050565b6060600080546102d790611735565b80601f016020809104026020016040519081016040528092919081815260200182805461030390611735565b80156103505780601f1061032557610100808354040283529160200191610350565b820191906000526020600020905b81548152906001019060200180831161033357829003601f168201915b5050505050905090565b60006103658261091e565b6103cb5760405162461bcd60e51b815260206004820152602c60248201527f4552433732313a20617070726f76656420717565727920666f72206e6f6e657860448201526b34b9ba32b73a103a37b5b2b760a11b60648201526084015b60405180910390fd5b506000908152600460205260409020546001600160a01b031690565b60006103f28261057b565b9050806001600160a01b0316836001600160a01b031614156104605760405162461bcd60e51b815260206004820152602160248201527f4552433732313a20617070726f76616c20746f2063757272656e74206f776e656044820152603960f91b60648201526084016103c2565b336001600160a01b038216148061047c575061047c8133610246565b6104ee5760405162461bcd60e51b815260206004820152603860248201527f4552433732313a20617070726f76652063616c6c6572206973206e6f74206f7760448201527f6e6572206e6f7220617070726f76656420666f7220616c6c000000000000000060648201526084016103c2565b6104f8838361093b565b505050565b610508335b826109a9565b6105245760405162461bcd60e51b81526004016103c290611675565b6104f8838383610a8f565b6104f88383836040518060200160405280600081525061075a565b61055333610502565b61056f5760405162461bcd60e51b81526004016103c290611675565b61057881610c2f565b50565b6000818152600260205260408120546001600160a01b0316806102c05760405162461bcd60e51b815260206004820152602960248201527f4552433732313a206f776e657220717565727920666f72206e6f6e657869737460448201526832b73a103a37b5b2b760b91b60648201526084016103c2565b60006001600160a01b03821661065d5760405162461bcd60e51b815260206004820152602a60248201527f4552433732313a2062616c616e636520717565727920666f7220746865207a65604482015269726f206164647265737360b01b60648201526084016103c2565b506001600160a01b031660009081526003602052604090205490565b6060600180546102d790611735565b6001600160a01b0382163314156106e15760405162461bcd60e51b815260206004820152601960248201527f4552433732313a20617070726f766520746f2063616c6c65720000000000000060448201526064016103c2565b3360008181526005602090815260408083206001600160a01b0387168085529252909120805460ff1916841515179055906001600160a01b03167f17307eab39ab6107e8899845ad3d59bd9653f200f220920489ca2b5937696c318360405161074e911515815260200190565b60405180910390a35050565b61076433836109a9565b6107805760405162461bcd60e51b81526004016103c290611675565b61078c84848484610c6f565b50505050565b606061079d8261091e565b6108035760405162461bcd60e51b815260206004820152603160248201527f45524337323155524953746f726167653a2055524920717565727920666f72206044820152703737b732bc34b9ba32b73a103a37b5b2b760791b60648201526084016103c2565b6000828152600660205260408120805461081c90611735565b80601f016020809104026020016040519081016040528092919081815260200182805461084890611735565b80156108955780601f1061086a57610100808354040283529160200191610895565b820191906000526020600020905b81548152906001019060200180831161087857829003601f168201915b5050505050905060006108b360408051602081019091526000815290565b90508051600014156108c7575090506102c3565b8151156108f95780826040516020016108e19291906115a4565b604051602081830303815290604052925050506102c3565b61090284610ca2565b949350505050565b6109148383610d7a565b6104f88282610ead565b6000908152600260205260409020546001600160a01b0316151590565b600081815260046020526040902080546001600160a01b0319166001600160a01b03841690811790915581906109708261057b565b6001600160a01b03167f8c5be1e5ebec7d5bd14f71427d1e84f3dd0314c0f7b2291e5b200ac8c7c3b92560405160405180910390a45050565b60006109b48261091e565b610a155760405162461bcd60e51b815260206004820152602c60248201527f4552433732313a206f70657261746f7220717565727920666f72206e6f6e657860448201526b34b9ba32b73a103a37b5b2b760a11b60648201526084016103c2565b6000610a208361057b565b9050806001600160a01b0316846001600160a01b03161480610a5b5750836001600160a01b0316610a508461035a565b6001600160a01b0316145b8061090257506001600160a01b0380821660009081526005602090815260408083209388168352929052205460ff16610902565b826001600160a01b0316610aa28261057b565b6001600160a01b031614610b0a5760405162461bcd60e51b815260206004820152602960248201527f4552433732313a207472616e73666572206f6620746f6b656e2074686174206960448201526839903737ba1037bbb760b91b60648201526084016103c2565b6001600160a01b038216610b6c5760405162461bcd60e51b8152602060048201526024808201527f4552433732313a207472616e7366657220746f20746865207a65726f206164646044820152637265737360e01b60648201526084016103c2565b610b7760008261093b565b6001600160a01b0383166000908152600360205260408120805460019290610ba09084906116f2565b90915550506001600160a01b0382166000908152600360205260408120805460019290610bce9084906116c6565b909155505060008181526002602052604080822080546001600160a01b0319166001600160a01b0386811691821790925591518493918716917fddf252ad1be2c89b69c2b068fc378daa952ba7f163c4a11628f55a4df523b3ef91a4505050565b610c3881610f38565b60008181526006602052604090208054610c5190611735565b159050610578576000818152600660205260408120610578916111fb565b610c7a848484610a8f565b610c8684848484610fd3565b61078c5760405162461bcd60e51b81526004016103c290611623565b6060610cad8261091e565b610d115760405162461bcd60e51b815260206004820152602f60248201527f4552433732314d657461646174613a2055524920717565727920666f72206e6f60448201526e3732bc34b9ba32b73a103a37b5b2b760891b60648201526084016103c2565b6000610d2860408051602081019091526000815290565b90506000815111610d485760405180602001604052806000815250610d73565b80610d52846110e0565b604051602001610d639291906115a4565b6040516020818303038152906040525b9392505050565b6001600160a01b038216610dd05760405162461bcd60e51b815260206004820181905260248201527f4552433732313a206d696e7420746f20746865207a65726f206164647265737360448201526064016103c2565b610dd98161091e565b15610e265760405162461bcd60e51b815260206004820152601c60248201527f4552433732313a20746f6b656e20616c7265616479206d696e7465640000000060448201526064016103c2565b6001600160a01b0382166000908152600360205260408120805460019290610e4f9084906116c6565b909155505060008181526002602052604080822080546001600160a01b0319166001600160a01b03861690811790915590518392907fddf252ad1be2c89b69c2b068fc378daa952ba7f163c4a11628f55a4df523b3ef908290a45050565b610eb68261091e565b610f195760405162461bcd60e51b815260206004820152602e60248201527f45524337323155524953746f726167653a2055524920736574206f66206e6f6e60448201526d32bc34b9ba32b73a103a37b5b2b760911b60648201526084016103c2565b600082815260066020908152604090912082516104f892840190611237565b6000610f438261057b565b9050610f5060008361093b565b6001600160a01b0381166000908152600360205260408120805460019290610f799084906116f2565b909155505060008281526002602052604080822080546001600160a01b0319169055518391906001600160a01b038416907fddf252ad1be2c89b69c2b068fc378daa952ba7f163c4a11628f55a4df523b3ef908390a45050565b60006001600160a01b0384163b156110d557604051630a85bd0160e11b81526001600160a01b0385169063150b7a02906110179033908990889088906004016115d3565b602060405180830381600087803b15801561103157600080fd5b505af1925050508015611061575060408051601f3d908101601f1916820190925261105e91810190611544565b60015b6110bb573d80801561108f576040519150601f19603f3d011682016040523d82523d6000602084013e611094565b606091505b5080516110b35760405162461bcd60e51b81526004016103c290611623565b805181602001fd5b6001600160e01b031916630a85bd0160e11b149050610902565b506001949350505050565b60608161110557506040805180820190915260018152600360fc1b60208201526102c3565b8160005b811561112f578061111981611770565b91506111289050600a836116de565b9150611109565b60008167ffffffffffffffff81111561115857634e487b7160e01b600052604160045260246000fd5b6040519080825280601f01601f191660200182016040528015611182576020820181803683370190505b5090505b8415610902576111976001836116f2565b91506111a4600a8661178b565b6111af9060306116c6565b60f81b8183815181106111d257634e487b7160e01b600052603260045260246000fd5b60200101906001600160f81b031916908160001a9053506111f4600a866116de565b9450611186565b50805461120790611735565b6000825580601f106112195750610578565b601f01602090049060005260206000209081019061057891906112bb565b82805461124390611735565b90600052602060002090601f01602090048101928261126557600085556112ab565b82601f1061127e57805160ff19168380011785556112ab565b828001600101855582156112ab579182015b828111156112ab578251825591602001919060010190611290565b506112b79291506112bb565b5090565b5b808211156112b757600081556001016112bc565b600067ffffffffffffffff808411156112eb576112eb6117cb565b604051601f8501601f19908116603f01168101908282118183101715611313576113136117cb565b8160405280935085815286868601111561132c57600080fd5b858560208301376000602087830101525050509392505050565b80356001600160a01b03811681146102c357600080fd5b60006020828403121561136e578081fd5b610d7382611346565b60008060408385031215611389578081fd5b61139283611346565b91506113a060208401611346565b90509250929050565b6000806000606084860312156113bd578081fd5b6113c684611346565b92506113d460208501611346565b9150604084013590509250925092565b600080600080608085870312156113f9578081fd5b61140285611346565b935061141060208601611346565b925060408501359150606085013567ffffffffffffffff811115611432578182fd5b8501601f81018713611442578182fd5b611451878235602084016112d0565b91505092959194509250565b6000806040838503121561146f578182fd5b61147883611346565b91506020830135801515811461148c578182fd5b809150509250929050565b600080604083850312156114a9578182fd5b6114b283611346565b946020939093013593505050565b6000806000606084860312156114d4578283fd5b6114dd84611346565b925060208401359150604084013567ffffffffffffffff8111156114ff578182fd5b8401601f8101861361150f578182fd5b61151e868235602084016112d0565b9150509250925092565b600060208284031215611539578081fd5b8135610d73816117e1565b600060208284031215611555578081fd5b8151610d73816117e1565b600060208284031215611571578081fd5b5035919050565b60008151808452611590816020860160208601611709565b601f01601f19169290920160200192915050565b600083516115b6818460208801611709565b8351908301906115ca818360208801611709565b01949350505050565b6001600160a01b038581168252841660208201526040810183905260806060820181905260009061160690830184611578565b9695505050505050565b600060208252610d736020830184611578565b60208082526032908201527f4552433732313a207472616e7366657220746f206e6f6e20455243373231526560408201527131b2b4bb32b91034b6b83632b6b2b73a32b960711b606082015260800190565b60208082526031908201527f4552433732313a207472616e736665722063616c6c6572206973206e6f74206f6040820152701ddb995c881b9bdc88185c1c1c9bdd9959607a1b606082015260800190565b600082198211156116d9576116d961179f565b500190565b6000826116ed576116ed6117b5565b500490565b6000828210156117045761170461179f565b500390565b60005b8381101561172457818101518382015260200161170c565b8381111561078c5750506000910152565b600181811c9082168061174957607f821691505b6020821081141561176a57634e487b7160e01b600052602260045260246000fd5b50919050565b60006000198214156117845761178461179f565b5060010190565b60008261179a5761179a6117b5565b500690565b634e487b7160e01b600052601160045260246000fd5b634e487b7160e01b600052601260045260246000fd5b634e487b7160e01b600052604160045260246000fd5b6001600160e01b03198116811461057857600080fdfea26469706673582212202aa7f85eef6e3f973e5e09d67d4fb9bde16e7495e7af785e8df40f779d2bce4a64736f6c6343000803003360806040523480156200001157600080fd5b5060405162001ce138038062001ce1833981016040819052620000349162000220565b8181620000413362000077565b815162000056906001906020850190620000c7565b5080516200006c906002906020840190620000c7565b5050505050620002da565b600080546001600160a01b038381166001600160a01b0319831681178455604051919092169283917f8be0079c531659141344cd1fd0a4f28419497f9722a3daafe3b4186f6b6457e09190a35050565b828054620000d59062000287565b90600052602060002090601f016020900481019282620000f9576000855562000144565b82601f106200011457805160ff191683800117855562000144565b8280016001018555821562000144579182015b828111156200014457825182559160200191906001019062000127565b506200015292915062000156565b5090565b5b8082111562000152576000815560010162000157565b600082601f8301126200017e578081fd5b81516001600160401b03808211156200019b576200019b620002c4565b604051601f8301601f19908116603f01168101908282118183101715620001c657620001c6620002c4565b81604052838152602092508683858801011115620001e2578485fd5b8491505b83821015620002055785820183015181830184015290820190620001e6565b838211156200021657848385830101525b9695505050505050565b6000806040838503121562000233578182fd5b82516001600160401b03808211156200024a578384fd5b62000258868387016200016d565b935060208501519150808211156200026e578283fd5b506200027d858286016200016d565b9150509250929050565b600181811c908216806200029c57607f821691505b60208210811415620002be57634e487b7160e01b600052602260045260246000fd5b50919050565b634e487b7160e01b600052604160045260246000fd5b6119f780620002ea6000396000f3fe608060405234801561001057600080fd5b50600436106101165760003560e01c8063715018a6116100a2578063b88d4fde11610071578063b88d4fde14610239578063c87b56dd1461024c578063d3fc98641461025f578063e985e9c514610272578063f2fde38b146102ae57610116565b8063715018a6146102055780638da5cb5b1461020d57806395d89b411461021e578063a22cb4651461022657610116565b806323b872dd116100e957806323b872dd1461019857806342842e0e146101ab57806342966c68146101be5780636352211e146101d157806370a08231146101e457610116565b806301ffc9a71461011b57806306fdde0314610143578063081812fc14610158578063095ea7b314610183575b600080fd5b61012e6101293660046116bd565b6102c1565b60405190151581526020015b60405180910390f35b61014b610315565b60405161013a91906117a5565b61016b6101663660046116f5565b6103a7565b6040516001600160a01b03909116815260200161013a565b61019661019136600461162c565b610434565b005b6101966101a636600461153e565b61054a565b6101966101b936600461153e565b61057c565b6101966101cc3660046116f5565b610597565b61016b6101df3660046116f5565b6105c8565b6101f76101f23660046114f2565b61063f565b60405190815260200161013a565b6101966106c6565b6000546001600160a01b031661016b565b61014b6106fc565b6101966102343660046115f2565b61070b565b610196610247366004611579565b6107dd565b61014b61025a3660046116f5565b610815565b61019661026d366004611655565b61098d565b61012e61028036600461150c565b6001600160a01b03918216600090815260066020908152604080832093909416825291909152205460ff1690565b6101966102bc3660046114f2565b6109cb565b60006001600160e01b031982166380ac58cd60e01b14806102f257506001600160e01b03198216635b5e139f60e01b145b8061030d57506301ffc9a760e01b6001600160e01b03198316145b90505b919050565b606060018054610324906118ff565b80601f0160208091040260200160405190810160405280929190818152602001828054610350906118ff565b801561039d5780601f106103725761010080835404028352916020019161039d565b820191906000526020600020905b81548152906001019060200180831161038057829003601f168201915b5050505050905090565b60006103b282610a63565b6104185760405162461bcd60e51b815260206004820152602c60248201527f4552433732313a20617070726f76656420717565727920666f72206e6f6e657860448201526b34b9ba32b73a103a37b5b2b760a11b60648201526084015b60405180910390fd5b506000908152600560205260409020546001600160a01b031690565b600061043f826105c8565b9050806001600160a01b0316836001600160a01b031614156104ad5760405162461bcd60e51b815260206004820152602160248201527f4552433732313a20617070726f76616c20746f2063757272656e74206f776e656044820152603960f91b606482015260840161040f565b336001600160a01b03821614806104c957506104c98133610280565b61053b5760405162461bcd60e51b815260206004820152603860248201527f4552433732313a20617070726f76652063616c6c6572206973206e6f74206f7760448201527f6e6572206e6f7220617070726f76656420666f7220616c6c0000000000000000606482015260840161040f565b6105458383610a80565b505050565b610555335b82610aee565b6105715760405162461bcd60e51b815260040161040f9061183f565b610545838383610bd4565b610545838383604051806020016040528060008152506107dd565b6105a03361054f565b6105bc5760405162461bcd60e51b815260040161040f9061183f565b6105c581610d74565b50565b6000818152600360205260408120546001600160a01b03168061030d5760405162461bcd60e51b815260206004820152602960248201527f4552433732313a206f776e657220717565727920666f72206e6f6e657869737460448201526832b73a103a37b5b2b760b91b606482015260840161040f565b60006001600160a01b0382166106aa5760405162461bcd60e51b815260206004820152602a60248201527f4552433732313a2062616c616e636520717565727920666f7220746865207a65604482015269726f206164647265737360b01b606482015260840161040f565b506001600160a01b031660009081526004602052604090205490565b6000546001600160a01b031633146106f05760405162461bcd60e51b815260040161040f9061180a565b6106fa6000610db4565b565b606060028054610324906118ff565b6001600160a01b0382163314156107645760405162461bcd60e51b815260206004820152601960248201527f4552433732313a20617070726f766520746f2063616c6c657200000000000000604482015260640161040f565b3360008181526006602090815260408083206001600160a01b0387168085529252909120805460ff1916841515179055906001600160a01b03167f17307eab39ab6107e8899845ad3d59bd9653f200f220920489ca2b5937696c31836040516107d1911515815260200190565b60405180910390a35050565b6107e73383610aee565b6108035760405162461bcd60e51b815260040161040f9061183f565b61080f84848484610e04565b50505050565b606061082082610a63565b6108865760405162461bcd60e51b815260206004820152603160248201527f45524337323155524953746f726167653a2055524920717565727920666f72206044820152703737b732bc34b9ba32b73a103a37b5b2b760791b606482015260840161040f565b6000828152600760205260408120805461089f906118ff565b80601f01602080910402602001604051908101604052809291908181526020018280546108cb906118ff565b80156109185780601f106108ed57610100808354040283529160200191610918565b820191906000526020600020905b8154815290600101906020018083116108fb57829003601f168201915b50505050509050600061093660408051602081019091526000815290565b905080516000141561094a57509050610310565b81511561097c578082604051602001610964929190611739565b60405160208183030381529060405292505050610310565b61098584610e37565b949350505050565b6000546001600160a01b031633146109b75760405162461bcd60e51b815260040161040f9061180a565b6109c18383610f0f565b6105458282611042565b6000546001600160a01b031633146109f55760405162461bcd60e51b815260040161040f9061180a565b6001600160a01b038116610a5a5760405162461bcd60e51b815260206004820152602660248201527f4f776e61626c653a206e6577206f776e657220697320746865207a65726f206160448201526564647265737360d01b606482015260840161040f565b6105c581610db4565b6000908152600360205260409020546001600160a01b0316151590565b600081815260056020526040902080546001600160a01b0319166001600160a01b0384169081179091558190610ab5826105c8565b6001600160a01b03167f8c5be1e5ebec7d5bd14f71427d1e84f3dd0314c0f7b2291e5b200ac8c7c3b92560405160405180910390a45050565b6000610af982610a63565b610b5a5760405162461bcd60e51b815260206004820152602c60248201527f4552433732313a206f70657261746f7220717565727920666f72206e6f6e657860448201526b34b9ba32b73a103a37b5b2b760a11b606482015260840161040f565b6000610b65836105c8565b9050806001600160a01b0316846001600160a01b03161480610ba05750836001600160a01b0316610b95846103a7565b6001600160a01b0316145b8061098557506001600160a01b0380821660009081526006602090815260408083209388168352929052205460ff16610985565b826001600160a01b0316610be7826105c8565b6001600160a01b031614610c4f5760405162461bcd60e51b815260206004820152602960248201527f4552433732313a207472616e73666572206f6620746f6b656e2074686174206960448201526839903737ba1037bbb760b91b606482015260840161040f565b6001600160a01b038216610cb15760405162461bcd60e51b8152602060048201526024808201527f4552433732313a207472616e7366657220746f20746865207a65726f206164646044820152637265737360e01b606482015260840161040f565b610cbc600082610a80565b6001600160a01b0383166000908152600460205260408120805460019290610ce59084906118bc565b90915550506001600160a01b0382166000908152600460205260408120805460019290610d13908490611890565b909155505060008181526003602052604080822080546001600160a01b0319166001600160a01b0386811691821790925591518493918716917fddf252ad1be2c89b69c2b068fc378daa952ba7f163c4a11628f55a4df523b3ef91a4505050565b610d7d816110cd565b60008181526007602052604090208054610d96906118ff565b1590506105c55760008181526007602052604081206105c591611390565b600080546001600160a01b038381166001600160a01b0319831681178455604051919092169283917f8be0079c531659141344cd1fd0a4f28419497f9722a3daafe3b4186f6b6457e09190a35050565b610e0f848484610bd4565b610e1b84848484611168565b61080f5760405162461bcd60e51b815260040161040f906117b8565b6060610e4282610a63565b610ea65760405162461bcd60e51b815260206004820152602f60248201527f4552433732314d657461646174613a2055524920717565727920666f72206e6f60448201526e3732bc34b9ba32b73a103a37b5b2b760891b606482015260840161040f565b6000610ebd60408051602081019091526000815290565b90506000815111610edd5760405180602001604052806000815250610f08565b80610ee784611275565b604051602001610ef8929190611739565b6040516020818303038152906040525b9392505050565b6001600160a01b038216610f655760405162461bcd60e51b815260206004820181905260248201527f4552433732313a206d696e7420746f20746865207a65726f2061646472657373604482015260640161040f565b610f6e81610a63565b15610fbb5760405162461bcd60e51b815260206004820152601c60248201527f4552433732313a20746f6b656e20616c7265616479206d696e74656400000000604482015260640161040f565b6001600160a01b0382166000908152600460205260408120805460019290610fe4908490611890565b909155505060008181526003602052604080822080546001600160a01b0319166001600160a01b03861690811790915590518392907fddf252ad1be2c89b69c2b068fc378daa952ba7f163c4a11628f55a4df523b3ef908290a45050565b61104b82610a63565b6110ae5760405162461bcd60e51b815260206004820152602e60248201527f45524337323155524953746f726167653a2055524920736574206f66206e6f6e60448201526d32bc34b9ba32b73a103a37b5b2b760911b606482015260840161040f565b60008281526007602090815260409091208251610545928401906113cc565b60006110d8826105c8565b90506110e5600083610a80565b6001600160a01b038116600090815260046020526040812080546001929061110e9084906118bc565b909155505060008281526003602052604080822080546001600160a01b0319169055518391906001600160a01b038416907fddf252ad1be2c89b69c2b068fc378daa952ba7f163c4a11628f55a4df523b3ef908390a45050565b60006001600160a01b0384163b1561126a57604051630a85bd0160e11b81526001600160a01b0385169063150b7a02906111ac903390899088908890600401611768565b602060405180830381600087803b1580156111c657600080fd5b505af19250505080156111f6575060408051601f3d908101601f191682019092526111f3918101906116d9565b60015b611250573d808015611224576040519150601f19603f3d011682016040523d82523d6000602084013e611229565b606091505b5080516112485760405162461bcd60e51b815260040161040f906117b8565b805181602001fd5b6001600160e01b031916630a85bd0160e11b149050610985565b506001949350505050565b60608161129a57506040805180820190915260018152600360fc1b6020820152610310565b8160005b81156112c457806112ae8161193a565b91506112bd9050600a836118a8565b915061129e565b60008167ffffffffffffffff8111156112ed57634e487b7160e01b600052604160045260246000fd5b6040519080825280601f01601f191660200182016040528015611317576020820181803683370190505b5090505b84156109855761132c6001836118bc565b9150611339600a86611955565b611344906030611890565b60f81b81838151811061136757634e487b7160e01b600052603260045260246000fd5b60200101906001600160f81b031916908160001a905350611389600a866118a8565b945061131b565b50805461139c906118ff565b6000825580601f106113ae57506105c5565b601f0160209004906000526020600020908101906105c59190611450565b8280546113d8906118ff565b90600052602060002090601f0160209004810192826113fa5760008555611440565b82601f1061141357805160ff1916838001178555611440565b82800160010185558215611440579182015b82811115611440578251825591602001919060010190611425565b5061144c929150611450565b5090565b5b8082111561144c5760008155600101611451565b600067ffffffffffffffff8084111561148057611480611995565b604051601f8501601f19908116603f011681019082821181831017156114a8576114a8611995565b816040528093508581528686860111156114c157600080fd5b858560208301376000602087830101525050509392505050565b80356001600160a01b038116811461031057600080fd5b600060208284031215611503578081fd5b610f08826114db565b6000806040838503121561151e578081fd5b611527836114db565b9150611535602084016114db565b90509250929050565b600080600060608486031215611552578081fd5b61155b846114db565b9250611569602085016114db565b9150604084013590509250925092565b6000806000806080858703121561158e578081fd5b611597856114db565b93506115a5602086016114db565b925060408501359150606085013567ffffffffffffffff8111156115c7578182fd5b8501601f810187136115d7578182fd5b6115e687823560208401611465565b91505092959194509250565b60008060408385031215611604578182fd5b61160d836114db565b915060208301358015158114611621578182fd5b809150509250929050565b6000806040838503121561163e578182fd5b611647836114db565b946020939093013593505050565b600080600060608486031215611669578283fd5b611672846114db565b925060208401359150604084013567ffffffffffffffff811115611694578182fd5b8401601f810186136116a4578182fd5b6116b386823560208401611465565b9150509250925092565b6000602082840312156116ce578081fd5b8135610f08816119ab565b6000602082840312156116ea578081fd5b8151610f08816119ab565b600060208284031215611706578081fd5b5035919050565b600081518084526117258160208601602086016118d3565b601f01601f19169290920160200192915050565b6000835161174b8184602088016118d3565b83519083019061175f8183602088016118d3565b01949350505050565b6001600160a01b038581168252841660208201526040810183905260806060820181905260009061179b9083018461170d565b9695505050505050565b600060208252610f08602083018461170d565b60208082526032908201527f4552433732313a207472616e7366657220746f206e6f6e20455243373231526560408201527131b2b4bb32b91034b6b83632b6b2b73a32b960711b606082015260800190565b6020808252818101527f4f776e61626c653a2063616c6c6572206973206e6f7420746865206f776e6572604082015260600190565b60208082526031908201527f4552433732313a207472616e736665722063616c6c6572206973206e6f74206f6040820152701ddb995c881b9bdc88185c1c1c9bdd9959607a1b606082015260800190565b600082198211156118a3576118a3611969565b500190565b6000826118b7576118b761197f565b500490565b6000828210156118ce576118ce611969565b500390565b60005b838110156118ee5781810151838201526020016118d6565b8381111561080f5750506000910152565b600181811c9082168061191357607f821691505b6020821081141561193457634e487b7160e01b600052602260045260246000fd5b50919050565b600060001982141561194e5761194e611969565b5060010190565b6000826119645761196461197f565b500690565b634e487b7160e01b600052601160045260246000fd5b634e487b7160e01b600052601260045260246000fd5b634e487b7160e01b600052604160045260246000fd5b6001600160e01b0319811681146105c557600080fdfea2646970667358221220c3a5039a326ef0235415e7ba25d4cf4b4cc4b79f67e0d3a2864e6ce798e836b364736f6c6343000803003360806040523480156200001157600080fd5b5060405162001bfa38038062001bfa8339810160408190526200003491620003b2565b83836200004133620000bd565b81516200005690600190602085019062000259565b5080516200006c90600290602084019062000259565b50508251620000849150600790602085019062000259565b5060005b81811015620000b2576200009d33826200010d565b80620000a9816200049f565b91505062000088565b5050505050620004e9565b600080546001600160a01b038381166001600160a01b0319831681178455604051919092169283917f8be0079c531659141344cd1fd0a4f28419497f9722a3daafe3b4186f6b6457e09190a35050565b6001600160a01b038216620001695760405162461bcd60e51b815260206004820181905260248201527f4552433732313a206d696e7420746f20746865207a65726f206164647265737360448201526064015b60405180910390fd5b6000818152600360205260409020546001600160a01b031615620001d05760405162461bcd60e51b815260206004820152601c60248201527f4552433732313a20746f6b656e20616c7265616479206d696e74656400000000604482015260640162000160565b6001600160a01b0382166000908152600460205260408120805460019290620001fb90849062000447565b909155505060008181526003602052604080822080546001600160a01b0319166001600160a01b03861690811790915590518392907fddf252ad1be2c89b69c2b068fc378daa952ba7f163c4a11628f55a4df523b3ef908290a45050565b828054620002679062000462565b90600052602060002090601f0160209004810192826200028b5760008555620002d6565b82601f10620002a657805160ff1916838001178555620002d6565b82800160010185558215620002d6579182015b82811115620002d6578251825591602001919060010190620002b9565b50620002e4929150620002e8565b5090565b5b80821115620002e45760008155600101620002e9565b600082601f83011262000310578081fd5b81516001600160401b03808211156200032d576200032d620004d3565b604051601f8301601f19908116603f01168101908282118183101715620003585762000358620004d3565b8160405283815260209250868385880101111562000374578485fd5b8491505b8382101562000397578582018301518183018401529082019062000378565b83821115620003a857848385830101525b9695505050505050565b60008060008060808587031215620003c8578384fd5b84516001600160401b0380821115620003df578586fd5b620003ed88838901620002ff565b9550602087015191508082111562000403578485fd5b6200041188838901620002ff565b9450604087015191508082111562000427578384fd5b506200043687828801620002ff565b606096909601519497939650505050565b600082198211156200045d576200045d620004bd565b500190565b600181811c908216806200047757607f821691505b602082108114156200049957634e487b7160e01b600052602260045260246000fd5b50919050565b6000600019821415620004b657620004b6620004bd565b5060010190565b634e487b7160e01b600052601160045260246000fd5b634e487b7160e01b600052604160045260246000fd5b61170180620004f96000396000f3fe608060405234801561001057600080fd5b506004361061012c5760003560e01c806370a08231116100ad578063a22cb46511610071578063a22cb4651461025f578063b88d4fde14610272578063c87b56dd14610285578063e985e9c514610298578063f2fde38b146102d45761012c565b806370a0823114610215578063715018a61461023657806377eebbdb1461023e5780638da5cb5b1461024657806395d89b41146102575761012c565b806323b872dd116100f457806323b872dd146101c157806342842e0e146101d457806342966c68146101e75780636352211e146101fa5780636c0360eb1461020d5761012c565b806301ffc9a71461013157806302fe53051461015957806306fdde031461016e578063081812fc14610183578063095ea7b3146101ae575b600080fd5b61014461013f366004611371565b6102e7565b60405190151581526020015b60405180910390f35b61016c6101673660046113a9565b61033b565b005b610176610385565b60405161015091906114af565b6101966101913660046113ef565b610417565b6040516001600160a01b039091168152602001610150565b61016c6101bc366004611348565b6104ac565b61016c6101cf36600461125a565b6105c2565b61016c6101e236600461125a565b6105f4565b61016c6101f53660046113ef565b61060f565b6101966102083660046113ef565b610640565b6101766106b7565b61022861022336600461120e565b6106c6565b604051908152602001610150565b61016c61074d565b610176610783565b6000546001600160a01b0316610196565b610176610811565b61016c61026d36600461130e565b610820565b61016c610280366004611295565b6108f2565b6101766102933660046113ef565b61092a565b6101446102a6366004611228565b6001600160a01b03918216600090815260066020908152604080832093909416825291909152205460ff1690565b61016c6102e236600461120e565b610a05565b60006001600160e01b031982166380ac58cd60e01b148061031857506001600160e01b03198216635b5e139f60e01b145b8061033357506301ffc9a760e01b6001600160e01b03198316145b90505b919050565b6000546001600160a01b0316331461036e5760405162461bcd60e51b815260040161036590611514565b60405180910390fd5b80516103819060079060208401906110e8565b5050565b60606001805461039490611609565b80601f01602080910402602001604051908101604052809291908181526020018280546103c090611609565b801561040d5780601f106103e25761010080835404028352916020019161040d565b820191906000526020600020905b8154815290600101906020018083116103f057829003601f168201915b5050505050905090565b6000818152600360205260408120546001600160a01b03166104905760405162461bcd60e51b815260206004820152602c60248201527f4552433732313a20617070726f76656420717565727920666f72206e6f6e657860448201526b34b9ba32b73a103a37b5b2b760a11b6064820152608401610365565b506000908152600560205260409020546001600160a01b031690565b60006104b782610640565b9050806001600160a01b0316836001600160a01b031614156105255760405162461bcd60e51b815260206004820152602160248201527f4552433732313a20617070726f76616c20746f2063757272656e74206f776e656044820152603960f91b6064820152608401610365565b336001600160a01b0382161480610541575061054181336102a6565b6105b35760405162461bcd60e51b815260206004820152603860248201527f4552433732313a20617070726f76652063616c6c6572206973206e6f74206f7760448201527f6e6572206e6f7220617070726f76656420666f7220616c6c00000000000000006064820152608401610365565b6105bd8383610a9d565b505050565b6105cd335b82610b0b565b6105e95760405162461bcd60e51b815260040161036590611549565b6105bd838383610c02565b6105bd838383604051806020016040528060008152506108f2565b610618336105c7565b6106345760405162461bcd60e51b815260040161036590611549565b61063d81610da2565b50565b6000818152600360205260408120546001600160a01b0316806103335760405162461bcd60e51b815260206004820152602960248201527f4552433732313a206f776e657220717565727920666f72206e6f6e657869737460448201526832b73a103a37b5b2b760b91b6064820152608401610365565b60606007805461039490611609565b60006001600160a01b0382166107315760405162461bcd60e51b815260206004820152602a60248201527f4552433732313a2062616c616e636520717565727920666f7220746865207a65604482015269726f206164647265737360b01b6064820152608401610365565b506001600160a01b031660009081526004602052604090205490565b6000546001600160a01b031633146107775760405162461bcd60e51b815260040161036590611514565b6107816000610e3d565b565b6007805461079090611609565b80601f01602080910402602001604051908101604052809291908181526020018280546107bc90611609565b80156108095780601f106107de57610100808354040283529160200191610809565b820191906000526020600020905b8154815290600101906020018083116107ec57829003601f168201915b505050505081565b60606002805461039490611609565b6001600160a01b0382163314156108795760405162461bcd60e51b815260206004820152601960248201527f4552433732313a20617070726f766520746f2063616c6c6572000000000000006044820152606401610365565b3360008181526006602090815260408083206001600160a01b0387168085529252909120805460ff1916841515179055906001600160a01b03167f17307eab39ab6107e8899845ad3d59bd9653f200f220920489ca2b5937696c31836040516108e6911515815260200190565b60405180910390a35050565b6108fc3383610b0b565b6109185760405162461bcd60e51b815260040161036590611549565b61092484848484610e8d565b50505050565b6000818152600360205260409020546060906001600160a01b03166109a95760405162461bcd60e51b815260206004820152602f60248201527f4552433732314d657461646174613a2055524920717565727920666f72206e6f60448201526e3732bc34b9ba32b73a103a37b5b2b760891b6064820152608401610365565b60006109b36106b7565b905060008151116109d357604051806020016040528060008152506109fe565b806109dd84610ec0565b6040516020016109ee929190611433565b6040516020818303038152906040525b9392505050565b6000546001600160a01b03163314610a2f5760405162461bcd60e51b815260040161036590611514565b6001600160a01b038116610a945760405162461bcd60e51b815260206004820152602660248201527f4f776e61626c653a206e6577206f776e657220697320746865207a65726f206160448201526564647265737360d01b6064820152608401610365565b61063d81610e3d565b600081815260056020526040902080546001600160a01b0319166001600160a01b0384169081179091558190610ad282610640565b6001600160a01b03167f8c5be1e5ebec7d5bd14f71427d1e84f3dd0314c0f7b2291e5b200ac8c7c3b92560405160405180910390a45050565b6000818152600360205260408120546001600160a01b0316610b845760405162461bcd60e51b815260206004820152602c60248201527f4552433732313a206f70657261746f7220717565727920666f72206e6f6e657860448201526b34b9ba32b73a103a37b5b2b760a11b6064820152608401610365565b6000610b8f83610640565b9050806001600160a01b0316846001600160a01b03161480610bca5750836001600160a01b0316610bbf84610417565b6001600160a01b0316145b80610bfa57506001600160a01b0380821660009081526006602090815260408083209388168352929052205460ff165b949350505050565b826001600160a01b0316610c1582610640565b6001600160a01b031614610c7d5760405162461bcd60e51b815260206004820152602960248201527f4552433732313a207472616e73666572206f6620746f6b656e2074686174206960448201526839903737ba1037bbb760b91b6064820152608401610365565b6001600160a01b038216610cdf5760405162461bcd60e51b8152602060048201526024808201527f4552433732313a207472616e7366657220746f20746865207a65726f206164646044820152637265737360e01b6064820152608401610365565b610cea600082610a9d565b6001600160a01b0383166000908152600460205260408120805460019290610d139084906115c6565b90915550506001600160a01b0382166000908152600460205260408120805460019290610d4190849061159a565b909155505060008181526003602052604080822080546001600160a01b0319166001600160a01b0386811691821790925591518493918716917fddf252ad1be2c89b69c2b068fc378daa952ba7f163c4a11628f55a4df523b3ef91a4505050565b6000610dad82610640565b9050610dba600083610a9d565b6001600160a01b0381166000908152600460205260408120805460019290610de39084906115c6565b909155505060008281526003602052604080822080546001600160a01b0319169055518391906001600160a01b038416907fddf252ad1be2c89b69c2b068fc378daa952ba7f163c4a11628f55a4df523b3ef908390a45050565b600080546001600160a01b038381166001600160a01b0319831681178455604051919092169283917f8be0079c531659141344cd1fd0a4f28419497f9722a3daafe3b4186f6b6457e09190a35050565b610e98848484610c02565b610ea484848484610fdb565b6109245760405162461bcd60e51b8152600401610365906114c2565b606081610ee557506040805180820190915260018152600360fc1b6020820152610336565b8160005b8115610f0f5780610ef981611644565b9150610f089050600a836115b2565b9150610ee9565b60008167ffffffffffffffff811115610f3857634e487b7160e01b600052604160045260246000fd5b6040519080825280601f01601f191660200182016040528015610f62576020820181803683370190505b5090505b8415610bfa57610f776001836115c6565b9150610f84600a8661165f565b610f8f90603061159a565b60f81b818381518110610fb257634e487b7160e01b600052603260045260246000fd5b60200101906001600160f81b031916908160001a905350610fd4600a866115b2565b9450610f66565b60006001600160a01b0384163b156110dd57604051630a85bd0160e11b81526001600160a01b0385169063150b7a029061101f903390899088908890600401611472565b602060405180830381600087803b15801561103957600080fd5b505af1925050508015611069575060408051601f3d908101601f191682019092526110669181019061138d565b60015b6110c3573d808015611097576040519150601f19603f3d011682016040523d82523d6000602084013e61109c565b606091505b5080516110bb5760405162461bcd60e51b8152600401610365906114c2565b805181602001fd5b6001600160e01b031916630a85bd0160e11b149050610bfa565b506001949350505050565b8280546110f490611609565b90600052602060002090601f016020900481019282611116576000855561115c565b82601f1061112f57805160ff191683800117855561115c565b8280016001018555821561115c579182015b8281111561115c578251825591602001919060010190611141565b5061116892915061116c565b5090565b5b80821115611168576000815560010161116d565b600067ffffffffffffffff8084111561119c5761119c61169f565b604051601f8501601f19908116603f011681019082821181831017156111c4576111c461169f565b816040528093508581528686860111156111dd57600080fd5b858560208301376000602087830101525050509392505050565b80356001600160a01b038116811461033657600080fd5b60006020828403121561121f578081fd5b6109fe826111f7565b6000806040838503121561123a578081fd5b611243836111f7565b9150611251602084016111f7565b90509250929050565b60008060006060848603121561126e578081fd5b611277846111f7565b9250611285602085016111f7565b9150604084013590509250925092565b600080600080608085870312156112aa578081fd5b6112b3856111f7565b93506112c1602086016111f7565b925060408501359150606085013567ffffffffffffffff8111156112e3578182fd5b8501601f810187136112f3578182fd5b61130287823560208401611181565b91505092959194509250565b60008060408385031215611320578182fd5b611329836111f7565b91506020830135801515811461133d578182fd5b809150509250929050565b6000806040838503121561135a578182fd5b611363836111f7565b946020939093013593505050565b600060208284031215611382578081fd5b81356109fe816116b5565b60006020828403121561139e578081fd5b81516109fe816116b5565b6000602082840312156113ba578081fd5b813567ffffffffffffffff8111156113d0578182fd5b8201601f810184136113e0578182fd5b610bfa84823560208401611181565b600060208284031215611400578081fd5b5035919050565b6000815180845261141f8160208601602086016115dd565b601f01601f19169290920160200192915050565b600083516114458184602088016115dd565b8351908301906114598183602088016115dd565b64173539b7b760d91b9101908152600501949350505050565b6001600160a01b03858116825284166020820152604081018390526080606082018190526000906114a590830184611407565b9695505050505050565b6000602082526109fe6020830184611407565b60208082526032908201527f4552433732313a207472616e7366657220746f206e6f6e20455243373231526560408201527131b2b4bb32b91034b6b83632b6b2b73a32b960711b606082015260800190565b6020808252818101527f4f776e61626c653a2063616c6c6572206973206e6f7420746865206f776e6572604082015260600190565b60208082526031908201527f4552433732313a207472616e736665722063616c6c6572206973206e6f74206f6040820152701ddb995c881b9bdc88185c1c1c9bdd9959607a1b606082015260800190565b600082198211156115ad576115ad611673565b500190565b6000826115c1576115c1611689565b500490565b6000828210156115d8576115d8611673565b500390565b60005b838110156115f85781810151838201526020016115e0565b838111156109245750506000910152565b600181811c9082168061161d57607f821691505b6020821081141561163e57634e487b7160e01b600052602260045260246000fd5b50919050565b600060001982141561165857611658611673565b5060010190565b60008261166e5761166e611689565b500690565b634e487b7160e01b600052601160045260246000fd5b634e487b7160e01b600052601260045260246000fd5b634e487b7160e01b600052604160045260246000fd5b6001600160e01b03198116811461063d57600080fdfea26469706673582212207ee9adce922aa3255bddaf6a95941dd1dc2b21b5f91c5f453f3abbf4314fce8364736f6c63430008030033a264697066735822122095906afd15da9191d675b0102a36603e0522018d0dd5a2590bbbf3700dc135af64736f6c63430008030033",
  "devdoc": {
    "kind": "dev",
    "methods": {},
    "version": 1
  },
  "userdoc": {
    "kind": "user",
    "methods": {},
    "version": 1
  },
  "storageLayout": {
    "storage": [],
    "types": null
  }
}