{
  "address": "0x0366660C15aEBcc4132Dd8351Df0137234655201",
  "abi": [
    {
      "inputs": [
        {
          "internalType": "string",
          "name": "_name_",
          "type": "string"
        },
        {
          "internalType": "string",
          "name": "_symbol_",
          "type": "string"
        },
        {
          "internalType": "string",
          "name": "_baseURI_",
          "type": "string"
        }
      ],
      "stateMutability": "nonpayable",
      "type": "constructor"
    },
    {
      "anonymous": false,
      "inputs": [
        {
          "indexed": true,
          "internalType": "address",
          "name": "owner",
          "type": "address"
        },
        {
          "indexed": true,
          "internalType": "address",
          "name": "approved",
          "type": "address"
        },
        {
          "indexed": true,
          "internalType": "uint256",
          "name": "tokenId",
          "type": "uint256"
        }
      ],
      "name": "Approval",
      "type": "event"
    },
    {
      "anonymous": false,
      "inputs": [
        {
          "indexed": true,
          "internalType": "address",
          "name": "owner",
          "type": "address"
        },
        {
          "indexed": true,
          "internalType": "address",
          "name": "operator",
          "type": "address"
        },
        {
          "indexed": false,
          "internalType": "bool",
          "name": "approved",
          "type": "bool"
        }
      ],
      "name": "ApprovalForAll",
      "type": "event"
    },
    {
      "anonymous": false,
      "inputs": [
        {
          "indexed": true,
          "internalType": "address",
          "name": "previousOwner",
          "type": "address"
        },
        {
          "indexed": true,
          "internalType": "address",
          "name": "newOwner",
          "type": "address"
        }
      ],
      "name": "OwnershipTransferred",
      "type": "event"
    },
    {
      "anonymous": false,
      "inputs": [
        {
          "indexed": true,
          "internalType": "address",
          "name": "from",
          "type": "address"
        },
        {
          "indexed": true,
          "internalType": "address",
          "name": "to",
          "type": "address"
        },
        {
          "indexed": true,
          "internalType": "uint256",
          "name": "tokenId",
          "type": "uint256"
        }
      ],
      "name": "Transfer",
      "type": "event"
    },
    {
      "inputs": [
        {
          "internalType": "address",
          "name": "to",
          "type": "address"
        },
        {
          "internalType": "uint256",
          "name": "tokenId",
          "type": "uint256"
        }
      ],
      "name": "approve",
      "outputs": [],
      "stateMutability": "nonpayable",
      "type": "function"
    },
    {
      "inputs": [
        {
          "internalType": "address",
          "name": "owner",
          "type": "address"
        }
      ],
      "name": "balanceOf",
      "outputs": [
        {
          "internalType": "uint256",
          "name": "",
          "type": "uint256"
        }
      ],
      "stateMutability": "view",
      "type": "function"
    },
    {
      "inputs": [],
      "name": "baseURI",
      "outputs": [
        {
          "internalType": "string",
          "name": "",
          "type": "string"
        }
      ],
      "stateMutability": "view",
      "type": "function"
    },
    {
      "inputs": [
        {
          "internalType": "address",
          "name": "account",
          "type": "address"
        },
        {
          "internalType": "uint256",
          "name": "nftCount",
          "type": "uint256"
        }
      ],
      "name": "batchMint",
      "outputs": [],
      "stateMutability": "nonpayable",
      "type": "function"
    },
    {
      "inputs": [
        {
          "internalType": "uint256",
          "name": "tokenId",
          "type": "uint256"
        }
      ],
      "name": "burn",
      "outputs": [],
      "stateMutability": "nonpayable",
      "type": "function"
    },
    {
      "inputs": [
        {
          "internalType": "uint256",
          "name": "tokenId",
          "type": "uint256"
        }
      ],
      "name": "getApproved",
      "outputs": [
        {
          "internalType": "address",
          "name": "",
          "type": "address"
        }
      ],
      "stateMutability": "view",
      "type": "function"
    },
    {
      "inputs": [
        {
          "internalType": "address",
          "name": "owner",
          "type": "address"
        },
        {
          "internalType": "address",
          "name": "operator",
          "type": "address"
        }
      ],
      "name": "isApprovedForAll",
      "outputs": [
        {
          "internalType": "bool",
          "name": "",
          "type": "bool"
        }
      ],
      "stateMutability": "view",
      "type": "function"
    },
    {
      "inputs": [
        {
          "internalType": "address",
          "name": "account",
          "type": "address"
        },
        {
          "internalType": "uint256",
          "name": "id",
          "type": "uint256"
        }
      ],
      "name": "mint",
      "outputs": [],
      "stateMutability": "nonpayable",
      "type": "function"
    },
    {
      "inputs": [],
      "name": "name",
      "outputs": [
        {
          "internalType": "string",
          "name": "",
          "type": "string"
        }
      ],
      "stateMutability": "view",
      "type": "function"
    },
    {
      "inputs": [],
      "name": "owner",
      "outputs": [
        {
          "internalType": "address",
          "name": "",
          "type": "address"
        }
      ],
      "stateMutability": "view",
      "type": "function"
    },
    {
      "inputs": [
        {
          "internalType": "uint256",
          "name": "tokenId",
          "type": "uint256"
        }
      ],
      "name": "ownerOf",
      "outputs": [
        {
          "internalType": "address",
          "name": "",
          "type": "address"
        }
      ],
      "stateMutability": "view",
      "type": "function"
    },
    {
      "inputs": [],
      "name": "renounceOwnership",
      "outputs": [],
      "stateMutability": "nonpayable",
      "type": "function"
    },
    {
      "inputs": [
        {
          "internalType": "address",
          "name": "from",
          "type": "address"
        },
        {
          "internalType": "address",
          "name": "to",
          "type": "address"
        },
        {
          "internalType": "uint256",
          "name": "tokenId",
          "type": "uint256"
        }
      ],
      "name": "safeTransferFrom",
      "outputs": [],
      "stateMutability": "nonpayable",
      "type": "function"
    },
    {
      "inputs": [
        {
          "internalType": "address",
          "name": "from",
          "type": "address"
        },
        {
          "internalType": "address",
          "name": "to",
          "type": "address"
        },
        {
          "internalType": "uint256",
          "name": "tokenId",
          "type": "uint256"
        },
        {
          "internalType": "bytes",
          "name": "_data",
          "type": "bytes"
        }
      ],
      "name": "safeTransferFrom",
      "outputs": [],
      "stateMutability": "nonpayable",
      "type": "function"
    },
    {
      "inputs": [
        {
          "internalType": "address",
          "name": "operator",
          "type": "address"
        },
        {
          "internalType": "bool",
          "name": "approved",
          "type": "bool"
        }
      ],
      "name": "setApprovalForAll",
      "outputs": [],
      "stateMutability": "nonpayable",
      "type": "function"
    },
    {
      "inputs": [
        {
          "internalType": "string",
          "name": "newURI",
          "type": "string"
        }
      ],
      "name": "setURI",
      "outputs": [],
      "stateMutability": "nonpayable",
      "type": "function"
    },
    {
      "inputs": [
        {
          "internalType": "bytes4",
          "name": "interfaceId",
          "type": "bytes4"
        }
      ],
      "name": "supportsInterface",
      "outputs": [
        {
          "internalType": "bool",
          "name": "",
          "type": "bool"
        }
      ],
      "stateMutability": "view",
      "type": "function"
    },
    {
      "inputs": [],
      "name": "symbol",
      "outputs": [
        {
          "internalType": "string",
          "name": "",
          "type": "string"
        }
      ],
      "stateMutability": "view",
      "type": "function"
    },
    {
      "inputs": [],
      "name": "theBaseURI",
      "outputs": [
        {
          "internalType": "string",
          "name": "",
          "type": "string"
        }
      ],
      "stateMutability": "view",
      "type": "function"
    },
    {
      "inputs": [
        {
          "internalType": "uint256",
          "name": "tokenId",
          "type": "uint256"
        }
      ],
      "name": "tokenURI",
      "outputs": [
        {
          "internalType": "string",
          "name": "",
          "type": "string"
        }
      ],
      "stateMutability": "view",
      "type": "function"
    },
    {
      "inputs": [
        {
          "internalType": "address",
          "name": "from",
          "type": "address"
        },
        {
          "internalType": "address",
          "name": "to",
          "type": "address"
        },
        {
          "internalType": "uint256",
          "name": "tokenId",
          "type": "uint256"
        }
      ],
      "name": "transferFrom",
      "outputs": [],
      "stateMutability": "nonpayable",
      "type": "function"
    },
    {
      "inputs": [
        {
          "internalType": "address",
          "name": "newOwner",
          "type": "address"
        }
      ],
      "name": "transferOwnership",
      "outputs": [],
      "stateMutability": "nonpayable",
      "type": "function"
    }
  ],
  "transactionHash": "0x7f9d08c895380be54dd6563cae202abb826be0c989e7c15adc88dc5cc146413e",
  "args": [
    "Bonda Second NFT Collection",
    "BSNC",
    "https://ipfs.io/ipfs/QmX4z6XnqLoi8EW5WcvemaoJ3R985CvWoe6fC8kNfFAgND/"
  ],
  "solcInputHash": "747834753279fb2e57b55005fb093be7",
  "bytecode": "0x60806040523480156200001157600080fd5b5060405162001c2b38038062001c2b833981016040819052620000349162000237565b828262000041336200008e565b815162000056906001906020850190620000de565b5080516200006c906002906020840190620000de565b505081516200008491506007906020840190620000de565b5050505062000317565b600080546001600160a01b038381166001600160a01b0319831681178455604051919092169283917f8be0079c531659141344cd1fd0a4f28419497f9722a3daafe3b4186f6b6457e09190a35050565b828054620000ec90620002c4565b90600052602060002090601f0160209004810192826200011057600085556200015b565b82601f106200012b57805160ff19168380011785556200015b565b828001600101855582156200015b579182015b828111156200015b5782518255916020019190600101906200013e565b50620001699291506200016d565b5090565b5b808211156200016957600081556001016200016e565b600082601f83011262000195578081fd5b81516001600160401b0380821115620001b257620001b262000301565b604051601f8301601f19908116603f01168101908282118183101715620001dd57620001dd62000301565b81604052838152602092508683858801011115620001f9578485fd5b8491505b838210156200021c5785820183015181830184015290820190620001fd565b838211156200022d57848385830101525b9695505050505050565b6000806000606084860312156200024c578283fd5b83516001600160401b038082111562000263578485fd5b620002718783880162000184565b9450602086015191508082111562000287578384fd5b620002958783880162000184565b93506040860151915080821115620002ab578283fd5b50620002ba8682870162000184565b9150509250925092565b600181811c90821680620002d957607f821691505b60208210811415620002fb57634e487b7160e01b600052602260045260246000fd5b50919050565b634e487b7160e01b600052604160045260246000fd5b61190480620003276000396000f3fe608060405234801561001057600080fd5b50600436106101425760003560e01c80636c0360eb116100b857806395d89b411161007c57806395d89b4114610293578063a22cb4651461029b578063b88d4fde146102ae578063c87b56dd146102c1578063e985e9c5146102d4578063f2fde38b1461031057610142565b80636c0360eb1461024957806370a0823114610251578063715018a61461027257806377eebbdb1461027a5780638da5cb5b1461028257610142565b806323b872dd1161010a57806323b872dd146101d757806340c10f19146101ea57806342842e0e146101fd57806342966c681461021057806343508b05146102235780636352211e1461023657610142565b806301ffc9a71461014757806302fe53051461016f57806306fdde0314610184578063081812fc14610199578063095ea7b3146101c4575b600080fd5b61015a610155366004611574565b610323565b60405190151581526020015b60405180910390f35b61018261017d3660046115ac565b610377565b005b61018c6103c1565b60405161016691906116b2565b6101ac6101a73660046115f2565b610453565b6040516001600160a01b039091168152602001610166565b6101826101d236600461154b565b6104e8565b6101826101e536600461145d565b6105fe565b6101826101f836600461154b565b610630565b61018261020b36600461145d565b610664565b61018261021e3660046115f2565b61067f565b61018261023136600461154b565b6106b0565b6101ac6102443660046115f2565b610701565b61018c610778565b61026461025f366004611411565b610787565b604051908152602001610166565b61018261080e565b61018c610844565b6000546001600160a01b03166101ac565b61018c6108d2565b6101826102a9366004611511565b6108e1565b6101826102bc366004611498565b6109b3565b61018c6102cf3660046115f2565b6109eb565b61015a6102e236600461142b565b6001600160a01b03918216600090815260066020908152604080832093909416825291909152205460ff1690565b61018261031e366004611411565b610ac6565b60006001600160e01b031982166380ac58cd60e01b148061035457506001600160e01b03198216635b5e139f60e01b145b8061036f57506301ffc9a760e01b6001600160e01b03198316145b90505b919050565b6000546001600160a01b031633146103aa5760405162461bcd60e51b81526004016103a190611717565b60405180910390fd5b80516103bd9060079060208401906112eb565b5050565b6060600180546103d09061180c565b80601f01602080910402602001604051908101604052809291908181526020018280546103fc9061180c565b80156104495780601f1061041e57610100808354040283529160200191610449565b820191906000526020600020905b81548152906001019060200180831161042c57829003601f168201915b5050505050905090565b6000818152600360205260408120546001600160a01b03166104cc5760405162461bcd60e51b815260206004820152602c60248201527f4552433732313a20617070726f76656420717565727920666f72206e6f6e657860448201526b34b9ba32b73a103a37b5b2b760a11b60648201526084016103a1565b506000908152600560205260409020546001600160a01b031690565b60006104f382610701565b9050806001600160a01b0316836001600160a01b031614156105615760405162461bcd60e51b815260206004820152602160248201527f4552433732313a20617070726f76616c20746f2063757272656e74206f776e656044820152603960f91b60648201526084016103a1565b336001600160a01b038216148061057d575061057d81336102e2565b6105ef5760405162461bcd60e51b815260206004820152603860248201527f4552433732313a20617070726f76652063616c6c6572206973206e6f74206f7760448201527f6e6572206e6f7220617070726f76656420666f7220616c6c000000000000000060648201526084016103a1565b6105f98383610b5e565b505050565b610609335b82610bcc565b6106255760405162461bcd60e51b81526004016103a19061174c565b6105f9838383610cc3565b6000546001600160a01b0316331461065a5760405162461bcd60e51b81526004016103a190611717565b6103bd8282610e63565b6105f9838383604051806020016040528060008152506109b3565b61068833610603565b6106a45760405162461bcd60e51b81526004016103a19061174c565b6106ad81610fa5565b50565b6000546001600160a01b031633146106da5760405162461bcd60e51b81526004016103a190611717565b60015b818110156105f9576106ef8382610e63565b806106f981611847565b9150506106dd565b6000818152600360205260408120546001600160a01b03168061036f5760405162461bcd60e51b815260206004820152602960248201527f4552433732313a206f776e657220717565727920666f72206e6f6e657869737460448201526832b73a103a37b5b2b760b91b60648201526084016103a1565b6060600780546103d09061180c565b60006001600160a01b0382166107f25760405162461bcd60e51b815260206004820152602a60248201527f4552433732313a2062616c616e636520717565727920666f7220746865207a65604482015269726f206164647265737360b01b60648201526084016103a1565b506001600160a01b031660009081526004602052604090205490565b6000546001600160a01b031633146108385760405162461bcd60e51b81526004016103a190611717565b6108426000611040565b565b600780546108519061180c565b80601f016020809104026020016040519081016040528092919081815260200182805461087d9061180c565b80156108ca5780601f1061089f576101008083540402835291602001916108ca565b820191906000526020600020905b8154815290600101906020018083116108ad57829003601f168201915b505050505081565b6060600280546103d09061180c565b6001600160a01b03821633141561093a5760405162461bcd60e51b815260206004820152601960248201527f4552433732313a20617070726f766520746f2063616c6c65720000000000000060448201526064016103a1565b3360008181526006602090815260408083206001600160a01b0387168085529252909120805460ff1916841515179055906001600160a01b03167f17307eab39ab6107e8899845ad3d59bd9653f200f220920489ca2b5937696c31836040516109a7911515815260200190565b60405180910390a35050565b6109bd3383610bcc565b6109d95760405162461bcd60e51b81526004016103a19061174c565b6109e584848484611090565b50505050565b6000818152600360205260409020546060906001600160a01b0316610a6a5760405162461bcd60e51b815260206004820152602f60248201527f4552433732314d657461646174613a2055524920717565727920666f72206e6f60448201526e3732bc34b9ba32b73a103a37b5b2b760891b60648201526084016103a1565b6000610a74610778565b90506000815111610a945760405180602001604052806000815250610abf565b80610a9e846110c3565b604051602001610aaf929190611636565b6040516020818303038152906040525b9392505050565b6000546001600160a01b03163314610af05760405162461bcd60e51b81526004016103a190611717565b6001600160a01b038116610b555760405162461bcd60e51b815260206004820152602660248201527f4f776e61626c653a206e6577206f776e657220697320746865207a65726f206160448201526564647265737360d01b60648201526084016103a1565b6106ad81611040565b600081815260056020526040902080546001600160a01b0319166001600160a01b0384169081179091558190610b9382610701565b6001600160a01b03167f8c5be1e5ebec7d5bd14f71427d1e84f3dd0314c0f7b2291e5b200ac8c7c3b92560405160405180910390a45050565b6000818152600360205260408120546001600160a01b0316610c455760405162461bcd60e51b815260206004820152602c60248201527f4552433732313a206f70657261746f7220717565727920666f72206e6f6e657860448201526b34b9ba32b73a103a37b5b2b760a11b60648201526084016103a1565b6000610c5083610701565b9050806001600160a01b0316846001600160a01b03161480610c8b5750836001600160a01b0316610c8084610453565b6001600160a01b0316145b80610cbb57506001600160a01b0380821660009081526006602090815260408083209388168352929052205460ff165b949350505050565b826001600160a01b0316610cd682610701565b6001600160a01b031614610d3e5760405162461bcd60e51b815260206004820152602960248201527f4552433732313a207472616e73666572206f6620746f6b656e2074686174206960448201526839903737ba1037bbb760b91b60648201526084016103a1565b6001600160a01b038216610da05760405162461bcd60e51b8152602060048201526024808201527f4552433732313a207472616e7366657220746f20746865207a65726f206164646044820152637265737360e01b60648201526084016103a1565b610dab600082610b5e565b6001600160a01b0383166000908152600460205260408120805460019290610dd49084906117c9565b90915550506001600160a01b0382166000908152600460205260408120805460019290610e0290849061179d565b909155505060008181526003602052604080822080546001600160a01b0319166001600160a01b0386811691821790925591518493918716917fddf252ad1be2c89b69c2b068fc378daa952ba7f163c4a11628f55a4df523b3ef91a4505050565b6001600160a01b038216610eb95760405162461bcd60e51b815260206004820181905260248201527f4552433732313a206d696e7420746f20746865207a65726f206164647265737360448201526064016103a1565b6000818152600360205260409020546001600160a01b031615610f1e5760405162461bcd60e51b815260206004820152601c60248201527f4552433732313a20746f6b656e20616c7265616479206d696e7465640000000060448201526064016103a1565b6001600160a01b0382166000908152600460205260408120805460019290610f4790849061179d565b909155505060008181526003602052604080822080546001600160a01b0319166001600160a01b03861690811790915590518392907fddf252ad1be2c89b69c2b068fc378daa952ba7f163c4a11628f55a4df523b3ef908290a45050565b6000610fb082610701565b9050610fbd600083610b5e565b6001600160a01b0381166000908152600460205260408120805460019290610fe69084906117c9565b909155505060008281526003602052604080822080546001600160a01b0319169055518391906001600160a01b038416907fddf252ad1be2c89b69c2b068fc378daa952ba7f163c4a11628f55a4df523b3ef908390a45050565b600080546001600160a01b038381166001600160a01b0319831681178455604051919092169283917f8be0079c531659141344cd1fd0a4f28419497f9722a3daafe3b4186f6b6457e09190a35050565b61109b848484610cc3565b6110a7848484846111de565b6109e55760405162461bcd60e51b81526004016103a1906116c5565b6060816110e857506040805180820190915260018152600360fc1b6020820152610372565b8160005b811561111257806110fc81611847565b915061110b9050600a836117b5565b91506110ec565b60008167ffffffffffffffff81111561113b57634e487b7160e01b600052604160045260246000fd5b6040519080825280601f01601f191660200182016040528015611165576020820181803683370190505b5090505b8415610cbb5761117a6001836117c9565b9150611187600a86611862565b61119290603061179d565b60f81b8183815181106111b557634e487b7160e01b600052603260045260246000fd5b60200101906001600160f81b031916908160001a9053506111d7600a866117b5565b9450611169565b60006001600160a01b0384163b156112e057604051630a85bd0160e11b81526001600160a01b0385169063150b7a0290611222903390899088908890600401611675565b602060405180830381600087803b15801561123c57600080fd5b505af192505050801561126c575060408051601f3d908101601f1916820190925261126991810190611590565b60015b6112c6573d80801561129a576040519150601f19603f3d011682016040523d82523d6000602084013e61129f565b606091505b5080516112be5760405162461bcd60e51b81526004016103a1906116c5565b805181602001fd5b6001600160e01b031916630a85bd0160e11b149050610cbb565b506001949350505050565b8280546112f79061180c565b90600052602060002090601f016020900481019282611319576000855561135f565b82601f1061133257805160ff191683800117855561135f565b8280016001018555821561135f579182015b8281111561135f578251825591602001919060010190611344565b5061136b92915061136f565b5090565b5b8082111561136b5760008155600101611370565b600067ffffffffffffffff8084111561139f5761139f6118a2565b604051601f8501601f19908116603f011681019082821181831017156113c7576113c76118a2565b816040528093508581528686860111156113e057600080fd5b858560208301376000602087830101525050509392505050565b80356001600160a01b038116811461037257600080fd5b600060208284031215611422578081fd5b610abf826113fa565b6000806040838503121561143d578081fd5b611446836113fa565b9150611454602084016113fa565b90509250929050565b600080600060608486031215611471578081fd5b61147a846113fa565b9250611488602085016113fa565b9150604084013590509250925092565b600080600080608085870312156114ad578081fd5b6114b6856113fa565b93506114c4602086016113fa565b925060408501359150606085013567ffffffffffffffff8111156114e6578182fd5b8501601f810187136114f6578182fd5b61150587823560208401611384565b91505092959194509250565b60008060408385031215611523578182fd5b61152c836113fa565b915060208301358015158114611540578182fd5b809150509250929050565b6000806040838503121561155d578182fd5b611566836113fa565b946020939093013593505050565b600060208284031215611585578081fd5b8135610abf816118b8565b6000602082840312156115a1578081fd5b8151610abf816118b8565b6000602082840312156115bd578081fd5b813567ffffffffffffffff8111156115d3578182fd5b8201601f810184136115e3578182fd5b610cbb84823560208401611384565b600060208284031215611603578081fd5b5035919050565b600081518084526116228160208601602086016117e0565b601f01601f19169290920160200192915050565b600083516116488184602088016117e0565b83519083019061165c8183602088016117e0565b64173539b7b760d91b9101908152600501949350505050565b6001600160a01b03858116825284166020820152604081018390526080606082018190526000906116a89083018461160a565b9695505050505050565b600060208252610abf602083018461160a565b60208082526032908201527f4552433732313a207472616e7366657220746f206e6f6e20455243373231526560408201527131b2b4bb32b91034b6b83632b6b2b73a32b960711b606082015260800190565b6020808252818101527f4f776e61626c653a2063616c6c6572206973206e6f7420746865206f776e6572604082015260600190565b60208082526031908201527f4552433732313a207472616e736665722063616c6c6572206973206e6f74206f6040820152701ddb995c881b9bdc88185c1c1c9bdd9959607a1b606082015260800190565b600082198211156117b0576117b0611876565b500190565b6000826117c4576117c461188c565b500490565b6000828210156117db576117db611876565b500390565b60005b838110156117fb5781810151838201526020016117e3565b838111156109e55750506000910152565b600181811c9082168061182057607f821691505b6020821081141561184157634e487b7160e01b600052602260045260246000fd5b50919050565b600060001982141561185b5761185b611876565b5060010190565b6000826118715761187161188c565b500690565b634e487b7160e01b600052601160045260246000fd5b634e487b7160e01b600052601260045260246000fd5b634e487b7160e01b600052604160045260246000fd5b6001600160e01b0319811681146106ad57600080fdfea26469706673582212202b999c30dd90f6b4cbb8cf60effbefa369c8ba797a9bd5c647ff4d61accb426664736f6c63430008030033",
  "devdoc": {
    "kind": "dev",
    "methods": {
      "approve(address,uint256)": {
        "details": "See {IERC721-approve}."
      },
      "balanceOf(address)": {
        "details": "See {IERC721-balanceOf}."
      },
      "getApproved(uint256)": {
        "details": "See {IERC721-getApproved}."
      },
      "isApprovedForAll(address,address)": {
        "details": "See {IERC721-isApprovedForAll}."
      },
      "name()": {
        "details": "See {IERC721Metadata-name}."
      },
      "owner()": {
        "details": "Returns the address of the current owner."
      },
      "ownerOf(uint256)": {
        "details": "See {IERC721-ownerOf}."
      },
      "renounceOwnership()": {
        "details": "Leaves the contract without owner. It will not be possible to call `onlyOwner` functions anymore. Can only be called by the current owner. NOTE: Renouncing ownership will leave the contract without an owner, thereby removing any functionality that is only available to the owner."
      },
      "safeTransferFrom(address,address,uint256)": {
        "details": "See {IERC721-safeTransferFrom}."
      },
      "safeTransferFrom(address,address,uint256,bytes)": {
        "details": "See {IERC721-safeTransferFrom}."
      },
      "setApprovalForAll(address,bool)": {
        "details": "See {IERC721-setApprovalForAll}."
      },
      "supportsInterface(bytes4)": {
        "details": "See {IERC165-supportsInterface}."
      },
      "symbol()": {
        "details": "See {IERC721Metadata-symbol}."
      },
      "tokenURI(uint256)": {
        "details": "See {IERC721Metadata-tokenURI}."
      },
      "transferFrom(address,address,uint256)": {
        "details": "See {IERC721-transferFrom}."
      },
      "transferOwnership(address)": {
        "details": "Transfers ownership of the contract to a new account (`newOwner`). Can only be called by the current owner."
      }
    },
    "version": 1
  },
  "userdoc": {
    "kind": "user",
    "methods": {},
    "version": 1
  },
  "storageLayout": {
    "storage": [
      {
        "astId": 7,
        "contract": "contracts/NFT/NFTCollectionWithBaseURI.sol:NFTCollectionWithBaseURI",
        "label": "_owner",
        "offset": 0,
        "slot": "0",
        "type": "t_address"
      },
      {
        "astId": 778,
        "contract": "contracts/NFT/NFTCollectionWithBaseURI.sol:NFTCollectionWithBaseURI",
        "label": "_name",
        "offset": 0,
        "slot": "1",
        "type": "t_string_storage"
      },
      {
        "astId": 780,
        "contract": "contracts/NFT/NFTCollectionWithBaseURI.sol:NFTCollectionWithBaseURI",
        "label": "_symbol",
        "offset": 0,
        "slot": "2",
        "type": "t_string_storage"
      },
      {
        "astId": 784,
        "contract": "contracts/NFT/NFTCollectionWithBaseURI.sol:NFTCollectionWithBaseURI",
        "label": "_owners",
        "offset": 0,
        "slot": "3",
        "type": "t_mapping(t_uint256,t_address)"
      },
      {
        "astId": 788,
        "contract": "contracts/NFT/NFTCollectionWithBaseURI.sol:NFTCollectionWithBaseURI",
        "label": "_balances",
        "offset": 0,
        "slot": "4",
        "type": "t_mapping(t_address,t_uint256)"
      },
      {
        "astId": 792,
        "contract": "contracts/NFT/NFTCollectionWithBaseURI.sol:NFTCollectionWithBaseURI",
        "label": "_tokenApprovals",
        "offset": 0,
        "slot": "5",
        "type": "t_mapping(t_uint256,t_address)"
      },
      {
        "astId": 798,
        "contract": "contracts/NFT/NFTCollectionWithBaseURI.sol:NFTCollectionWithBaseURI",
        "label": "_operatorApprovals",
        "offset": 0,
        "slot": "6",
        "type": "t_mapping(t_address,t_mapping(t_address,t_bool))"
      },
      {
        "astId": 2615,
        "contract": "contracts/NFT/NFTCollectionWithBaseURI.sol:NFTCollectionWithBaseURI",
        "label": "theBaseURI",
        "offset": 0,
        "slot": "7",
        "type": "t_string_storage"
      }
    ],
    "types": {
      "t_address": {
        "encoding": "inplace",
        "label": "address",
        "numberOfBytes": "20"
      },
      "t_bool": {
        "encoding": "inplace",
        "label": "bool",
        "numberOfBytes": "1"
      },
      "t_mapping(t_address,t_bool)": {
        "encoding": "mapping",
        "key": "t_address",
        "label": "mapping(address => bool)",
        "numberOfBytes": "32",
        "value": "t_bool"
      },
      "t_mapping(t_address,t_mapping(t_address,t_bool))": {
        "encoding": "mapping",
        "key": "t_address",
        "label": "mapping(address => mapping(address => bool))",
        "numberOfBytes": "32",
        "value": "t_mapping(t_address,t_bool)"
      },
      "t_mapping(t_address,t_uint256)": {
        "encoding": "mapping",
        "key": "t_address",
        "label": "mapping(address => uint256)",
        "numberOfBytes": "32",
        "value": "t_uint256"
      },
      "t_mapping(t_uint256,t_address)": {
        "encoding": "mapping",
        "key": "t_uint256",
        "label": "mapping(uint256 => address)",
        "numberOfBytes": "32",
        "value": "t_address"
      },
      "t_string_storage": {
        "encoding": "bytes",
        "label": "string",
        "numberOfBytes": "32"
      },
      "t_uint256": {
        "encoding": "inplace",
        "label": "uint256",
        "numberOfBytes": "32"
      }
    }
  }
}