{
  "address": "0x38637ea2024A5448882e4f2a53Cf77a421718a42",
  "abi": [
    {
      "inputs": [
        {
          "internalType": "string",
          "name": "_name",
          "type": "string"
        },
        {
          "internalType": "string",
          "name": "_symbol",
          "type": "string"
        }
      ],
      "stateMutability": "nonpayable",
      "type": "constructor"
    },
    {
      "anonymous": false,
      "inputs": [
        {
          "indexed": true,
          "internalType": "address",
          "name": "owner",
          "type": "address"
        },
        {
          "indexed": true,
          "internalType": "address",
          "name": "approved",
          "type": "address"
        },
        {
          "indexed": true,
          "internalType": "uint256",
          "name": "tokenId",
          "type": "uint256"
        }
      ],
      "name": "Approval",
      "type": "event"
    },
    {
      "anonymous": false,
      "inputs": [
        {
          "indexed": true,
          "internalType": "address",
          "name": "owner",
          "type": "address"
        },
        {
          "indexed": true,
          "internalType": "address",
          "name": "operator",
          "type": "address"
        },
        {
          "indexed": false,
          "internalType": "bool",
          "name": "approved",
          "type": "bool"
        }
      ],
      "name": "ApprovalForAll",
      "type": "event"
    },
    {
      "anonymous": false,
      "inputs": [
        {
          "indexed": true,
          "internalType": "address",
          "name": "account",
          "type": "address"
        }
      ],
      "name": "OperatorAdded",
      "type": "event"
    },
    {
      "anonymous": false,
      "inputs": [
        {
          "indexed": true,
          "internalType": "address",
          "name": "account",
          "type": "address"
        }
      ],
      "name": "OperatorRemoved",
      "type": "event"
    },
    {
      "anonymous": false,
      "inputs": [
        {
          "indexed": true,
          "internalType": "address",
          "name": "previousOwner",
          "type": "address"
        },
        {
          "indexed": true,
          "internalType": "address",
          "name": "newOwner",
          "type": "address"
        }
      ],
      "name": "OwnershipTransferred",
      "type": "event"
    },
    {
      "anonymous": false,
      "inputs": [
        {
          "indexed": true,
          "internalType": "address",
          "name": "from",
          "type": "address"
        },
        {
          "indexed": true,
          "internalType": "address",
          "name": "to",
          "type": "address"
        },
        {
          "indexed": true,
          "internalType": "uint256",
          "name": "tokenId",
          "type": "uint256"
        }
      ],
      "name": "Transfer",
      "type": "event"
    },
    {
      "inputs": [
        {
          "internalType": "address",
          "name": "account",
          "type": "address"
        }
      ],
      "name": "addOperator",
      "outputs": [],
      "stateMutability": "nonpayable",
      "type": "function"
    },
    {
      "inputs": [
        {
          "internalType": "address",
          "name": "to",
          "type": "address"
        },
        {
          "internalType": "uint256",
          "name": "tokenId",
          "type": "uint256"
        }
      ],
      "name": "approve",
      "outputs": [],
      "stateMutability": "nonpayable",
      "type": "function"
    },
    {
      "inputs": [
        {
          "internalType": "address",
          "name": "owner",
          "type": "address"
        }
      ],
      "name": "balanceOf",
      "outputs": [
        {
          "internalType": "uint256",
          "name": "",
          "type": "uint256"
        }
      ],
      "stateMutability": "view",
      "type": "function"
    },
    {
      "inputs": [],
      "name": "baseURI",
      "outputs": [
        {
          "internalType": "string",
          "name": "",
          "type": "string"
        }
      ],
      "stateMutability": "view",
      "type": "function"
    },
    {
      "inputs": [
        {
          "internalType": "uint256",
          "name": "tokenId",
          "type": "uint256"
        }
      ],
      "name": "getApproved",
      "outputs": [
        {
          "internalType": "address",
          "name": "",
          "type": "address"
        }
      ],
      "stateMutability": "view",
      "type": "function"
    },
    {
      "inputs": [
        {
          "internalType": "address",
          "name": "owner",
          "type": "address"
        },
        {
          "internalType": "address",
          "name": "operator",
          "type": "address"
        }
      ],
      "name": "isApprovedForAll",
      "outputs": [
        {
          "internalType": "bool",
          "name": "",
          "type": "bool"
        }
      ],
      "stateMutability": "view",
      "type": "function"
    },
    {
      "inputs": [
        {
          "internalType": "address",
          "name": "account",
          "type": "address"
        }
      ],
      "name": "isOperator",
      "outputs": [
        {
          "internalType": "bool",
          "name": "",
          "type": "bool"
        }
      ],
      "stateMutability": "view",
      "type": "function"
    },
    {
      "inputs": [
        {
          "internalType": "address",
          "name": "caller",
          "type": "address"
        },
        {
          "internalType": "string",
          "name": "tokenURI",
          "type": "string"
        }
      ],
      "name": "mintToCaller",
      "outputs": [
        {
          "internalType": "uint256",
          "name": "",
          "type": "uint256"
        }
      ],
      "stateMutability": "nonpayable",
      "type": "function"
    },
    {
      "inputs": [],
      "name": "name",
      "outputs": [
        {
          "internalType": "string",
          "name": "",
          "type": "string"
        }
      ],
      "stateMutability": "view",
      "type": "function"
    },
    {
      "inputs": [],
      "name": "owner",
      "outputs": [
        {
          "internalType": "address",
          "name": "",
          "type": "address"
        }
      ],
      "stateMutability": "view",
      "type": "function"
    },
    {
      "inputs": [
        {
          "internalType": "uint256",
          "name": "tokenId",
          "type": "uint256"
        }
      ],
      "name": "ownerOf",
      "outputs": [
        {
          "internalType": "address",
          "name": "",
          "type": "address"
        }
      ],
      "stateMutability": "view",
      "type": "function"
    },
    {
      "inputs": [
        {
          "internalType": "address",
          "name": "account",
          "type": "address"
        }
      ],
      "name": "removeOperator",
      "outputs": [],
      "stateMutability": "nonpayable",
      "type": "function"
    },
    {
      "inputs": [],
      "name": "renounceOperator",
      "outputs": [],
      "stateMutability": "nonpayable",
      "type": "function"
    },
    {
      "inputs": [],
      "name": "renounceOwnership",
      "outputs": [],
      "stateMutability": "nonpayable",
      "type": "function"
    },
    {
      "inputs": [
        {
          "internalType": "address",
          "name": "from",
          "type": "address"
        },
        {
          "internalType": "address",
          "name": "to",
          "type": "address"
        },
        {
          "internalType": "uint256",
          "name": "tokenId",
          "type": "uint256"
        }
      ],
      "name": "safeTransferFrom",
      "outputs": [],
      "stateMutability": "nonpayable",
      "type": "function"
    },
    {
      "inputs": [
        {
          "internalType": "address",
          "name": "from",
          "type": "address"
        },
        {
          "internalType": "address",
          "name": "to",
          "type": "address"
        },
        {
          "internalType": "uint256",
          "name": "tokenId",
          "type": "uint256"
        },
        {
          "internalType": "bytes",
          "name": "_data",
          "type": "bytes"
        }
      ],
      "name": "safeTransferFrom",
      "outputs": [],
      "stateMutability": "nonpayable",
      "type": "function"
    },
    {
      "inputs": [
        {
          "internalType": "address",
          "name": "operator",
          "type": "address"
        },
        {
          "internalType": "bool",
          "name": "approved",
          "type": "bool"
        }
      ],
      "name": "setApprovalForAll",
      "outputs": [],
      "stateMutability": "nonpayable",
      "type": "function"
    },
    {
      "inputs": [
        {
          "internalType": "bytes4",
          "name": "interfaceId",
          "type": "bytes4"
        }
      ],
      "name": "supportsInterface",
      "outputs": [
        {
          "internalType": "bool",
          "name": "",
          "type": "bool"
        }
      ],
      "stateMutability": "view",
      "type": "function"
    },
    {
      "inputs": [],
      "name": "symbol",
      "outputs": [
        {
          "internalType": "string",
          "name": "",
          "type": "string"
        }
      ],
      "stateMutability": "view",
      "type": "function"
    },
    {
      "inputs": [
        {
          "internalType": "uint256",
          "name": "index",
          "type": "uint256"
        }
      ],
      "name": "tokenByIndex",
      "outputs": [
        {
          "internalType": "uint256",
          "name": "",
          "type": "uint256"
        }
      ],
      "stateMutability": "view",
      "type": "function"
    },
    {
      "inputs": [
        {
          "internalType": "address",
          "name": "owner",
          "type": "address"
        },
        {
          "internalType": "uint256",
          "name": "index",
          "type": "uint256"
        }
      ],
      "name": "tokenOfOwnerByIndex",
      "outputs": [
        {
          "internalType": "uint256",
          "name": "",
          "type": "uint256"
        }
      ],
      "stateMutability": "view",
      "type": "function"
    },
    {
      "inputs": [
        {
          "internalType": "uint256",
          "name": "tokenId",
          "type": "uint256"
        }
      ],
      "name": "tokenURI",
      "outputs": [
        {
          "internalType": "string",
          "name": "",
          "type": "string"
        }
      ],
      "stateMutability": "view",
      "type": "function"
    },
    {
      "inputs": [],
      "name": "totalSupply",
      "outputs": [
        {
          "internalType": "uint256",
          "name": "",
          "type": "uint256"
        }
      ],
      "stateMutability": "view",
      "type": "function"
    },
    {
      "inputs": [
        {
          "internalType": "address",
          "name": "from",
          "type": "address"
        },
        {
          "internalType": "address",
          "name": "to",
          "type": "address"
        },
        {
          "internalType": "uint256",
          "name": "tokenId",
          "type": "uint256"
        }
      ],
      "name": "transferFrom",
      "outputs": [],
      "stateMutability": "nonpayable",
      "type": "function"
    },
    {
      "inputs": [
        {
          "internalType": "address",
          "name": "newOwner",
          "type": "address"
        }
      ],
      "name": "transferOwnership",
      "outputs": [],
      "stateMutability": "nonpayable",
      "type": "function"
    }
  ],
  "transactionHash": "0x59f24b6a763ace0014786e92082f52004e7980f6b3c8d0701b11fec3d9fe04d2",
  "args": [
    "Totem Normal NFT",
    "TNnft"
  ],
  "solcInputHash": "ecb798472469933a1be5b88c7b59105c",
  "bytecode": "0x60806040523480156200001157600080fd5b50604051620028f8380380620028f8833981810160405260408110156200003757600080fd5b81019080805160405193929190846401000000008211156200005857600080fd5b9083019060208201858111156200006e57600080fd5b82516401000000008111828201881017156200008957600080fd5b82525081516020918201929091019080838360005b83811015620000b85781810151838201526020016200009e565b50505050905090810190601f168015620000e65780820380516001836020036101000a031916815260200191505b50604052602001805160405193929190846401000000008211156200010a57600080fd5b9083019060208201858111156200012057600080fd5b82516401000000008111828201881017156200013b57600080fd5b82525081516020918201929091019080838360005b838110156200016a57818101518382015260200162000150565b50505050905090810190601f168015620001985780820380516001836020036101000a031916815260200191505b5060405250505081816000620001b3620002a960201b60201c565b600080546001600160a01b0319166001600160a01b0383169081178255604051929350917f8be0079c531659141344cd1fd0a4f28419497f9722a3daafe3b4186f6b6457e0908290a3506200020f6301ffc9a760e01b620002ad565b81516200022490600790602085019062000497565b5080516200023a90600890602084019062000497565b506200024d6380ac58cd60e01b620002ad565b6200025f635b5e139f60e01b620002ad565b6200027163780e9d6360e01b620002ad565b5062000288905062000282620002a9565b62000335565b620002a157620002a16200029b620002a9565b62000358565b505062000543565b3390565b6001600160e01b031980821614156200030d576040805162461bcd60e51b815260206004820152601c60248201527f4552433136353a20696e76616c696420696e7465726661636520696400000000604482015290519081900360640190fd5b6001600160e01b0319166000908152600160208190526040909120805460ff19169091179055565b60006200035282600b620003aa60201b620011aa1790919060201c565b92915050565b6200037381600b6200041360201b620012111790919060201c565b6040516001600160a01b038216907fac6fa858e9350a46cec16539926e0fde25b7629f84b5a72bffaae4df888ae86d90600090a250565b60006001600160a01b038216620003f35760405162461bcd60e51b8152600401808060200182810382526022815260200180620028d66022913960400191505060405180910390fd5b506001600160a01b03166000908152602091909152604090205460ff1690565b6200041f8282620003aa565b1562000472576040805162461bcd60e51b815260206004820152601f60248201527f526f6c65733a206163636f756e7420616c72656164792068617320726f6c6500604482015290519081900360640190fd5b6001600160a01b0316600090815260209190915260409020805460ff19166001179055565b828054600181600116156101000203166002900490600052602060002090601f016020900481019282620004cf57600085556200051a565b82601f10620004ea57805160ff19168380011785556200051a565b828001600101855582156200051a579182015b828111156200051a578251825591602001919060010190620004fd565b50620005289291506200052c565b5090565b5b808211156200052857600081556001016200052d565b61238380620005536000396000f3fe608060405234801561001057600080fd5b50600436106101735760003560e01c80636d70f7ae116100de578063a22cb46511610097578063b88d4fde11610071578063b88d4fde14610527578063c87b56dd146105ed578063e985e9c51461060a578063f2fde38b1461063857610173565b8063a22cb4651461041d578063a8d552111461044b578063ac8a584a1461050157610173565b80636d70f7ae1461039357806370a08231146103b9578063715018a6146103df5780638da5cb5b146103e757806395d89b41146103ef5780639870d7fe146103f757610173565b80632ab6f8db116101305780632ab6f8db146102e75780632f745c59146102ef57806342842e0e1461031b5780634f6ccce7146103515780636352211e1461036e5780636c0360eb1461038b57610173565b806301ffc9a71461017857806306fdde03146101b3578063081812fc14610230578063095ea7b31461026957806318160ddd1461029757806323b872dd146102b1575b600080fd5b61019f6004803603602081101561018e57600080fd5b50356001600160e01b03191661065e565b604080519115158252519081900360200190f35b6101bb610681565b6040805160208082528351818301528351919283929083019185019080838360005b838110156101f55781810151838201526020016101dd565b50505050905090810190601f1680156102225780820380516001836020036101000a031916815260200191505b509250505060405180910390f35b61024d6004803603602081101561024657600080fd5b5035610717565b604080516001600160a01b039092168252519081900360200190f35b6102956004803603604081101561027f57600080fd5b506001600160a01b038135169060200135610779565b005b61029f610854565b60408051918252519081900360200190f35b610295600480360360608110156102c757600080fd5b506001600160a01b03813581169160208101359091169060400135610865565b6102956108bc565b61029f6004803603604081101561030557600080fd5b506001600160a01b0381351690602001356108ce565b6102956004803603606081101561033157600080fd5b506001600160a01b038135811691602081013590911690604001356108f9565b61029f6004803603602081101561036757600080fd5b5035610914565b61024d6004803603602081101561038457600080fd5b503561092a565b6101bb610952565b61019f600480360360208110156103a957600080fd5b50356001600160a01b03166109b3565b61029f600480360360208110156103cf57600080fd5b50356001600160a01b03166109c0565b610295610a28565b61024d610ad4565b6101bb610ae3565b6102956004803603602081101561040d57600080fd5b50356001600160a01b0316610b44565b6102956004803603604081101561043357600080fd5b506001600160a01b0381351690602001351515610bb2565b61029f6004803603604081101561046157600080fd5b6001600160a01b03823516919081019060408101602082013564010000000081111561048c57600080fd5b82018360208201111561049e57600080fd5b803590602001918460018302840111640100000000831117156104c057600080fd5b91908080601f016020809104026020016040519081016040528093929190818152602001838380828437600092019190915250929550610cb7945050505050565b6102956004803603602081101561051757600080fd5b50356001600160a01b0316610d30565b6102956004803603608081101561053d57600080fd5b6001600160a01b0382358116926020810135909116916040820135919081019060808101606082013564010000000081111561057857600080fd5b82018360208201111561058a57600080fd5b803590602001918460018302840111640100000000831117156105ac57600080fd5b91908080601f016020809104026020016040519081016040528093929190818152602001838380828437600092019190915250929550610d9b945050505050565b6101bb6004803603602081101561060357600080fd5b5035610df9565b61019f6004803603604081101561062057600080fd5b506001600160a01b038135811691602001351661107a565b6102956004803603602081101561064e57600080fd5b50356001600160a01b03166110a8565b6001600160e01b0319811660009081526001602052604090205460ff165b919050565b60078054604080516020601f600260001961010060018816150201909516949094049384018190048102820181019092528281526060939092909183018282801561070d5780601f106106e25761010080835404028352916020019161070d565b820191906000526020600020905b8154815290600101906020018083116106f057829003601f168201915b5050505050905090565b600061072282611292565b61075d5760405162461bcd60e51b815260040180806020018281038252602c81526020018061220a602c913960400191505060405180910390fd5b506000908152600560205260409020546001600160a01b031690565b60006107848261092a565b9050806001600160a01b0316836001600160a01b031614156107d75760405162461bcd60e51b81526004018080602001828103825260218152602001806122fc6021913960400191505060405180910390fd5b806001600160a01b03166107e961129f565b6001600160a01b0316148061080a575061080a8161080561129f565b61107a565b6108455760405162461bcd60e51b815260040180806020018281038252603881526020018061213c6038913960400191505060405180910390fd5b61084f83836112a3565b505050565b60006108606003611311565b905090565b61087661087061129f565b8261131c565b6108b15760405162461bcd60e51b815260040180806020018281038252603181526020018061231d6031913960400191505060405180910390fd5b61084f8383836113c0565b6108cc6108c761129f565b61150c565b565b6001600160a01b03821660009081526002602052604081206108f0908361154e565b90505b92915050565b61084f83838360405180602001604052806000815250610d9b565b60008061092260038461155a565b509392505050565b60006108f38260405180606001604052806029815260200161219e6029913960039190611576565b600a8054604080516020601f600260001961010060018816150201909516949094049384018190048102820181019092528281526060939092909183018282801561070d5780601f106106e25761010080835404028352916020019161070d565b60006108f3600b836111aa565b60006001600160a01b038216610a075760405162461bcd60e51b815260040180806020018281038252602a815260200180612174602a913960400191505060405180910390fd5b6001600160a01b03821660009081526002602052604090206108f390611311565b610a3061129f565b6001600160a01b0316610a41610ad4565b6001600160a01b031614610a8a576040805162461bcd60e51b81526020600482018190526024820152600080516020612262833981519152604482015290519081900360640190fd5b600080546040516001600160a01b03909116907f8be0079c531659141344cd1fd0a4f28419497f9722a3daafe3b4186f6b6457e0908390a3600080546001600160a01b0319169055565b6000546001600160a01b031690565b60088054604080516020601f600260001961010060018816150201909516949094049384018190048102820181019092528281526060939092909183018282801561070d5780601f106106e25761010080835404028352916020019161070d565b610b4c61129f565b6001600160a01b0316610b5d610ad4565b6001600160a01b031614610ba6576040805162461bcd60e51b81526020600482018190526024820152600080516020612262833981519152604482015290519081900360640190fd5b610baf8161158d565b50565b610bba61129f565b6001600160a01b0316826001600160a01b03161415610c20576040805162461bcd60e51b815260206004820152601960248201527f4552433732313a20617070726f766520746f2063616c6c657200000000000000604482015290519081900360640190fd5b8060066000610c2d61129f565b6001600160a01b03908116825260208083019390935260409182016000908120918716808252919093529120805460ff191692151592909217909155610c7161129f565b6001600160a01b03167f17307eab39ab6107e8899845ad3d59bd9653f200f220920489ca2b5937696c318360405180821515815260200191505060405180910390a35050565b6000610cc9610cc461129f565b6109b3565b610d045760405162461bcd60e51b81526004018080602001828103825260348152602001806120dc6034913960400191505060405180910390fd5b610d0e600c6115cf565b6000610d1a600c6115d8565b9050610d2684826115dc565b6108f0818461170a565b610d3861129f565b6001600160a01b0316610d49610ad4565b6001600160a01b031614610d92576040805162461bcd60e51b81526020600482018190526024820152600080516020612262833981519152604482015290519081900360640190fd5b610baf8161150c565b610dac610da661129f565b8361131c565b610de75760405162461bcd60e51b815260040180806020018281038252603181526020018061231d6031913960400191505060405180910390fd5b610df38484848461176d565b50505050565b6060610e0482611292565b610e3f5760405162461bcd60e51b815260040180806020018281038252602f8152602001806122cd602f913960400191505060405180910390fd5b60008281526009602090815260408083208054825160026001831615610100026000190190921691909104601f810185900485028201850190935282815292909190830182828015610ed25780601f10610ea757610100808354040283529160200191610ed2565b820191906000526020600020905b815481529060010190602001808311610eb557829003601f168201915b505050505090506000610ee3610952565b9050805160001415610ef75750905061067c565b815115610fb85780826040516020018083805190602001908083835b60208310610f325780518252601f199092019160209182019101610f13565b51815160209384036101000a600019018019909216911617905285519190930192850191508083835b60208310610f7a5780518252601f199092019160209182019101610f5b565b6001836020036101000a038019825116818451168082178552505050505050905001925050506040516020818303038152906040529250505061067c565b80610fc2856117bf565b6040516020018083805190602001908083835b60208310610ff45780518252601f199092019160209182019101610fd5565b51815160209384036101000a600019018019909216911617905285519190930192850191508083835b6020831061103c5780518252601f19909201916020918201910161101d565b6001836020036101000a0380198251168184511680821785525050505050509050019250505060405160208183030381529060405292505050919050565b6001600160a01b03918216600090815260066020908152604080832093909416825291909152205460ff1690565b6110b061129f565b6001600160a01b03166110c1610ad4565b6001600160a01b03161461110a576040805162461bcd60e51b81526020600482018190526024820152600080516020612262833981519152604482015290519081900360640190fd5b6001600160a01b03811661114f5760405162461bcd60e51b81526004018080602001828103825260268152602001806120926026913960400191505060405180910390fd5b600080546040516001600160a01b03808516939216917f8be0079c531659141344cd1fd0a4f28419497f9722a3daafe3b4186f6b6457e091a3600080546001600160a01b0319166001600160a01b0392909216919091179055565b60006001600160a01b0382166111f15760405162461bcd60e51b81526004018080602001828103825260228152602001806122826022913960400191505060405180910390fd5b506001600160a01b03166000908152602091909152604090205460ff1690565b61121b82826111aa565b1561126d576040805162461bcd60e51b815260206004820152601f60248201527f526f6c65733a206163636f756e7420616c72656164792068617320726f6c6500604482015290519081900360640190fd5b6001600160a01b0316600090815260209190915260409020805460ff19166001179055565b60006108f360038361189a565b3390565b600081815260056020526040902080546001600160a01b0319166001600160a01b03841690811790915581906112d88261092a565b6001600160a01b03167f8c5be1e5ebec7d5bd14f71427d1e84f3dd0314c0f7b2291e5b200ac8c7c3b92560405160405180910390a45050565b60006108f3826115d8565b600061132782611292565b6113625760405162461bcd60e51b815260040180806020018281038252602c815260200180612110602c913960400191505060405180910390fd5b600061136d8361092a565b9050806001600160a01b0316846001600160a01b031614806113a85750836001600160a01b031661139d84610717565b6001600160a01b0316145b806113b857506113b8818561107a565b949350505050565b826001600160a01b03166113d38261092a565b6001600160a01b0316146114185760405162461bcd60e51b81526004018080602001828103825260298152602001806122a46029913960400191505060405180910390fd5b6001600160a01b03821661145d5760405162461bcd60e51b81526004018080602001828103825260248152602001806120b86024913960400191505060405180910390fd5b61146883838361084f565b6114736000826112a3565b6001600160a01b038316600090815260026020526040902061149590826118a6565b506001600160a01b03821660009081526002602052604090206114b890826118b2565b506114c5600382846118be565b5080826001600160a01b0316846001600160a01b03167fddf252ad1be2c89b69c2b068fc378daa952ba7f163c4a11628f55a4df523b3ef60405160405180910390a4505050565b611517600b826118d4565b6040516001600160a01b038216907f80c0b871b97b595b16a7741c1b06fed0c6f6f558639f18ccbce50724325dc40d90600090a250565b60006108f0838361193b565b6000808080611569868661199f565b9097909650945050505050565b6000611583848484611a1a565b90505b9392505050565b611598600b82611211565b6040516001600160a01b038216907fac6fa858e9350a46cec16539926e0fde25b7629f84b5a72bffaae4df888ae86d90600090a250565b80546001019055565b5490565b6001600160a01b038216611637576040805162461bcd60e51b815260206004820181905260248201527f4552433732313a206d696e7420746f20746865207a65726f2061646472657373604482015290519081900360640190fd5b61164081611292565b15611692576040805162461bcd60e51b815260206004820152601c60248201527f4552433732313a20746f6b656e20616c7265616479206d696e74656400000000604482015290519081900360640190fd5b61169e6000838361084f565b6001600160a01b03821660009081526002602052604090206116c090826118b2565b506116cd600382846118be565b5060405181906001600160a01b038416906000907fddf252ad1be2c89b69c2b068fc378daa952ba7f163c4a11628f55a4df523b3ef908290a45050565b61171382611292565b61174e5760405162461bcd60e51b815260040180806020018281038252602c815260200180612236602c913960400191505060405180910390fd5b6000828152600960209081526040909120825161084f92840190611f9c565b6117788484846113c0565b61178484848484611ae4565b610df35760405162461bcd60e51b81526004018080602001828103825260328152602001806120606032913960400191505060405180910390fd5b6060816117e457506040805180820190915260018152600360fc1b602082015261067c565b8160005b81156117fc57600101600a820491506117e8565b60008167ffffffffffffffff8111801561181557600080fd5b506040519080825280601f01601f191660200182016040528015611840576020820181803683370190505b50859350905060001982015b831561189157600a840660300160f81b8282806001900393508151811061186f57fe5b60200101906001600160f81b031916908160001a905350600a8404935061184c565b50949350505050565b60006108f08383611c4c565b60006108f08383611c64565b60006108f08383611d2a565b600061158384846001600160a01b038516611d74565b6118de82826111aa565b6119195760405162461bcd60e51b81526004018080602001828103825260218152602001806121c76021913960400191505060405180910390fd5b6001600160a01b0316600090815260209190915260409020805460ff19169055565b8154600090821061197d5760405162461bcd60e51b815260040180806020018281038252602281526020018061203e6022913960400191505060405180910390fd5b82600001828154811061198c57fe5b9060005260206000200154905092915050565b8154600090819083106119e35760405162461bcd60e51b81526004018080602001828103825260228152602001806121e86022913960400191505060405180910390fd5b60008460000184815481106119f457fe5b906000526020600020906002020190508060000154816001015492509250509250929050565b60008281526001840160205260408120548281611ab55760405162461bcd60e51b81526004018080602001828103825283818151815260200191508051906020019080838360005b83811015611a7a578181015183820152602001611a62565b50505050905090810190601f168015611aa75780820380516001836020036101000a031916815260200191505b509250505060405180910390fd5b50846000016001820381548110611ac857fe5b9060005260206000209060020201600101549150509392505050565b6000611af8846001600160a01b0316611e0b565b611b04575060016113b8565b6000611c12630a85bd0160e11b611b1961129f565b88878760405160240180856001600160a01b03168152602001846001600160a01b0316815260200183815260200180602001828103825283818151815260200191508051906020019080838360005b83811015611b80578181015183820152602001611b68565b50505050905090810190601f168015611bad5780820380516001836020036101000a031916815260200191505b5095505050505050604051602081830303815290604052906001600160e01b0319166020820180516001600160e01b038381831617835250505050604051806060016040528060328152602001612060603291396001600160a01b0388169190611e11565b90506000818060200190516020811015611c2b57600080fd5b50516001600160e01b031916630a85bd0160e11b1492505050949350505050565b60009081526001919091016020526040902054151590565b60008181526001830160205260408120548015611d205783546000198083019190810190600090879083908110611c9757fe5b9060005260206000200154905080876000018481548110611cb457fe5b600091825260208083209091019290925582815260018981019092526040902090840190558654879080611ce457fe5b600190038181906000526020600020016000905590558660010160008781526020019081526020016000206000905560019450505050506108f3565b60009150506108f3565b6000611d368383611c4c565b611d6c575081546001818101845560008481526020808220909301849055845484825282860190935260409020919091556108f3565b5060006108f3565b600082815260018401602052604081205480611dd9575050604080518082018252838152602080820184815286546001818101895560008981528481209551600290930290950191825591519082015586548684528188019092529290912055611586565b82856000016001830381548110611dec57fe5b9060005260206000209060020201600101819055506000915050611586565b3b151590565b6060611583848460008585611e2585611e0b565b611e76576040805162461bcd60e51b815260206004820152601d60248201527f416464726573733a2063616c6c20746f206e6f6e2d636f6e7472616374000000604482015290519081900360640190fd5b600080866001600160a01b031685876040518082805190602001908083835b60208310611eb45780518252601f199092019160209182019101611e95565b6001836020036101000a03801982511681845116808217855250505050505090500191505060006040518083038185875af1925050503d8060008114611f16576040519150601f19603f3d011682016040523d82523d6000602084013e611f1b565b606091505b5091509150611f2b828286611f36565b979650505050505050565b60608315611f45575081611586565b825115611f555782518084602001fd5b60405162461bcd60e51b8152602060048201818152845160248401528451859391928392604401919085019080838360008315611a7a578181015183820152602001611a62565b828054600181600116156101000203166002900490600052602060002090601f016020900481019282611fd25760008555612018565b82601f10611feb57805160ff1916838001178555612018565b82800160010185558215612018579182015b82811115612018578251825591602001919060010190611ffd565b50612024929150612028565b5090565b5b80821115612024576000815560010161202956fe456e756d657261626c655365743a20696e646578206f7574206f6620626f756e64734552433732313a207472616e7366657220746f206e6f6e20455243373231526563656976657220696d706c656d656e7465724f776e61626c653a206e6577206f776e657220697320746865207a65726f20616464726573734552433732313a207472616e7366657220746f20746865207a65726f20616464726573734f70657261746f72526f6c653a2063616c6c657220646f6573206e6f74206861766520746865204f70657261746f7220726f6c654552433732313a206f70657261746f7220717565727920666f72206e6f6e6578697374656e7420746f6b656e4552433732313a20617070726f76652063616c6c6572206973206e6f74206f776e6572206e6f7220617070726f76656420666f7220616c6c4552433732313a2062616c616e636520717565727920666f7220746865207a65726f20616464726573734552433732313a206f776e657220717565727920666f72206e6f6e6578697374656e7420746f6b656e526f6c65733a206163636f756e7420646f6573206e6f74206861766520726f6c65456e756d657261626c654d61703a20696e646578206f7574206f6620626f756e64734552433732313a20617070726f76656420717565727920666f72206e6f6e6578697374656e7420746f6b656e4552433732314d657461646174613a2055524920736574206f66206e6f6e6578697374656e7420746f6b656e4f776e61626c653a2063616c6c6572206973206e6f7420746865206f776e6572526f6c65733a206163636f756e7420697320746865207a65726f20616464726573734552433732313a207472616e73666572206f6620746f6b656e2074686174206973206e6f74206f776e4552433732314d657461646174613a2055524920717565727920666f72206e6f6e6578697374656e7420746f6b656e4552433732313a20617070726f76616c20746f2063757272656e74206f776e65724552433732313a207472616e736665722063616c6c6572206973206e6f74206f776e6572206e6f7220617070726f766564a2646970667358221220b658c86923803189175f49265e057eae13763ec2e953d97dde67719a9bf27b8564736f6c63430007060033526f6c65733a206163636f756e7420697320746865207a65726f2061646472657373",
  "devdoc": {
    "kind": "dev",
    "methods": {
      "approve(address,uint256)": {
        "details": "See {IERC721-approve}."
      },
      "balanceOf(address)": {
        "details": "See {IERC721-balanceOf}."
      },
      "baseURI()": {
        "details": "Returns the base URI set via {_setBaseURI}. This will be automatically added as a prefix in {tokenURI} to each token's URI, or to the token ID if no specific URI is set for that token ID."
      },
      "getApproved(uint256)": {
        "details": "See {IERC721-getApproved}."
      },
      "isApprovedForAll(address,address)": {
        "details": "See {IERC721-isApprovedForAll}."
      },
      "name()": {
        "details": "See {IERC721Metadata-name}."
      },
      "owner()": {
        "details": "Returns the address of the current owner."
      },
      "ownerOf(uint256)": {
        "details": "See {IERC721-ownerOf}."
      },
      "renounceOwnership()": {
        "details": "Leaves the contract without owner. It will not be possible to call `onlyOwner` functions anymore. Can only be called by the current owner. NOTE: Renouncing ownership will leave the contract without an owner, thereby removing any functionality that is only available to the owner."
      },
      "safeTransferFrom(address,address,uint256)": {
        "details": "See {IERC721-safeTransferFrom}."
      },
      "safeTransferFrom(address,address,uint256,bytes)": {
        "details": "See {IERC721-safeTransferFrom}."
      },
      "setApprovalForAll(address,bool)": {
        "details": "See {IERC721-setApprovalForAll}."
      },
      "supportsInterface(bytes4)": {
        "details": "See {IERC165-supportsInterface}. Time complexity O(1), guaranteed to always use less than 30 000 gas."
      },
      "symbol()": {
        "details": "See {IERC721Metadata-symbol}."
      },
      "tokenByIndex(uint256)": {
        "details": "See {IERC721Enumerable-tokenByIndex}."
      },
      "tokenOfOwnerByIndex(address,uint256)": {
        "details": "See {IERC721Enumerable-tokenOfOwnerByIndex}."
      },
      "tokenURI(uint256)": {
        "details": "See {IERC721Metadata-tokenURI}."
      },
      "totalSupply()": {
        "details": "See {IERC721Enumerable-totalSupply}."
      },
      "transferFrom(address,address,uint256)": {
        "details": "See {IERC721-transferFrom}."
      },
      "transferOwnership(address)": {
        "details": "Transfers ownership of the contract to a new account (`newOwner`). Can only be called by the current owner."
      }
    },
    "version": 1
  },
  "userdoc": {
    "kind": "user",
    "methods": {},
    "version": 1
  },
  "storageLayout": {
    "storage": [
      {
        "astId": 7,
        "contract": "contracts/TotemNormalNFT.sol:TotemNormalNFT",
        "label": "_owner",
        "offset": 0,
        "slot": "0",
        "type": "t_address"
      },
      {
        "astId": 123,
        "contract": "contracts/TotemNormalNFT.sol:TotemNormalNFT",
        "label": "_supportedInterfaces",
        "offset": 0,
        "slot": "1",
        "type": "t_mapping(t_bytes4,t_bool)"
      },
      {
        "astId": 1160,
        "contract": "contracts/TotemNormalNFT.sol:TotemNormalNFT",
        "label": "_holderTokens",
        "offset": 0,
        "slot": "2",
        "type": "t_mapping(t_address,t_struct(UintSet)3575_storage)"
      },
      {
        "astId": 1162,
        "contract": "contracts/TotemNormalNFT.sol:TotemNormalNFT",
        "label": "_tokenOwners",
        "offset": 0,
        "slot": "3",
        "type": "t_struct(UintToAddressMap)2952_storage"
      },
      {
        "astId": 1166,
        "contract": "contracts/TotemNormalNFT.sol:TotemNormalNFT",
        "label": "_tokenApprovals",
        "offset": 0,
        "slot": "5",
        "type": "t_mapping(t_uint256,t_address)"
      },
      {
        "astId": 1172,
        "contract": "contracts/TotemNormalNFT.sol:TotemNormalNFT",
        "label": "_operatorApprovals",
        "offset": 0,
        "slot": "6",
        "type": "t_mapping(t_address,t_mapping(t_address,t_bool))"
      },
      {
        "astId": 1174,
        "contract": "contracts/TotemNormalNFT.sol:TotemNormalNFT",
        "label": "_name",
        "offset": 0,
        "slot": "7",
        "type": "t_string_storage"
      },
      {
        "astId": 1176,
        "contract": "contracts/TotemNormalNFT.sol:TotemNormalNFT",
        "label": "_symbol",
        "offset": 0,
        "slot": "8",
        "type": "t_string_storage"
      },
      {
        "astId": 1180,
        "contract": "contracts/TotemNormalNFT.sol:TotemNormalNFT",
        "label": "_tokenURIs",
        "offset": 0,
        "slot": "9",
        "type": "t_mapping(t_uint256,t_string_storage)"
      },
      {
        "astId": 1182,
        "contract": "contracts/TotemNormalNFT.sol:TotemNormalNFT",
        "label": "_baseURI",
        "offset": 0,
        "slot": "10",
        "type": "t_string_storage"
      },
      {
        "astId": 3776,
        "contract": "contracts/TotemNormalNFT.sol:TotemNormalNFT",
        "label": "_operators",
        "offset": 0,
        "slot": "11",
        "type": "t_struct(Role)3867_storage"
      },
      {
        "astId": 4087,
        "contract": "contracts/TotemNormalNFT.sol:TotemNormalNFT",
        "label": "_tokenIds",
        "offset": 0,
        "slot": "12",
        "type": "t_struct(Counter)2578_storage"
      }
    ],
    "types": {
      "t_address": {
        "encoding": "inplace",
        "label": "address",
        "numberOfBytes": "20"
      },
      "t_array(t_bytes32)dyn_storage": {
        "base": "t_bytes32",
        "encoding": "dynamic_array",
        "label": "bytes32[]",
        "numberOfBytes": "32"
      },
      "t_array(t_struct(MapEntry)2626_storage)dyn_storage": {
        "base": "t_struct(MapEntry)2626_storage",
        "encoding": "dynamic_array",
        "label": "struct EnumerableMap.MapEntry[]",
        "numberOfBytes": "32"
      },
      "t_bool": {
        "encoding": "inplace",
        "label": "bool",
        "numberOfBytes": "1"
      },
      "t_bytes32": {
        "encoding": "inplace",
        "label": "bytes32",
        "numberOfBytes": "32"
      },
      "t_bytes4": {
        "encoding": "inplace",
        "label": "bytes4",
        "numberOfBytes": "4"
      },
      "t_mapping(t_address,t_bool)": {
        "encoding": "mapping",
        "key": "t_address",
        "label": "mapping(address => bool)",
        "numberOfBytes": "32",
        "value": "t_bool"
      },
      "t_mapping(t_address,t_mapping(t_address,t_bool))": {
        "encoding": "mapping",
        "key": "t_address",
        "label": "mapping(address => mapping(address => bool))",
        "numberOfBytes": "32",
        "value": "t_mapping(t_address,t_bool)"
      },
      "t_mapping(t_address,t_struct(UintSet)3575_storage)": {
        "encoding": "mapping",
        "key": "t_address",
        "label": "mapping(address => struct EnumerableSet.UintSet)",
        "numberOfBytes": "32",
        "value": "t_struct(UintSet)3575_storage"
      },
      "t_mapping(t_bytes32,t_uint256)": {
        "encoding": "mapping",
        "key": "t_bytes32",
        "label": "mapping(bytes32 => uint256)",
        "numberOfBytes": "32",
        "value": "t_uint256"
      },
      "t_mapping(t_bytes4,t_bool)": {
        "encoding": "mapping",
        "key": "t_bytes4",
        "label": "mapping(bytes4 => bool)",
        "numberOfBytes": "32",
        "value": "t_bool"
      },
      "t_mapping(t_uint256,t_address)": {
        "encoding": "mapping",
        "key": "t_uint256",
        "label": "mapping(uint256 => address)",
        "numberOfBytes": "32",
        "value": "t_address"
      },
      "t_mapping(t_uint256,t_string_storage)": {
        "encoding": "mapping",
        "key": "t_uint256",
        "label": "mapping(uint256 => string)",
        "numberOfBytes": "32",
        "value": "t_string_storage"
      },
      "t_string_storage": {
        "encoding": "bytes",
        "label": "string",
        "numberOfBytes": "32"
      },
      "t_struct(Counter)2578_storage": {
        "encoding": "inplace",
        "label": "struct Counters.Counter",
        "members": [
          {
            "astId": 2577,
            "contract": "contracts/TotemNormalNFT.sol:TotemNormalNFT",
            "label": "_value",
            "offset": 0,
            "slot": "0",
            "type": "t_uint256"
          }
        ],
        "numberOfBytes": "32"
      },
      "t_struct(Map)2634_storage": {
        "encoding": "inplace",
        "label": "struct EnumerableMap.Map",
        "members": [
          {
            "astId": 2629,
            "contract": "contracts/TotemNormalNFT.sol:TotemNormalNFT",
            "label": "_entries",
            "offset": 0,
            "slot": "0",
            "type": "t_array(t_struct(MapEntry)2626_storage)dyn_storage"
          },
          {
            "astId": 2633,
            "contract": "contracts/TotemNormalNFT.sol:TotemNormalNFT",
            "label": "_indexes",
            "offset": 0,
            "slot": "1",
            "type": "t_mapping(t_bytes32,t_uint256)"
          }
        ],
        "numberOfBytes": "64"
      },
      "t_struct(MapEntry)2626_storage": {
        "encoding": "inplace",
        "label": "struct EnumerableMap.MapEntry",
        "members": [
          {
            "astId": 2623,
            "contract": "contracts/TotemNormalNFT.sol:TotemNormalNFT",
            "label": "_key",
            "offset": 0,
            "slot": "0",
            "type": "t_bytes32"
          },
          {
            "astId": 2625,
            "contract": "contracts/TotemNormalNFT.sol:TotemNormalNFT",
            "label": "_value",
            "offset": 0,
            "slot": "1",
            "type": "t_bytes32"
          }
        ],
        "numberOfBytes": "64"
      },
      "t_struct(Role)3867_storage": {
        "encoding": "inplace",
        "label": "struct Roles.Role",
        "members": [
          {
            "astId": 3866,
            "contract": "contracts/TotemNormalNFT.sol:TotemNormalNFT",
            "label": "bearer",
            "offset": 0,
            "slot": "0",
            "type": "t_mapping(t_address,t_bool)"
          }
        ],
        "numberOfBytes": "32"
      },
      "t_struct(Set)3189_storage": {
        "encoding": "inplace",
        "label": "struct EnumerableSet.Set",
        "members": [
          {
            "astId": 3184,
            "contract": "contracts/TotemNormalNFT.sol:TotemNormalNFT",
            "label": "_values",
            "offset": 0,
            "slot": "0",
            "type": "t_array(t_bytes32)dyn_storage"
          },
          {
            "astId": 3188,
            "contract": "contracts/TotemNormalNFT.sol:TotemNormalNFT",
            "label": "_indexes",
            "offset": 0,
            "slot": "1",
            "type": "t_mapping(t_bytes32,t_uint256)"
          }
        ],
        "numberOfBytes": "64"
      },
      "t_struct(UintSet)3575_storage": {
        "encoding": "inplace",
        "label": "struct EnumerableSet.UintSet",
        "members": [
          {
            "astId": 3574,
            "contract": "contracts/TotemNormalNFT.sol:TotemNormalNFT",
            "label": "_inner",
            "offset": 0,
            "slot": "0",
            "type": "t_struct(Set)3189_storage"
          }
        ],
        "numberOfBytes": "64"
      },
      "t_struct(UintToAddressMap)2952_storage": {
        "encoding": "inplace",
        "label": "struct EnumerableMap.UintToAddressMap",
        "members": [
          {
            "astId": 2951,
            "contract": "contracts/TotemNormalNFT.sol:TotemNormalNFT",
            "label": "_inner",
            "offset": 0,
            "slot": "0",
            "type": "t_struct(Map)2634_storage"
          }
        ],
        "numberOfBytes": "64"
      },
      "t_uint256": {
        "encoding": "inplace",
        "label": "uint256",
        "numberOfBytes": "32"
      }
    }
  }
}